{
  "contractName": "CarRegistry",
  "abi": [
    {
      "inputs": [],
      "stateMutability": "nonpayable",
      "type": "constructor"
    },
    {
      "anonymous": false,
      "inputs": [
        {
          "indexed": true,
          "internalType": "uint256",
          "name": "carId",
          "type": "uint256"
        },
        {
          "indexed": false,
          "internalType": "uint256",
          "name": "askingPrice",
          "type": "uint256"
        }
      ],
      "name": "CarListedForSale",
      "type": "event"
    },
    {
      "anonymous": false,
      "inputs": [
        {
          "indexed": true,
          "internalType": "uint256",
          "name": "carId",
          "type": "uint256"
        },
        {
          "indexed": true,
          "internalType": "address",
          "name": "owner",
          "type": "address"
        }
      ],
      "name": "CarRegistered",
      "type": "event"
    },
    {
      "anonymous": false,
      "inputs": [
        {
          "indexed": true,
          "internalType": "uint256",
          "name": "carId",
          "type": "uint256"
        },
        {
          "indexed": true,
          "internalType": "address",
          "name": "oldOwner",
          "type": "address"
        },
        {
          "indexed": true,
          "internalType": "address",
          "name": "newOwner",
          "type": "address"
        },
        {
          "indexed": false,
          "internalType": "uint256",
          "name": "sellingPrice",
          "type": "uint256"
        }
      ],
      "name": "CarSold",
      "type": "event"
    },
    {
      "anonymous": false,
      "inputs": [
        {
          "indexed": true,
          "internalType": "uint256",
          "name": "carId",
          "type": "uint256"
        },
        {
          "indexed": true,
          "internalType": "address",
          "name": "requester",
          "type": "address"
        }
      ],
      "name": "MileageUpdateRequested",
      "type": "event"
    },
    {
      "anonymous": false,
      "inputs": [
        {
          "indexed": true,
          "internalType": "uint256",
          "name": "carId",
          "type": "uint256"
        },
        {
          "indexed": false,
          "internalType": "uint256",
          "name": "mileage",
          "type": "uint256"
        }
      ],
      "name": "MileageUpdated",
      "type": "event"
    },
    {
      "anonymous": false,
      "inputs": [
        {
          "indexed": true,
          "internalType": "uint256",
          "name": "carId",
          "type": "uint256"
        },
        {
          "indexed": true,
          "internalType": "address",
          "name": "buyer",
          "type": "address"
        }
      ],
      "name": "PurchaseConfirmed",
      "type": "event"
    },
    {
      "anonymous": false,
      "inputs": [
        {
          "indexed": true,
          "internalType": "uint256",
          "name": "carId",
          "type": "uint256"
        },
        {
          "indexed": true,
          "internalType": "address",
          "name": "requester",
          "type": "address"
        }
      ],
      "name": "PurchaseRequested",
      "type": "event"
    },
    {
      "inputs": [
        {
          "internalType": "uint256",
          "name": "",
          "type": "uint256"
        }
      ],
      "name": "carBuyers",
      "outputs": [
        {
          "internalType": "address",
          "name": "",
          "type": "address"
        }
      ],
      "stateMutability": "view",
      "type": "function",
      "constant": true
    },
    {
      "inputs": [],
      "name": "carCount",
      "outputs": [
        {
          "internalType": "uint256",
          "name": "",
          "type": "uint256"
        }
      ],
      "stateMutability": "view",
      "type": "function",
      "constant": true
    },
    {
      "inputs": [
        {
          "internalType": "uint256",
          "name": "",
          "type": "uint256"
        }
      ],
      "name": "cars",
      "outputs": [
        {
          "internalType": "uint256",
          "name": "carId",
          "type": "uint256"
        },
        {
          "internalType": "string",
          "name": "licensePlate",
          "type": "string"
        },
        {
          "internalType": "string",
          "name": "brand",
          "type": "string"
        },
        {
          "internalType": "string",
          "name": "imageUrl",
          "type": "string"
        },
        {
          "internalType": "string",
          "name": "color",
          "type": "string"
        },
        {
          "internalType": "uint256",
          "name": "mileage",
          "type": "uint256"
        },
        {
          "internalType": "address",
          "name": "owner",
          "type": "address"
        },
        {
          "internalType": "uint256",
          "name": "askingPrice",
          "type": "uint256"
        },
        {
          "internalType": "bool",
          "name": "mileageUpdateRequested",
          "type": "bool"
        },
        {
          "internalType": "address",
          "name": "dealer",
          "type": "address"
        },
        {
          "internalType": "bool",
          "name": "forSale",
          "type": "bool"
        },
        {
          "internalType": "bool",
          "name": "purchaseRequested",
          "type": "bool"
        }
      ],
      "stateMutability": "view",
      "type": "function",
      "constant": true
    },
    {
      "inputs": [
        {
          "internalType": "address",
          "name": "",
          "type": "address"
        }
      ],
      "name": "owners",
      "outputs": [
        {
          "internalType": "bool",
          "name": "",
          "type": "bool"
        }
      ],
      "stateMutability": "view",
      "type": "function",
      "constant": true
    },
    {
      "inputs": [
        {
          "internalType": "string",
          "name": "_licensePlate",
          "type": "string"
        },
        {
          "internalType": "string",
          "name": "_brand",
          "type": "string"
        },
        {
          "internalType": "string",
          "name": "_imageUrl",
          "type": "string"
        },
        {
          "internalType": "string",
          "name": "_color",
          "type": "string"
        },
        {
          "internalType": "uint256",
          "name": "_mileage",
          "type": "uint256"
        },
        {
          "internalType": "uint256",
          "name": "_askingPrice",
          "type": "uint256"
        },
        {
          "internalType": "address",
          "name": "_dealer",
          "type": "address"
        }
      ],
      "name": "registerCar",
      "outputs": [],
      "stateMutability": "nonpayable",
      "type": "function"
    },
    {
      "inputs": [
        {
          "internalType": "uint256",
          "name": "_carId",
          "type": "uint256"
        }
      ],
      "name": "requestMileageUpdate",
      "outputs": [],
      "stateMutability": "nonpayable",
      "type": "function"
    },
    {
      "inputs": [
        {
          "internalType": "uint256",
          "name": "_carId",
          "type": "uint256"
        },
        {
          "internalType": "uint256",
          "name": "_newMileage",
          "type": "uint256"
        }
      ],
      "name": "confirmMileageUpdate",
      "outputs": [],
      "stateMutability": "nonpayable",
      "type": "function"
    },
    {
      "inputs": [
        {
          "internalType": "uint256",
          "name": "_carId",
          "type": "uint256"
        }
      ],
      "name": "requestPurchase",
      "outputs": [],
      "stateMutability": "payable",
      "type": "function",
      "payable": true
    },
    {
      "inputs": [
        {
          "internalType": "uint256",
          "name": "_carId",
          "type": "uint256"
        },
        {
          "internalType": "uint256",
          "name": "_currentEtherPrice",
          "type": "uint256"
        }
      ],
      "name": "confirmPurchase",
      "outputs": [],
      "stateMutability": "nonpayable",
      "type": "function"
    },
    {
      "inputs": [],
      "name": "getCarsCount",
      "outputs": [
        {
          "internalType": "uint256",
          "name": "",
          "type": "uint256"
        }
      ],
      "stateMutability": "view",
      "type": "function",
      "constant": true
    },
    {
      "inputs": [],
      "name": "getAllCars",
      "outputs": [
        {
          "components": [
            {
              "internalType": "uint256",
              "name": "carId",
              "type": "uint256"
            },
            {
              "internalType": "string",
              "name": "licensePlate",
              "type": "string"
            },
            {
              "internalType": "string",
              "name": "brand",
              "type": "string"
            },
            {
              "internalType": "string",
              "name": "imageUrl",
              "type": "string"
            },
            {
              "internalType": "string",
              "name": "color",
              "type": "string"
            },
            {
              "internalType": "uint256",
              "name": "mileage",
              "type": "uint256"
            },
            {
              "internalType": "address",
              "name": "owner",
              "type": "address"
            },
            {
              "internalType": "uint256",
              "name": "askingPrice",
              "type": "uint256"
            },
            {
              "internalType": "bool",
              "name": "mileageUpdateRequested",
              "type": "bool"
            },
            {
              "internalType": "address",
              "name": "dealer",
              "type": "address"
            },
            {
              "internalType": "bool",
              "name": "forSale",
              "type": "bool"
            },
            {
              "internalType": "bool",
              "name": "purchaseRequested",
              "type": "bool"
            }
          ],
          "internalType": "struct CarRegistry.Car[]",
          "name": "",
          "type": "tuple[]"
        }
      ],
      "stateMutability": "view",
      "type": "function",
      "constant": true
    },
    {
      "inputs": [
        {
          "internalType": "address",
          "name": "_owner",
          "type": "address"
        }
      ],
      "name": "getCarsOwnedByAddress",
      "outputs": [
        {
          "components": [
            {
              "internalType": "uint256",
              "name": "carId",
              "type": "uint256"
            },
            {
              "internalType": "string",
              "name": "licensePlate",
              "type": "string"
            },
            {
              "internalType": "string",
              "name": "brand",
              "type": "string"
            },
            {
              "internalType": "string",
              "name": "imageUrl",
              "type": "string"
            },
            {
              "internalType": "string",
              "name": "color",
              "type": "string"
            },
            {
              "internalType": "uint256",
              "name": "mileage",
              "type": "uint256"
            },
            {
              "internalType": "address",
              "name": "owner",
              "type": "address"
            },
            {
              "internalType": "uint256",
              "name": "askingPrice",
              "type": "uint256"
            },
            {
              "internalType": "bool",
              "name": "mileageUpdateRequested",
              "type": "bool"
            },
            {
              "internalType": "address",
              "name": "dealer",
              "type": "address"
            },
            {
              "internalType": "bool",
              "name": "forSale",
              "type": "bool"
            },
            {
              "internalType": "bool",
              "name": "purchaseRequested",
              "type": "bool"
            }
          ],
          "internalType": "struct CarRegistry.Car[]",
          "name": "",
          "type": "tuple[]"
        }
      ],
      "stateMutability": "view",
      "type": "function",
      "constant": true
    },
    {
      "inputs": [],
      "name": "getRequestedMileageUpdateCars",
      "outputs": [
        {
          "components": [
            {
              "internalType": "uint256",
              "name": "carId",
              "type": "uint256"
            },
            {
              "internalType": "string",
              "name": "licensePlate",
              "type": "string"
            },
            {
              "internalType": "string",
              "name": "brand",
              "type": "string"
            },
            {
              "internalType": "string",
              "name": "imageUrl",
              "type": "string"
            },
            {
              "internalType": "string",
              "name": "color",
              "type": "string"
            },
            {
              "internalType": "uint256",
              "name": "mileage",
              "type": "uint256"
            },
            {
              "internalType": "address",
              "name": "owner",
              "type": "address"
            },
            {
              "internalType": "uint256",
              "name": "askingPrice",
              "type": "uint256"
            },
            {
              "internalType": "bool",
              "name": "mileageUpdateRequested",
              "type": "bool"
            },
            {
              "internalType": "address",
              "name": "dealer",
              "type": "address"
            },
            {
              "internalType": "bool",
              "name": "forSale",
              "type": "bool"
            },
            {
              "internalType": "bool",
              "name": "purchaseRequested",
              "type": "bool"
            }
          ],
          "internalType": "struct CarRegistry.Car[]",
          "name": "",
          "type": "tuple[]"
        }
      ],
      "stateMutability": "view",
      "type": "function",
      "constant": true
    },
    {
      "inputs": [],
      "name": "getPurchaseRequestedCars",
      "outputs": [
        {
          "components": [
            {
              "internalType": "uint256",
              "name": "carId",
              "type": "uint256"
            },
            {
              "internalType": "string",
              "name": "licensePlate",
              "type": "string"
            },
            {
              "internalType": "string",
              "name": "brand",
              "type": "string"
            },
            {
              "internalType": "string",
              "name": "imageUrl",
              "type": "string"
            },
            {
              "internalType": "string",
              "name": "color",
              "type": "string"
            },
            {
              "internalType": "uint256",
              "name": "mileage",
              "type": "uint256"
            },
            {
              "internalType": "address",
              "name": "owner",
              "type": "address"
            },
            {
              "internalType": "uint256",
              "name": "askingPrice",
              "type": "uint256"
            },
            {
              "internalType": "bool",
              "name": "mileageUpdateRequested",
              "type": "bool"
            },
            {
              "internalType": "address",
              "name": "dealer",
              "type": "address"
            },
            {
              "internalType": "bool",
              "name": "forSale",
              "type": "bool"
            },
            {
              "internalType": "bool",
              "name": "purchaseRequested",
              "type": "bool"
            }
          ],
          "internalType": "struct CarRegistry.Car[]",
          "name": "",
          "type": "tuple[]"
        }
      ],
      "stateMutability": "view",
      "type": "function",
      "constant": true
    }
  ],
  "bytecode": "0x608060405234801561001057600080fd5b50336000908152600160208190526040909120805460ff191690911790556125038061003d6000396000f3fe6080604052600436106100dd5760003560e01c8063abfe5d571161007f578063cac0b5c611610059578063cac0b5c614610228578063d67f1d7b1461023d578063f7746e361461025d578063fae69e6414610295576100dd565b8063abfe5d57146101eb578063bd3d4dae14610200578063c336488214610215576100dd565b80638549184a116100bb5780638549184a1461015c5780638c1af2e0146101895780639cb891ec146101a9578063a1956dd2146101d6576100dd565b8063022914a7146100e257806325ae1ff614610118578063297a1f561461013a575b600080fd5b3480156100ee57600080fd5b506101026100fd366004611e93565b6102b5565b60405161010f9190612185565b60405180910390f35b34801561012457600080fd5b50610138610133366004611f98565b6102ca565b005b34801561014657600080fd5b5061014f610358565b60405161010f919061238a565b34801561016857600080fd5b5061017c610177366004611f98565b61035e565b60405161010f919061202f565b34801561019557600080fd5b506101386101a4366004611fb0565b610379565b3480156101b557600080fd5b506101c96101c4366004611e93565b6105bf565b60405161010f9190612043565b3480156101e257600080fd5b506101c9610976565b3480156101f757600080fd5b506101c9610e07565b34801561020c57600080fd5b5061014f611196565b610138610223366004611f98565b61119c565b34801561023457600080fd5b506101c961123f565b34801561024957600080fd5b50610138610258366004611fb0565b6116cf565b34801561026957600080fd5b5061027d610278366004611f98565b6117cf565b60405161010f9c9b9a99989796959493929190612393565b3480156102a157600080fd5b506101386102b0366004611eb4565b611a61565b60016020526000908152604090205460ff1681565b60008181526020819052604090206006015481906001600160a01b0316331461030e5760405162461bcd60e51b815260040161030590612190565b60405180910390fd5b600082815260208190526040808220600801805460ff1916600117905551339184917fd0cfd54db7c8dc46a119a9f891a0728941b9a38585187981908e7bbff0de004c9190a35050565b60035481565b6002602052600090815260409020546001600160a01b031681565b600082815260208190526040902060080154829061010090046001600160a01b031633146103b95760405162461bcd60e51b81526004016103059061230c565b600083815260208190526040902060080154600160b01b900460ff166103f15760405162461bcd60e51b815260040161030590612285565b6000838152600260205260409020546001600160a01b03166104255760405162461bcd60e51b8152600401610305906121d6565b60008381526020819052604081206007015461044290849061244b565b6000858152600260205260409020549091506001600160a01b03163181111561047d5760405162461bcd60e51b81526004016103059061220d565b6000848152602081905260408082206006015490516001600160a01b0390911691829184156108fc0291859190818181858888f193505050501580156104c7573d6000803e3d6000fd5b50600085815260026020908152604080832080548484528285206006810180546001600160a01b0319166001600160a01b0393841617905560088101805461ffff60a81b19169055915494909352600701549051928216929184169188917f8205a71867f7292bcef9e53d4774758d6173b03f63017dec9a03a6664b429dc591610551919061238a565b60405180910390a46000858152600260205260408082205490516001600160a01b039091169187917f7eebdfffe1311ccc324b3745b6783a51aa7815a39fbe6cc3e13c3e7d891f224b9190a350505060009182525060026020526040902080546001600160a01b0319169055565b6060600060035467ffffffffffffffff8111156105ec57634e487b7160e01b600052604160045260246000fd5b60405190808252806020026020018201604052801561062557816020015b610612611d23565b81526020019060019003908161060a5790505b50905060005b60035481101561096d576000818152602081905260409020600601546001600160a01b038581169116141561095b57600081815260208181526040918290208251610180810190935280548352600181018054919284019161068c9061246b565b80601f01602080910402602001604051908101604052809291908181526020018280546106b89061246b565b80156107055780601f106106da57610100808354040283529160200191610705565b820191906000526020600020905b8154815290600101906020018083116106e857829003601f168201915b5050505050815260200160028201805461071e9061246b565b80601f016020809104026020016040519081016040528092919081815260200182805461074a9061246b565b80156107975780601f1061076c57610100808354040283529160200191610797565b820191906000526020600020905b81548152906001019060200180831161077a57829003601f168201915b505050505081526020016003820180546107b09061246b565b80601f01602080910402602001604051908101604052809291908181526020018280546107dc9061246b565b80156108295780601f106107fe57610100808354040283529160200191610829565b820191906000526020600020905b81548152906001019060200180831161080c57829003601f168201915b505050505081526020016004820180546108429061246b565b80601f016020809104026020016040519081016040528092919081815260200182805461086e9061246b565b80156108bb5780601f10610890576101008083540402835291602001916108bb565b820191906000526020600020905b81548152906001019060200180831161089e57829003601f168201915b50505091835250506005820154602082015260068201546001600160a01b0390811660408301526007830154606083015260089092015460ff80821615156080840152610100820490931660a0830152600160a81b81048316151560c0830152600160b01b9004909116151560e090910152825183908390811061094f57634e487b7160e01b600052603260045260246000fd5b60200260200101819052505b80610965816124a6565b91505061062b565b5090505b919050565b6060600060035467ffffffffffffffff8111156109a357634e487b7160e01b600052604160045260246000fd5b6040519080825280602002602001820160405280156109dc57816020015b6109c9611d23565b8152602001906001900390816109c15790505b5090506000805b600354811015610d285760008181526020819052604090206008015460ff1615610d16576000818152602081815260409182902082516101808101909352805483526001810180549192840191610a399061246b565b80601f0160208091040260200160405190810160405280929190818152602001828054610a659061246b565b8015610ab25780601f10610a8757610100808354040283529160200191610ab2565b820191906000526020600020905b815481529060010190602001808311610a9557829003601f168201915b50505050508152602001600282018054610acb9061246b565b80601f0160208091040260200160405190810160405280929190818152602001828054610af79061246b565b8015610b445780601f10610b1957610100808354040283529160200191610b44565b820191906000526020600020905b815481529060010190602001808311610b2757829003601f168201915b50505050508152602001600382018054610b5d9061246b565b80601f0160208091040260200160405190810160405280929190818152602001828054610b899061246b565b8015610bd65780601f10610bab57610100808354040283529160200191610bd6565b820191906000526020600020905b815481529060010190602001808311610bb957829003601f168201915b50505050508152602001600482018054610bef9061246b565b80601f0160208091040260200160405190810160405280929190818152602001828054610c1b9061246b565b8015610c685780601f10610c3d57610100808354040283529160200191610c68565b820191906000526020600020905b815481529060010190602001808311610c4b57829003601f168201915b50505091835250506005820154602082015260068201546001600160a01b0390811660408301526007830154606083015260089092015460ff80821615156080840152610100820490931660a0830152600160a81b81048316151560c0830152600160b01b9004909116151560e0909101528351849084908110610cfc57634e487b7160e01b600052603260045260246000fd5b60200260200101819052508180610d12906124a6565b9250505b80610d20816124a6565b9150506109e3565b5060008167ffffffffffffffff811115610d5257634e487b7160e01b600052604160045260246000fd5b604051908082528060200260200182016040528015610d8b57816020015b610d78611d23565b815260200190600190039081610d705790505b50905060005b82811015610dff57838181518110610db957634e487b7160e01b600052603260045260246000fd5b6020026020010151828281518110610de157634e487b7160e01b600052603260045260246000fd5b60200260200101819052508080610df7906124a6565b915050610d91565b509250505090565b6060600060035467ffffffffffffffff811115610e3457634e487b7160e01b600052604160045260246000fd5b604051908082528060200260200182016040528015610e6d57816020015b610e5a611d23565b815260200190600190039081610e525790505b50905060005b600354811015611190576000818152602081815260409182902082516101808101909352805483526001810180549192840191610eaf9061246b565b80601f0160208091040260200160405190810160405280929190818152602001828054610edb9061246b565b8015610f285780601f10610efd57610100808354040283529160200191610f28565b820191906000526020600020905b815481529060010190602001808311610f0b57829003601f168201915b50505050508152602001600282018054610f419061246b565b80601f0160208091040260200160405190810160405280929190818152602001828054610f6d9061246b565b8015610fba5780601f10610f8f57610100808354040283529160200191610fba565b820191906000526020600020905b815481529060010190602001808311610f9d57829003601f168201915b50505050508152602001600382018054610fd39061246b565b80601f0160208091040260200160405190810160405280929190818152602001828054610fff9061246b565b801561104c5780601f106110215761010080835404028352916020019161104c565b820191906000526020600020905b81548152906001019060200180831161102f57829003601f168201915b505050505081526020016004820180546110659061246b565b80601f01602080910402602001604051908101604052809291908181526020018280546110919061246b565b80156110de5780601f106110b3576101008083540402835291602001916110de565b820191906000526020600020905b8154815290600101906020018083116110c157829003601f168201915b50505091835250506005820154602082015260068201546001600160a01b0390811660408301526007830154606083015260089092015460ff80821615156080840152610100820490931660a0830152600160a81b81048316151560c0830152600160b01b9004909116151560e090910152825183908390811061117257634e487b7160e01b600052603260045260246000fd5b60200260200101819052508080611188906124a6565b915050610e73565b50905090565b60035490565b600081815260208190526040902060080154600160a81b900460ff166111d45760405162461bcd60e51b815260040161030590612353565b600081815260208181526040808320600801805460ff60b01b1916600160b01b179055600290915280822080546001600160a01b031916339081179091559051909183917fc09888d0d13bc8be6e776deb914e6e8696b8167f87668e53dc967dd7ebb8a5009190a350565b6060600060035467ffffffffffffffff81111561126c57634e487b7160e01b600052604160045260246000fd5b6040519080825280602002602001820160405280156112a557816020015b611292611d23565b81526020019060019003908161128a5790505b5090506000805b6003548110156115f857600081815260208190526040902060080154600160b01b900460ff16156115e65760008181526020818152604091829020825161018081019093528054835260018101805491928401916113099061246b565b80601f01602080910402602001604051908101604052809291908181526020018280546113359061246b565b80156113825780601f1061135757610100808354040283529160200191611382565b820191906000526020600020905b81548152906001019060200180831161136557829003601f168201915b5050505050815260200160028201805461139b9061246b565b80601f01602080910402602001604051908101604052809291908181526020018280546113c79061246b565b80156114145780601f106113e957610100808354040283529160200191611414565b820191906000526020600020905b8154815290600101906020018083116113f757829003601f168201915b5050505050815260200160038201805461142d9061246b565b80601f01602080910402602001604051908101604052809291908181526020018280546114599061246b565b80156114a65780601f1061147b576101008083540402835291602001916114a6565b820191906000526020600020905b81548152906001019060200180831161148957829003601f168201915b505050505081526020016004820180546114bf9061246b565b80601f01602080910402602001604051908101604052809291908181526020018280546114eb9061246b565b80156115385780601f1061150d57610100808354040283529160200191611538565b820191906000526020600020905b81548152906001019060200180831161151b57829003601f168201915b50505091835250506005820154602082015260068201546001600160a01b0390811660408301526007830154606083015260089092015460ff80821615156080840152610100820490931660a0830152600160a81b81048316151560c0830152600160b01b9004909116151560e09091015283518490849081106115cc57634e487b7160e01b600052603260045260246000fd5b602002602001018190525081806115e2906124a6565b9250505b806115f0816124a6565b9150506112ac565b5060008167ffffffffffffffff81111561162257634e487b7160e01b600052604160045260246000fd5b60405190808252806020026020018201604052801561165b57816020015b611648611d23565b8152602001906001900390816116405790505b50905060005b82811015610dff5783818151811061168957634e487b7160e01b600052603260045260246000fd5b60200260200101518282815181106116b157634e487b7160e01b600052603260045260246000fd5b602002602001018190525080806116c7906124a6565b915050611661565b600082815260208190526040902060080154829061010090046001600160a01b0316331461170f5760405162461bcd60e51b81526004016103059061230c565b60008381526020819052604090206008015460ff166117405760405162461bcd60e51b81526004016103059061224e565b60008381526020819052604090206005015482116117705760405162461bcd60e51b8152600401610305906122bc565b6000838152602081905260409081902060058101849055600801805460ff191690555183907f8efc49dd7338aab32e9fff6b2a18b774819b865271595aafc571d0137bedbb3f906117c290859061238a565b60405180910390a2505050565b600060208190529081526040902080546001820180549192916117f19061246b565b80601f016020809104026020016040519081016040528092919081815260200182805461181d9061246b565b801561186a5780601f1061183f5761010080835404028352916020019161186a565b820191906000526020600020905b81548152906001019060200180831161184d57829003601f168201915b50505050509080600201805461187f9061246b565b80601f01602080910402602001604051908101604052809291908181526020018280546118ab9061246b565b80156118f85780601f106118cd576101008083540402835291602001916118f8565b820191906000526020600020905b8154815290600101906020018083116118db57829003601f168201915b50505050509080600301805461190d9061246b565b80601f01602080910402602001604051908101604052809291908181526020018280546119399061246b565b80156119865780601f1061195b57610100808354040283529160200191611986565b820191906000526020600020905b81548152906001019060200180831161196957829003601f168201915b50505050509080600401805461199b9061246b565b80601f01602080910402602001604051908101604052809291908181526020018280546119c79061246b565b8015611a145780601f106119e957610100808354040283529160200191611a14565b820191906000526020600020905b8154815290600101906020018083116119f757829003601f168201915b50505050600583015460068401546007850154600890950154939491936001600160a01b03918216935060ff8082169261010083041691600160a81b8104821691600160b01b909104168c565b60405180610180016040528060035481526020018c8c8080601f016020809104026020016040519081016040528093929190818152602001838380828437600092019190915250505090825250604080516020601f8d018190048102820181019092528b815291810191908c908c9081908401838280828437600092019190915250505090825250604080516020601f8b0181900481028201810190925289815291810191908a908a9081908401838280828437600092019190915250505090825250604080516020601f890181900481028201810190925287815291810191908890889081908401838280828437600092018290525093855250505060208083018790523360408085019190915260608401879052608084018390526001600160a01b03861660a0850152600160c0850181905260e09094018390526003548352828252909120835181558382015180519193611bc59390850192910190611d9c565b5060408201518051611be1916002840191602090910190611d9c565b5060608201518051611bfd916003840191602090910190611d9c565b5060808201518051611c19916004840191602090910190611d9c565b5060a0820151600582015560c08201516006820180546001600160a01b0319166001600160a01b0392831617905560e0830151600783015561010080840151600890930180546101208601516101408701516101609097015160ff199092169515159590951774ffffffffffffffffffffffffffffffffffffffff001916949093169091029290921760ff60a81b1916600160a81b931515939093029290921760ff60b01b1916600160b01b921515929092029190911790556003546040513391907f459e1abea8d58f1f390ad63904970bc184e7e026ff12f2f7f3c3aed6677ad18790600090a360038054906000611d11836124a6565b91905055505050505050505050505050565b60405180610180016040528060008152602001606081526020016060815260200160608152602001606081526020016000815260200160006001600160a01b031681526020016000815260200160001515815260200160006001600160a01b031681526020016000151581526020016000151581525090565b828054611da89061246b565b90600052602060002090601f016020900481019282611dca5760008555611e10565b82601f10611de357805160ff1916838001178555611e10565b82800160010185558215611e10579182015b82811115611e10578251825591602001919060010190611df5565b50611e1c929150611e20565b5090565b5b80821115611e1c5760008155600101611e21565b80356001600160a01b038116811461097157600080fd5b60008083601f840112611e5d578182fd5b50813567ffffffffffffffff811115611e74578182fd5b602083019150836020828501011115611e8c57600080fd5b9250929050565b600060208284031215611ea4578081fd5b611ead82611e35565b9392505050565b600080600080600080600080600080600060e08c8e031215611ed4578687fd5b67ffffffffffffffff808d351115611eea578788fd5b611ef78e8e358f01611e4c565b909c509a5060208d0135811015611f0c578788fd5b611f1c8e60208f01358f01611e4c565b909a50985060408d0135811015611f31578788fd5b611f418e60408f01358f01611e4c565b909850965060608d0135811015611f56578586fd5b50611f678d60608e01358e01611e4c565b909550935060808c0135925060a08c01359150611f8660c08d01611e35565b90509295989b509295989b9093969950565b600060208284031215611fa9578081fd5b5035919050565b60008060408385031215611fc2578182fd5b50508035926020909101359150565b6001600160a01b03169052565b15159052565b60008151808452815b8181101561200957602081850181015186830182015201611fed565b8181111561201a5782602083870101525b50601f01601f19169290920160200192915050565b6001600160a01b0391909116815260200190565b60208082528251828201819052600091906040908185019080840286018301878501865b8381101561217757603f1989840301855281516101808151855288820151818a87015261209682870182611fe4565b91505087820151858203898701526120ae8282611fe4565b915050606080830151868303828801526120c88382611fe4565b92505050608080830151868303828801526120e38382611fe4565b9250505060a080830151818701525060c08083015161210482880182611fd1565b505060e082810151908601526101008083015161212382880182611fde565b50506101208083015161213882880182611fd1565b50506101408083015161214d82880182611fde565b5050610160918201519161216386820184611fde565b509588019593505090860190600101612067565b509098975050505050505050565b901515815260200190565b60208082526026908201527f4f6e6c7920746865206f776e65722063616e20706572666f726d20746869732060408201526530b1ba34b7b760d11b606082015260800190565b60208082526015908201527f4e6f20627579657220666f722074686973206361720000000000000000000000604082015260600190565b60208082526021908201527f496e73756666696369656e742062616c616e636520666f72207472616e7366656040820152603960f91b606082015260800190565b6020808252601c908201527f4d696c6561676520757064617465206e6f742072657175657374656400000000604082015260600190565b6020808252601b908201527f4e6f20707572636861736520726571756573742070656e64696e670000000000604082015260600190565b60208082526030908201527f4e6577206d696c65616765206d7573742062652067726561746572207468616e60408201526f2063757272656e74206d696c6561676560801b606082015260800190565b60208082526027908201527f4f6e6c7920746865206465616c65722063616e20706572666f726d20746869736040820152661030b1ba34b7b760c91b606082015260800190565b6020808252601a908201527f436172206973206e6f74206c697374656420666f722073616c65000000000000604082015260600190565b90815260200190565b60006101808e83528060208401526123ad8184018f611fe4565b905082810360408401526123c1818e611fe4565b905082810360608401526123d5818d611fe4565b905082810360808401526123e9818c611fe4565b9150508860a08301526001600160a01b03881660c08301528660e083015285151561010083015261241e610120830186611fd1565b61242c610140830185611fde565b61243a610160830184611fde565b9d9c50505050505050505050505050565b60008261246657634e487b7160e01b81526012600452602481fd5b500490565b60028104600182168061247f57607f821691505b602082108114156124a057634e487b7160e01b600052602260045260246000fd5b50919050565b60006000198214156124c657634e487b7160e01b81526011600452602481fd5b506001019056fea264697066735822122097dd4000aa53f23276b5a1b7c384d468dab7c5b7cf047a38b5d54535c14f724964736f6c63430008000033",
  "immutableReferences": {},
  "source": "// SPDX-License-Identifier: MIT\npragma solidity >=0.5.1 <0.9.0;\npragma experimental ABIEncoderV2;\n\ncontract CarRegistry {\n    struct Car {\n        uint256 carId;\n        string licensePlate;\n        string brand;\n        string imageUrl;\n        string color;\n        uint256 mileage;\n        address owner;\n        uint256 askingPrice;\n        bool mileageUpdateRequested;\n        address dealer;\n        bool forSale;\n        bool purchaseRequested;\n    }\n\n    mapping(uint256 => Car) public cars;\n    mapping(address => bool) public owners;\n    mapping(uint256 => address) public carBuyers;\n    uint256 public carCount;\n\n    event CarRegistered(uint256 indexed carId, address indexed owner);\n    event MileageUpdated(uint256 indexed carId, uint256 mileage);\n    event CarListedForSale(uint256 indexed carId, uint256 askingPrice);\n    event CarSold(uint256 indexed carId, address indexed oldOwner, address indexed newOwner, uint256 sellingPrice);\n    event MileageUpdateRequested(uint256 indexed carId, address indexed requester);\n    event PurchaseRequested(uint256 indexed carId, address indexed requester);\n    event PurchaseConfirmed(uint256 indexed carId, address indexed buyer);\n\n    modifier onlyOwner() {\n        require(owners[msg.sender], \"Only the contract owner can perform this action\");\n        _;\n    }\n\n    modifier onlyCarOwner(uint256 _carId) {\n        require(cars[_carId].owner == msg.sender, \"Only the owner can perform this action\");\n        _;\n    }\n\n    modifier onlyDealer(uint256 _carId) {\n        require(cars[_carId].dealer == msg.sender, \"Only the dealer can perform this action\");\n        _;\n    }\n\n    constructor() public {\n        owners[msg.sender] = true;\n    }\n\n    function registerCar(\n        string calldata _licensePlate,\n        string calldata _brand,\n        string calldata _imageUrl,\n        string calldata _color,\n        uint256 _mileage,\n        uint256 _askingPrice,\n        address _dealer\n    ) external {\n        cars[carCount] = Car({\n            carId: carCount,\n            licensePlate: _licensePlate,\n            brand: _brand,\n            imageUrl: _imageUrl,\n            color: _color,\n            mileage: _mileage,\n            owner: msg.sender,\n            askingPrice: _askingPrice,\n            mileageUpdateRequested: false,\n            dealer: _dealer,\n            forSale: true,\n            purchaseRequested: false\n        });\n\n        emit CarRegistered(carCount, msg.sender);\n        carCount++;\n    }\n\n    function requestMileageUpdate(uint256 _carId) external onlyCarOwner(_carId) {\n        cars[_carId].mileageUpdateRequested = true;\n        emit MileageUpdateRequested(_carId, msg.sender);\n    }\n\n    function confirmMileageUpdate(uint256 _carId, uint256 _newMileage) external onlyDealer(_carId) {\n        require(cars[_carId].mileageUpdateRequested, \"Mileage update not requested\");\n        require(_newMileage > cars[_carId].mileage, \"New mileage must be greater than current mileage\");\n\n        cars[_carId].mileage = _newMileage;\n        cars[_carId].mileageUpdateRequested = false;\n        emit MileageUpdated(_carId, _newMileage);\n    }\n\n    function requestPurchase(uint256 _carId) external payable {\n        require(cars[_carId].forSale, \"Car is not listed for sale\");\n\n        cars[_carId].purchaseRequested = true;\n        carBuyers[_carId] = msg.sender;\n\n        emit PurchaseRequested(_carId, msg.sender);\n    }\n\nfunction confirmPurchase(uint256 _carId, uint256 _currentEtherPrice) external onlyDealer(_carId) {\n    require(cars[_carId].purchaseRequested, \"No purchase request pending\");\n    require(carBuyers[_carId] != address(0), \"No buyer for this car\");\n\n    uint256 transferAmountInEther = cars[_carId].askingPrice / _currentEtherPrice;\n\n    require(address(carBuyers[_carId]).balance >= transferAmountInEther, \"Insufficient balance for transfer\");\n\n    address payable oldOwner = payable(cars[_carId].owner);\n    oldOwner.transfer(transferAmountInEther);\n\n    cars[_carId].owner = carBuyers[_carId];\n    cars[_carId].forSale = false;\n    cars[_carId].purchaseRequested = false;\n\n    emit CarSold(_carId, oldOwner, carBuyers[_carId], cars[_carId].askingPrice);\n    emit PurchaseConfirmed(_carId, carBuyers[_carId]);\n\n    delete carBuyers[_carId];\n}\n\n\n    function getCarsCount() external view returns (uint256) {\n        return carCount;\n    }\n\n    function getAllCars() external view returns (Car[] memory) {\n        Car[] memory carArray = new Car[](carCount);\n        for (uint256 i = 0; i < carCount; i++) {\n            carArray[i] = cars[i];\n        }\n        return carArray;\n    }\n\n    function getCarsOwnedByAddress(address _owner) external view returns (Car[] memory) {\n        Car[] memory ownedCars = new Car[](carCount);\n\n        for (uint i = 0; i < carCount; i++) {\n            if (cars[i].owner == _owner) {\n                ownedCars[i] = cars[i];\n            }\n        }\n\n        return ownedCars;\n    }\n\n    function getRequestedMileageUpdateCars() external view returns (Car[] memory) {\n        Car[] memory requestedCars = new Car[](carCount);\n        uint256 count = 0;\n\n        for (uint256 i = 0; i < carCount; i++) {\n            if (cars[i].mileageUpdateRequested) {\n                requestedCars[count] = cars[i];\n                count++;\n            }\n        }\n\n        Car[] memory result = new Car[](count);\n        for (uint256 j = 0; j < count; j++) {\n            result[j] = requestedCars[j];\n        }\n\n        return result;\n    }\n\n    function getPurchaseRequestedCars() external view returns (Car[] memory) {\n        Car[] memory requestedCars = new Car[](carCount);\n        uint256 count = 0;\n\n        for (uint256 i = 0; i < carCount; i++) {\n            if (cars[i].purchaseRequested) {\n                requestedCars[count] = cars[i];\n                count++;\n            }\n        }\n\n        Car[] memory result = new Car[](count);\n        for (uint256 j = 0; j < count; j++) {\n            result[j] = requestedCars[j];\n        }\n\n        return result;\n    }\n}\n",
  "sourcePath": "/Users/harungokcegoz/Documents/blockchain-for-car-market/contracts/contracts/CarRegistry.sol",
  "compiler": {
    "name": "solc",
    "version": "0.8.0+commit.c7dfd78e.Emscripten.clang"
  },
  "schemaVersion": "3.4.16",
  "updatedAt": "2024-03-25T01:30:51.461Z",
  "networkType": "ethereum",
  "devdoc": {
    "kind": "dev",
    "methods": {},
    "version": 1
  },
  "userdoc": {
    "kind": "user",
    "methods": {},
    "version": 1
  }
}