{
  "contractName": "CarRegistry",
  "abi": [
    {
      "inputs": [],
      "stateMutability": "nonpayable",
      "type": "constructor"
    },
    {
      "anonymous": false,
      "inputs": [
        {
          "indexed": true,
          "internalType": "uint256",
          "name": "carId",
          "type": "uint256"
        },
        {
          "indexed": false,
          "internalType": "uint256",
          "name": "askingPrice",
          "type": "uint256"
        }
      ],
      "name": "CarListedForSale",
      "type": "event"
    },
    {
      "anonymous": false,
      "inputs": [
        {
          "indexed": true,
          "internalType": "uint256",
          "name": "carId",
          "type": "uint256"
        },
        {
          "indexed": true,
          "internalType": "address",
          "name": "owner",
          "type": "address"
        }
      ],
      "name": "CarRegistered",
      "type": "event"
    },
    {
      "anonymous": false,
      "inputs": [
        {
          "indexed": true,
          "internalType": "uint256",
          "name": "carId",
          "type": "uint256"
        },
        {
          "indexed": true,
          "internalType": "address",
          "name": "oldOwner",
          "type": "address"
        },
        {
          "indexed": true,
          "internalType": "address",
          "name": "newOwner",
          "type": "address"
        },
        {
          "indexed": false,
          "internalType": "uint256",
          "name": "sellingPrice",
          "type": "uint256"
        }
      ],
      "name": "CarSold",
      "type": "event"
    },
    {
      "anonymous": false,
      "inputs": [
        {
          "indexed": true,
          "internalType": "uint256",
          "name": "carId",
          "type": "uint256"
        },
        {
          "indexed": false,
          "internalType": "uint256",
          "name": "mileage",
          "type": "uint256"
        }
      ],
      "name": "MileageUpdated",
      "type": "event"
    },
    {
      "inputs": [],
      "name": "carCount",
      "outputs": [
        {
          "internalType": "uint256",
          "name": "",
          "type": "uint256"
        }
      ],
      "stateMutability": "view",
      "type": "function"
    },
    {
      "inputs": [
        {
          "internalType": "uint256",
          "name": "",
          "type": "uint256"
        }
      ],
      "name": "cars",
      "outputs": [
        {
          "internalType": "string",
          "name": "licensePlate",
          "type": "string"
        },
        {
          "internalType": "string",
          "name": "chassisNumber",
          "type": "string"
        },
        {
          "internalType": "string",
          "name": "brand",
          "type": "string"
        },
        {
          "internalType": "string",
          "name": "carType",
          "type": "string"
        },
        {
          "internalType": "string",
          "name": "color",
          "type": "string"
        },
        {
          "internalType": "uint256",
          "name": "mileage",
          "type": "uint256"
        },
        {
          "internalType": "address",
          "name": "owner",
          "type": "address"
        },
        {
          "internalType": "uint256",
          "name": "askingPrice",
          "type": "uint256"
        },
        {
          "internalType": "bool",
          "name": "forSale",
          "type": "bool"
        }
      ],
      "stateMutability": "view",
      "type": "function"
    },
    {
      "inputs": [
        {
          "internalType": "address",
          "name": "",
          "type": "address"
        }
      ],
      "name": "owners",
      "outputs": [
        {
          "internalType": "bool",
          "name": "",
          "type": "bool"
        }
      ],
      "stateMutability": "view",
      "type": "function"
    },
    {
      "inputs": [
        {
          "internalType": "string",
          "name": "_licensePlate",
          "type": "string"
        },
        {
          "internalType": "string",
          "name": "_chassisNumber",
          "type": "string"
        },
        {
          "internalType": "string",
          "name": "_brand",
          "type": "string"
        },
        {
          "internalType": "string",
          "name": "_carType",
          "type": "string"
        },
        {
          "internalType": "string",
          "name": "_color",
          "type": "string"
        }
      ],
      "name": "registerCar",
      "outputs": [],
      "stateMutability": "nonpayable",
      "type": "function"
    },
    {
      "inputs": [
        {
          "internalType": "uint256",
          "name": "_carId",
          "type": "uint256"
        },
        {
          "internalType": "uint256",
          "name": "_mileage",
          "type": "uint256"
        }
      ],
      "name": "updateMileage",
      "outputs": [],
      "stateMutability": "nonpayable",
      "type": "function"
    },
    {
      "inputs": [
        {
          "internalType": "uint256",
          "name": "_carId",
          "type": "uint256"
        },
        {
          "internalType": "uint256",
          "name": "_askingPrice",
          "type": "uint256"
        }
      ],
      "name": "listCarForSale",
      "outputs": [],
      "stateMutability": "nonpayable",
      "type": "function"
    },
    {
      "inputs": [
        {
          "internalType": "uint256",
          "name": "_carId",
          "type": "uint256"
        }
      ],
      "name": "buyCar",
      "outputs": [],
      "stateMutability": "payable",
      "type": "function"
    },
    {
      "inputs": [
        {
          "internalType": "uint256",
          "name": "_carId",
          "type": "uint256"
        }
      ],
      "name": "getCar",
      "outputs": [
        {
          "internalType": "string",
          "name": "licensePlate",
          "type": "string"
        },
        {
          "internalType": "string",
          "name": "chassisNumber",
          "type": "string"
        },
        {
          "internalType": "string",
          "name": "brand",
          "type": "string"
        },
        {
          "internalType": "string",
          "name": "carType",
          "type": "string"
        },
        {
          "internalType": "string",
          "name": "color",
          "type": "string"
        },
        {
          "internalType": "uint256",
          "name": "mileage",
          "type": "uint256"
        },
        {
          "internalType": "address",
          "name": "owner",
          "type": "address"
        },
        {
          "internalType": "uint256",
          "name": "askingPrice",
          "type": "uint256"
        },
        {
          "internalType": "bool",
          "name": "forSale",
          "type": "bool"
        }
      ],
      "stateMutability": "view",
      "type": "function"
    },
    {
      "inputs": [
        {
          "internalType": "address",
          "name": "_newOwner",
          "type": "address"
        }
      ],
      "name": "addOwner",
      "outputs": [],
      "stateMutability": "nonpayable",
      "type": "function"
    },
    {
      "inputs": [
        {
          "internalType": "address",
          "name": "_owner",
          "type": "address"
        }
      ],
      "name": "removeOwner",
      "outputs": [],
      "stateMutability": "nonpayable",
      "type": "function"
    }
  ],
  "bytecode": "0x608060405234801561000f575f80fd5b50600160025f3373ffffffffffffffffffffffffffffffffffffffff1673ffffffffffffffffffffffffffffffffffffffff1681526020019081526020015f205f6101000a81548160ff021916908315150217905550611d49806100725f395ff3fe608060405260043610610090575f3560e01c80637065cb48116100585780637065cb4814610182578063c4f44ace146101aa578063c9831541146101d2578063f6888384146101fa578063f7746e361461022257610090565b8063022914a714610094578063173825d9146100d0578063297a1f56146100f85780635e8be190146101225780636c23106014610166575b5f80fd5b34801561009f575f80fd5b506100ba60048036038101906100b59190611236565b610266565b6040516100c7919061127b565b60405180910390f35b3480156100db575f80fd5b506100f660048036038101906100f19190611236565b610283565b005b348015610103575f80fd5b5061010c6103d1565b60405161011991906112ac565b60405180910390f35b34801561012d575f80fd5b50610148600480360381019061014391906112ef565b6103d7565b60405161015d999897969594939291906113b3565b60405180910390f35b610180600480360381019061017b91906112ef565b6107a1565b005b34801561018d575f80fd5b506101a860048036038101906101a39190611236565b6109b5565b005b3480156101b5575f80fd5b506101d060048036038101906101cb919061158d565b610a96565b005b3480156101dd575f80fd5b506101f860048036038101906101f39190611690565b610c4d565b005b348015610205575f80fd5b50610220600480360381019061021b9190611690565b610d98565b005b34801561022d575f80fd5b50610248600480360381019061024391906112ef565b610eb9565b60405161025d999897969594939291906113b3565b60405180910390f35b6002602052805f5260405f205f915054906101000a900460ff1681565b60025f3373ffffffffffffffffffffffffffffffffffffffff1673ffffffffffffffffffffffffffffffffffffffff1681526020019081526020015f205f9054906101000a900460ff1661030c576040517f08c379a00000000000000000000000000000000000000000000000000000000081526004016103039061173e565b60405180910390fd5b3373ffffffffffffffffffffffffffffffffffffffff168173ffffffffffffffffffffffffffffffffffffffff160361037a576040517f08c379a0000000000000000000000000000000000000000000000000000000008152600401610371906117cc565b60405180910390fd5b5f60025f8373ffffffffffffffffffffffffffffffffffffffff1673ffffffffffffffffffffffffffffffffffffffff1681526020019081526020015f205f6101000a81548160ff02191690831515021790555050565b60015481565b60608060608060605f805f805f805f8c81526020019081526020015f20604051806101200160405290815f8201805461040f90611817565b80601f016020809104026020016040519081016040528092919081815260200182805461043b90611817565b80156104865780601f1061045d57610100808354040283529160200191610486565b820191905f5260205f20905b81548152906001019060200180831161046957829003601f168201915b5050505050815260200160018201805461049f90611817565b80601f01602080910402602001604051908101604052809291908181526020018280546104cb90611817565b80156105165780601f106104ed57610100808354040283529160200191610516565b820191905f5260205f20905b8154815290600101906020018083116104f957829003601f168201915b5050505050815260200160028201805461052f90611817565b80601f016020809104026020016040519081016040528092919081815260200182805461055b90611817565b80156105a65780601f1061057d576101008083540402835291602001916105a6565b820191905f5260205f20905b81548152906001019060200180831161058957829003601f168201915b505050505081526020016003820180546105bf90611817565b80601f01602080910402602001604051908101604052809291908181526020018280546105eb90611817565b80156106365780601f1061060d57610100808354040283529160200191610636565b820191905f5260205f20905b81548152906001019060200180831161061957829003601f168201915b5050505050815260200160048201805461064f90611817565b80601f016020809104026020016040519081016040528092919081815260200182805461067b90611817565b80156106c65780601f1061069d576101008083540402835291602001916106c6565b820191905f5260205f20905b8154815290600101906020018083116106a957829003601f168201915b5050505050815260200160058201548152602001600682015f9054906101000a900473ffffffffffffffffffffffffffffffffffffffff1673ffffffffffffffffffffffffffffffffffffffff1673ffffffffffffffffffffffffffffffffffffffff16815260200160078201548152602001600882015f9054906101000a900460ff1615151515815250509050805f015181602001518260400151836060015184608001518560a001518660c001518760e00151886101000151995099509950995099509950995099509950509193959799909294969850565b5f808281526020019081526020015f206008015f9054906101000a900460ff16610800576040517f08c379a00000000000000000000000000000000000000000000000000000000081526004016107f790611891565b60405180910390fd5b5f808281526020019081526020015f2060070154341015610856576040517f08c379a000000000000000000000000000000000000000000000000000000000815260040161084d906118f9565b60405180910390fd5b5f805f8381526020019081526020015f206006015f9054906101000a900473ffffffffffffffffffffffffffffffffffffffff1690508073ffffffffffffffffffffffffffffffffffffffff166108fc3490811502906040515f60405180830381858888f193505050501580156108cf573d5f803e3d5ffd5b50335f808481526020019081526020015f206006015f6101000a81548173ffffffffffffffffffffffffffffffffffffffff021916908373ffffffffffffffffffffffffffffffffffffffff1602179055505f805f8481526020019081526020015f206008015f6101000a81548160ff0219169083151502179055503373ffffffffffffffffffffffffffffffffffffffff168173ffffffffffffffffffffffffffffffffffffffff16837f8205a71867f7292bcef9e53d4774758d6173b03f63017dec9a03a6664b429dc5346040516109a991906112ac565b60405180910390a45050565b60025f3373ffffffffffffffffffffffffffffffffffffffff1673ffffffffffffffffffffffffffffffffffffffff1681526020019081526020015f205f9054906101000a900460ff16610a3e576040517f08c379a0000000000000000000000000000000000000000000000000000000008152600401610a359061173e565b60405180910390fd5b600160025f8373ffffffffffffffffffffffffffffffffffffffff1673ffffffffffffffffffffffffffffffffffffffff1681526020019081526020015f205f6101000a81548160ff02191690831515021790555050565b6040518061012001604052808681526020018581526020018481526020018381526020018281526020015f81526020013373ffffffffffffffffffffffffffffffffffffffff1681526020015f81526020015f15158152505f8060015481526020019081526020015f205f820151815f019081610b139190611ab4565b506020820151816001019081610b299190611ab4565b506040820151816002019081610b3f9190611ab4565b506060820151816003019081610b559190611ab4565b506080820151816004019081610b6b9190611ab4565b5060a0820151816005015560c0820151816006015f6101000a81548173ffffffffffffffffffffffffffffffffffffffff021916908373ffffffffffffffffffffffffffffffffffffffff16021790555060e08201518160070155610100820151816008015f6101000a81548160ff0219169083151502179055509050503373ffffffffffffffffffffffffffffffffffffffff166001547f459e1abea8d58f1f390ad63904970bc184e7e026ff12f2f7f3c3aed6677ad18760405160405180910390a360015f815480929190610c4190611bb0565b91905055505050505050565b813373ffffffffffffffffffffffffffffffffffffffff165f808381526020019081526020015f206006015f9054906101000a900473ffffffffffffffffffffffffffffffffffffffff1673ffffffffffffffffffffffffffffffffffffffff1614610cee576040517f08c379a0000000000000000000000000000000000000000000000000000000008152600401610ce590611c67565b60405180910390fd5b5f808481526020019081526020015f20600501548211610d43576040517f08c379a0000000000000000000000000000000000000000000000000000000008152600401610d3a90611cf5565b60405180910390fd5b815f808581526020019081526020015f2060050181905550827f8efc49dd7338aab32e9fff6b2a18b774819b865271595aafc571d0137bedbb3f83604051610d8b91906112ac565b60405180910390a2505050565b813373ffffffffffffffffffffffffffffffffffffffff165f808381526020019081526020015f206006015f9054906101000a900473ffffffffffffffffffffffffffffffffffffffff1673ffffffffffffffffffffffffffffffffffffffff1614610e39576040517f08c379a0000000000000000000000000000000000000000000000000000000008152600401610e3090611c67565b60405180910390fd5b60015f808581526020019081526020015f206008015f6101000a81548160ff021916908315150217905550815f808581526020019081526020015f2060070181905550827fd7eb5635a91daa6c8336a751c696002c8243f97bad99a81269931e463952470983604051610eac91906112ac565b60405180910390a2505050565b5f602052805f5260405f205f91509050805f018054610ed790611817565b80601f0160208091040260200160405190810160405280929190818152602001828054610f0390611817565b8015610f4e5780601f10610f2557610100808354040283529160200191610f4e565b820191905f5260205f20905b815481529060010190602001808311610f3157829003601f168201915b505050505090806001018054610f6390611817565b80601f0160208091040260200160405190810160405280929190818152602001828054610f8f90611817565b8015610fda5780601f10610fb157610100808354040283529160200191610fda565b820191905f5260205f20905b815481529060010190602001808311610fbd57829003601f168201915b505050505090806002018054610fef90611817565b80601f016020809104026020016040519081016040528092919081815260200182805461101b90611817565b80156110665780601f1061103d57610100808354040283529160200191611066565b820191905f5260205f20905b81548152906001019060200180831161104957829003601f168201915b50505050509080600301805461107b90611817565b80601f01602080910402602001604051908101604052809291908181526020018280546110a790611817565b80156110f25780601f106110c9576101008083540402835291602001916110f2565b820191905f5260205f20905b8154815290600101906020018083116110d557829003601f168201915b50505050509080600401805461110790611817565b80601f016020809104026020016040519081016040528092919081815260200182805461113390611817565b801561117e5780601f106111555761010080835404028352916020019161117e565b820191905f5260205f20905b81548152906001019060200180831161116157829003601f168201915b505050505090806005015490806006015f9054906101000a900473ffffffffffffffffffffffffffffffffffffffff1690806007015490806008015f9054906101000a900460ff16905089565b5f604051905090565b5f80fd5b5f80fd5b5f73ffffffffffffffffffffffffffffffffffffffff82169050919050565b5f611205826111dc565b9050919050565b611215816111fb565b811461121f575f80fd5b50565b5f813590506112308161120c565b92915050565b5f6020828403121561124b5761124a6111d4565b5b5f61125884828501611222565b91505092915050565b5f8115159050919050565b61127581611261565b82525050565b5f60208201905061128e5f83018461126c565b92915050565b5f819050919050565b6112a681611294565b82525050565b5f6020820190506112bf5f83018461129d565b92915050565b6112ce81611294565b81146112d8575f80fd5b50565b5f813590506112e9816112c5565b92915050565b5f60208284031215611304576113036111d4565b5b5f611311848285016112db565b91505092915050565b5f81519050919050565b5f82825260208201905092915050565b5f5b83811015611351578082015181840152602081019050611336565b5f8484015250505050565b5f601f19601f8301169050919050565b5f6113768261131a565b6113808185611324565b9350611390818560208601611334565b6113998161135c565b840191505092915050565b6113ad816111fb565b82525050565b5f610120820190508181035f8301526113cc818c61136c565b905081810360208301526113e0818b61136c565b905081810360408301526113f4818a61136c565b90508181036060830152611408818961136c565b9050818103608083015261141c818861136c565b905061142b60a083018761129d565b61143860c08301866113a4565b61144560e083018561129d565b61145361010083018461126c565b9a9950505050505050505050565b5f80fd5b5f80fd5b7f4e487b71000000000000000000000000000000000000000000000000000000005f52604160045260245ffd5b61149f8261135c565b810181811067ffffffffffffffff821117156114be576114bd611469565b5b80604052505050565b5f6114d06111cb565b90506114dc8282611496565b919050565b5f67ffffffffffffffff8211156114fb576114fa611469565b5b6115048261135c565b9050602081019050919050565b828183375f83830152505050565b5f61153161152c846114e1565b6114c7565b90508281526020810184848401111561154d5761154c611465565b5b611558848285611511565b509392505050565b5f82601f83011261157457611573611461565b5b813561158484826020860161151f565b91505092915050565b5f805f805f60a086880312156115a6576115a56111d4565b5b5f86013567ffffffffffffffff8111156115c3576115c26111d8565b5b6115cf88828901611560565b955050602086013567ffffffffffffffff8111156115f0576115ef6111d8565b5b6115fc88828901611560565b945050604086013567ffffffffffffffff81111561161d5761161c6111d8565b5b61162988828901611560565b935050606086013567ffffffffffffffff81111561164a576116496111d8565b5b61165688828901611560565b925050608086013567ffffffffffffffff811115611677576116766111d8565b5b61168388828901611560565b9150509295509295909350565b5f80604083850312156116a6576116a56111d4565b5b5f6116b3858286016112db565b92505060206116c4858286016112db565b9150509250929050565b7f4f6e6c792074686520636f6e7472616374206f776e65722063616e20706572665f8201527f6f726d207468697320616374696f6e0000000000000000000000000000000000602082015250565b5f611728602f83611324565b9150611733826116ce565b604082019050919050565b5f6020820190508181035f8301526117558161171c565b9050919050565b7f43616e6e6f742072656d6f766520796f757273656c6620617320616e206f776e5f8201527f6572000000000000000000000000000000000000000000000000000000000000602082015250565b5f6117b6602283611324565b91506117c18261175c565b604082019050919050565b5f6020820190508181035f8301526117e3816117aa565b9050919050565b7f4e487b71000000000000000000000000000000000000000000000000000000005f52602260045260245ffd5b5f600282049050600182168061182e57607f821691505b602082108103611841576118406117ea565b5b50919050565b7f436172206973206e6f74206c697374656420666f722073616c650000000000005f82015250565b5f61187b601a83611324565b915061188682611847565b602082019050919050565b5f6020820190508181035f8301526118a88161186f565b9050919050565b7f496e73756666696369656e74207061796d656e740000000000000000000000005f82015250565b5f6118e3601483611324565b91506118ee826118af565b602082019050919050565b5f6020820190508181035f830152611910816118d7565b9050919050565b5f819050815f5260205f209050919050565b5f6020601f8301049050919050565b5f82821b905092915050565b5f600883026119737fffffffffffffffffffffffffffffffffffffffffffffffffffffffffffffffff82611938565b61197d8683611938565b95508019841693508086168417925050509392505050565b5f819050919050565b5f6119b86119b36119ae84611294565b611995565b611294565b9050919050565b5f819050919050565b6119d18361199e565b6119e56119dd826119bf565b848454611944565b825550505050565b5f90565b6119f96119ed565b611a048184846119c8565b505050565b5b81811015611a2757611a1c5f826119f1565b600181019050611a0a565b5050565b601f821115611a6c57611a3d81611917565b611a4684611929565b81016020851015611a55578190505b611a69611a6185611929565b830182611a09565b50505b505050565b5f82821c905092915050565b5f611a8c5f1984600802611a71565b1980831691505092915050565b5f611aa48383611a7d565b9150826002028217905092915050565b611abd8261131a565b67ffffffffffffffff811115611ad657611ad5611469565b5b611ae08254611817565b611aeb828285611a2b565b5f60209050601f831160018114611b1c575f8415611b0a578287015190505b611b148582611a99565b865550611b7b565b601f198416611b2a86611917565b5f5b82811015611b5157848901518255600182019150602085019450602081019050611b2c565b86831015611b6e5784890151611b6a601f891682611a7d565b8355505b6001600288020188555050505b505050505050565b7f4e487b71000000000000000000000000000000000000000000000000000000005f52601160045260245ffd5b5f611bba82611294565b91507fffffffffffffffffffffffffffffffffffffffffffffffffffffffffffffffff8203611bec57611beb611b83565b5b600182019050919050565b7f4f6e6c7920746865206f776e65722063616e20706572666f726d2074686973205f8201527f616374696f6e0000000000000000000000000000000000000000000000000000602082015250565b5f611c51602683611324565b9150611c5c82611bf7565b604082019050919050565b5f6020820190508181035f830152611c7e81611c45565b9050919050565b7f4e6577206d696c65616765206d7573742062652067726561746572207468616e5f8201527f2063757272656e74206d696c6561676500000000000000000000000000000000602082015250565b5f611cdf603083611324565b9150611cea82611c85565b604082019050919050565b5f6020820190508181035f830152611d0c81611cd3565b905091905056fea2646970667358221220c037c65a79f1ec3ba468584fd59508696666c0a998b968be9519105cfd7652a064736f6c63430008150033",
  "immutableReferences": {},
  "source": "// SPDX-License-Identifier: MIT\npragma solidity ^0.8.19;\n\ncontract CarRegistry {\n    struct Car {\n        string licensePlate;\n        string chassisNumber;\n        string brand;\n        string carType;\n        string color;\n        uint256 mileage;\n        address owner;\n        uint256 askingPrice;\n        bool forSale;\n    }\n\n    mapping(uint256 => Car) public cars;\n    uint256 public carCount;\n    mapping(address => bool) public owners;\n\n    event CarRegistered(uint256 indexed carId, address indexed owner);\n    event MileageUpdated(uint256 indexed carId, uint256 mileage);\n    event CarListedForSale(uint256 indexed carId, uint256 askingPrice);\n    event CarSold(uint256 indexed carId, address indexed oldOwner, address indexed newOwner, uint256 sellingPrice);\n\n    modifier onlyOwner() {\n        require(owners[msg.sender], \"Only the contract owner can perform this action\");\n        _;\n    }\n\n    modifier onlyCarOwner(uint256 _carId) {\n        require(cars[_carId].owner == msg.sender, \"Only the owner can perform this action\");\n        _;\n    }\n\n    constructor() {\n        owners[msg.sender] = true;\n    }\n\n    function registerCar(\n        string memory _licensePlate,\n        string memory _chassisNumber,\n        string memory _brand,\n        string memory _carType,\n        string memory _color\n        ) external {\n        cars[carCount] = Car({\n            licensePlate: _licensePlate,\n            chassisNumber: _chassisNumber,\n            brand: _brand,\n            carType: _carType,\n            color: _color,\n            mileage: 0,\n            owner: msg.sender,\n            askingPrice: 0,\n            forSale: false\n        });\n\n        emit CarRegistered(carCount, msg.sender);\n        carCount++;\n    }\n\n    function updateMileage(uint256 _carId, uint256 _mileage) external onlyCarOwner(_carId) {\n        require(_mileage > cars[_carId].mileage, \"New mileage must be greater than current mileage\");\n\n        cars[_carId].mileage = _mileage;\n        emit MileageUpdated(_carId, _mileage);\n    }\n\n    function listCarForSale(uint256 _carId, uint256 _askingPrice) external onlyCarOwner(_carId) {\n        cars[_carId].forSale = true;\n        cars[_carId].askingPrice = _askingPrice;\n\n        emit CarListedForSale(_carId, _askingPrice);\n    }\n\n    function buyCar(uint256 _carId) external payable {\n        require(cars[_carId].forSale, \"Car is not listed for sale\");\n        require(msg.value >= cars[_carId].askingPrice, \"Insufficient payment\");\n\n        address payable oldOwner = payable(cars[_carId].owner);\n        oldOwner.transfer(msg.value);\n        cars[_carId].owner = msg.sender;\n        cars[_carId].forSale = false;\n\n        emit CarSold(_carId, oldOwner, msg.sender, msg.value);\n    }\n\n    function getCar(uint256 _carId) external view returns (\n        string memory licensePlate,\n        string memory chassisNumber,\n        string memory brand,\n        string memory carType,\n        string memory color,\n        uint256 mileage,\n        address owner,\n        uint256 askingPrice,\n        bool forSale\n    ) {\n        Car memory car = cars[_carId];\n        return (\n            car.licensePlate,\n            car.chassisNumber,\n            car.brand,\n            car.carType,\n            car.color,\n            car.mileage,\n            car.owner,\n            car.askingPrice,\n            car.forSale\n        );\n    }\n\n    function addOwner(address _newOwner) external onlyOwner {\n        owners[_newOwner] = true;\n    }\n\n    function removeOwner(address _owner) external onlyOwner {\n        require(_owner != msg.sender, \"Cannot remove yourself as an owner\");\n        owners[_owner] = false;\n    }\n}\n",
  "sourcePath": "/Users/harungokcegoz/Documents/blockchain-for-car-market/contracts/contracts/ContractForTrading.sol",
  "compiler": {
    "name": "solc",
    "version": "0.8.21+commit.d9974bed.Emscripten.clang"
  },
  "schemaVersion": "3.4.16",
  "updatedAt": "2024-03-12T12:32:15.144Z",
  "devdoc": {
    "kind": "dev",
    "methods": {},
    "version": 1
  },
  "userdoc": {
    "kind": "user",
    "methods": {},
    "version": 1
  }
}