{
  "contractName": "CarRegistry",
  "abi": [
    {
      "inputs": [],
      "stateMutability": "nonpayable",
      "type": "constructor"
    },
    {
      "anonymous": false,
      "inputs": [
        {
          "indexed": true,
          "internalType": "uint256",
          "name": "carId",
          "type": "uint256"
        },
        {
          "indexed": false,
          "internalType": "uint256",
          "name": "askingPrice",
          "type": "uint256"
        }
      ],
      "name": "CarListedForSale",
      "type": "event"
    },
    {
      "anonymous": false,
      "inputs": [
        {
          "indexed": true,
          "internalType": "uint256",
          "name": "carId",
          "type": "uint256"
        },
        {
          "indexed": true,
          "internalType": "address",
          "name": "owner",
          "type": "address"
        }
      ],
      "name": "CarRegistered",
      "type": "event"
    },
    {
      "anonymous": false,
      "inputs": [
        {
          "indexed": true,
          "internalType": "uint256",
          "name": "carId",
          "type": "uint256"
        },
        {
          "indexed": true,
          "internalType": "address",
          "name": "oldOwner",
          "type": "address"
        },
        {
          "indexed": true,
          "internalType": "address",
          "name": "newOwner",
          "type": "address"
        },
        {
          "indexed": false,
          "internalType": "uint256",
          "name": "sellingPrice",
          "type": "uint256"
        }
      ],
      "name": "CarSold",
      "type": "event"
    },
    {
      "anonymous": false,
      "inputs": [
        {
          "indexed": true,
          "internalType": "uint256",
          "name": "carId",
          "type": "uint256"
        },
        {
          "indexed": true,
          "internalType": "address",
          "name": "requester",
          "type": "address"
        }
      ],
      "name": "MileageUpdateRequested",
      "type": "event"
    },
    {
      "anonymous": false,
      "inputs": [
        {
          "indexed": true,
          "internalType": "uint256",
          "name": "carId",
          "type": "uint256"
        },
        {
          "indexed": false,
          "internalType": "uint256",
          "name": "mileage",
          "type": "uint256"
        }
      ],
      "name": "MileageUpdated",
      "type": "event"
    },
    {
      "inputs": [],
      "name": "carCount",
      "outputs": [
        {
          "internalType": "uint256",
          "name": "",
          "type": "uint256"
        }
      ],
      "stateMutability": "view",
      "type": "function",
      "constant": true
    },
    {
      "inputs": [
        {
          "internalType": "uint256",
          "name": "",
          "type": "uint256"
        }
      ],
      "name": "cars",
      "outputs": [
        {
          "internalType": "uint256",
          "name": "carId",
          "type": "uint256"
        },
        {
          "internalType": "string",
          "name": "licensePlate",
          "type": "string"
        },
        {
          "internalType": "string",
          "name": "brand",
          "type": "string"
        },
        {
          "internalType": "string",
          "name": "imageUrl",
          "type": "string"
        },
        {
          "internalType": "string",
          "name": "color",
          "type": "string"
        },
        {
          "internalType": "uint256",
          "name": "mileage",
          "type": "uint256"
        },
        {
          "internalType": "address",
          "name": "owner",
          "type": "address"
        },
        {
          "internalType": "uint256",
          "name": "askingPrice",
          "type": "uint256"
        },
        {
          "internalType": "bool",
          "name": "mileageUpdateRequested",
          "type": "bool"
        },
        {
          "internalType": "address",
          "name": "dealer",
          "type": "address"
        },
        {
          "internalType": "bool",
          "name": "forSale",
          "type": "bool"
        }
      ],
      "stateMutability": "view",
      "type": "function",
      "constant": true
    },
    {
      "inputs": [
        {
          "internalType": "address",
          "name": "",
          "type": "address"
        }
      ],
      "name": "owners",
      "outputs": [
        {
          "internalType": "bool",
          "name": "",
          "type": "bool"
        }
      ],
      "stateMutability": "view",
      "type": "function",
      "constant": true
    },
    {
      "inputs": [
        {
          "internalType": "string",
          "name": "_licensePlate",
          "type": "string"
        },
        {
          "internalType": "string",
          "name": "_brand",
          "type": "string"
        },
        {
          "internalType": "string",
          "name": "_imageUrl",
          "type": "string"
        },
        {
          "internalType": "string",
          "name": "_color",
          "type": "string"
        },
        {
          "internalType": "uint256",
          "name": "_mileage",
          "type": "uint256"
        },
        {
          "internalType": "uint256",
          "name": "_askingPrice",
          "type": "uint256"
        },
        {
          "internalType": "address",
          "name": "_dealer",
          "type": "address"
        }
      ],
      "name": "registerCar",
      "outputs": [],
      "stateMutability": "nonpayable",
      "type": "function"
    },
    {
      "inputs": [
        {
          "internalType": "uint256",
          "name": "_carId",
          "type": "uint256"
        }
      ],
      "name": "requestMileageUpdate",
      "outputs": [],
      "stateMutability": "nonpayable",
      "type": "function"
    },
    {
      "inputs": [
        {
          "internalType": "uint256",
          "name": "_carId",
          "type": "uint256"
        },
        {
          "internalType": "uint256",
          "name": "_newMileage",
          "type": "uint256"
        }
      ],
      "name": "confirmMileageUpdate",
      "outputs": [],
      "stateMutability": "nonpayable",
      "type": "function"
    },
    {
      "inputs": [],
      "name": "getCarsCount",
      "outputs": [
        {
          "internalType": "uint256",
          "name": "",
          "type": "uint256"
        }
      ],
      "stateMutability": "view",
      "type": "function",
      "constant": true
    },
    {
      "inputs": [],
      "name": "getAllCars",
      "outputs": [
        {
          "components": [
            {
              "internalType": "uint256",
              "name": "carId",
              "type": "uint256"
            },
            {
              "internalType": "string",
              "name": "licensePlate",
              "type": "string"
            },
            {
              "internalType": "string",
              "name": "brand",
              "type": "string"
            },
            {
              "internalType": "string",
              "name": "imageUrl",
              "type": "string"
            },
            {
              "internalType": "string",
              "name": "color",
              "type": "string"
            },
            {
              "internalType": "uint256",
              "name": "mileage",
              "type": "uint256"
            },
            {
              "internalType": "address",
              "name": "owner",
              "type": "address"
            },
            {
              "internalType": "uint256",
              "name": "askingPrice",
              "type": "uint256"
            },
            {
              "internalType": "bool",
              "name": "mileageUpdateRequested",
              "type": "bool"
            },
            {
              "internalType": "address",
              "name": "dealer",
              "type": "address"
            },
            {
              "internalType": "bool",
              "name": "forSale",
              "type": "bool"
            }
          ],
          "internalType": "struct CarRegistry.Car[]",
          "name": "",
          "type": "tuple[]"
        }
      ],
      "stateMutability": "view",
      "type": "function",
      "constant": true
    },
    {
      "inputs": [
        {
          "internalType": "address",
          "name": "_owner",
          "type": "address"
        }
      ],
      "name": "getCarsOwnedByAddress",
      "outputs": [
        {
          "components": [
            {
              "internalType": "uint256",
              "name": "carId",
              "type": "uint256"
            },
            {
              "internalType": "string",
              "name": "licensePlate",
              "type": "string"
            },
            {
              "internalType": "string",
              "name": "brand",
              "type": "string"
            },
            {
              "internalType": "string",
              "name": "imageUrl",
              "type": "string"
            },
            {
              "internalType": "string",
              "name": "color",
              "type": "string"
            },
            {
              "internalType": "uint256",
              "name": "mileage",
              "type": "uint256"
            },
            {
              "internalType": "address",
              "name": "owner",
              "type": "address"
            },
            {
              "internalType": "uint256",
              "name": "askingPrice",
              "type": "uint256"
            },
            {
              "internalType": "bool",
              "name": "mileageUpdateRequested",
              "type": "bool"
            },
            {
              "internalType": "address",
              "name": "dealer",
              "type": "address"
            },
            {
              "internalType": "bool",
              "name": "forSale",
              "type": "bool"
            }
          ],
          "internalType": "struct CarRegistry.Car[]",
          "name": "",
          "type": "tuple[]"
        }
      ],
      "stateMutability": "view",
      "type": "function",
      "constant": true
    },
    {
      "inputs": [],
      "name": "getRequestedMileageUpdateCars",
      "outputs": [
        {
          "components": [
            {
              "internalType": "uint256",
              "name": "carId",
              "type": "uint256"
            },
            {
              "internalType": "string",
              "name": "licensePlate",
              "type": "string"
            },
            {
              "internalType": "string",
              "name": "brand",
              "type": "string"
            },
            {
              "internalType": "string",
              "name": "imageUrl",
              "type": "string"
            },
            {
              "internalType": "string",
              "name": "color",
              "type": "string"
            },
            {
              "internalType": "uint256",
              "name": "mileage",
              "type": "uint256"
            },
            {
              "internalType": "address",
              "name": "owner",
              "type": "address"
            },
            {
              "internalType": "uint256",
              "name": "askingPrice",
              "type": "uint256"
            },
            {
              "internalType": "bool",
              "name": "mileageUpdateRequested",
              "type": "bool"
            },
            {
              "internalType": "address",
              "name": "dealer",
              "type": "address"
            },
            {
              "internalType": "bool",
              "name": "forSale",
              "type": "bool"
            }
          ],
          "internalType": "struct CarRegistry.Car[]",
          "name": "",
          "type": "tuple[]"
        }
      ],
      "stateMutability": "view",
      "type": "function",
      "constant": true
    }
  ],
  "bytecode": "0x608060405234801561001057600080fd5b50336000908152600260205260409020805460ff19166001179055611a0f8061003a6000396000f3fe608060405234801561001057600080fd5b506004361061009e5760003560e01c8063abfe5d5711610066578063abfe5d571461011e578063bd3d4dae14610126578063d67f1d7b1461012e578063f7746e3614610141578063fae69e641461016b5761009e565b8063022914a7146100a357806325ae1ff6146100cc578063297a1f56146100e15780639cb891ec146100f6578063a1956dd214610116575b600080fd5b6100b66100b1366004611528565b61017e565b6040516100c391906117f1565b60405180910390f35b6100df6100da36600461162d565b610193565b005b6100e96101dc565b6040516100c391906118d1565b610109610104366004611528565b6101e2565b6040516100c391906116c4565b610109610589565b610109610a0a565b6100e9610d89565b6100df61013c366004611645565b610d8f565b61015461014f36600461162d565b610e95565b6040516100c39b9a999897969594939291906118da565b6100df610179366004611549565b61111c565b60026020526000908152604090205460ff1681565b600081815260208190526040808220600801805460ff1916600117905551339183917fd0cfd54db7c8dc46a119a9f891a0728941b9a38585187981908e7bbff0de004c9190a350565b60015481565b6060600060015467ffffffffffffffff81111561020f57634e487b7160e01b600052604160045260246000fd5b60405190808252806020026020018201604052801561024857816020015b6102356113c1565b81526020019060019003908161022d5790505b50905060005b600154811015610580576000818152602081905260409020600601546001600160a01b038581169116141561056e5760008181526020818152604091829020825161016081019093528054835260018101805491928401916102af90611977565b80601f01602080910402602001604051908101604052809291908181526020018280546102db90611977565b80156103285780601f106102fd57610100808354040283529160200191610328565b820191906000526020600020905b81548152906001019060200180831161030b57829003601f168201915b5050505050815260200160028201805461034190611977565b80601f016020809104026020016040519081016040528092919081815260200182805461036d90611977565b80156103ba5780601f1061038f576101008083540402835291602001916103ba565b820191906000526020600020905b81548152906001019060200180831161039d57829003601f168201915b505050505081526020016003820180546103d390611977565b80601f01602080910402602001604051908101604052809291908181526020018280546103ff90611977565b801561044c5780601f106104215761010080835404028352916020019161044c565b820191906000526020600020905b81548152906001019060200180831161042f57829003601f168201915b5050505050815260200160048201805461046590611977565b80601f016020809104026020016040519081016040528092919081815260200182805461049190611977565b80156104de5780601f106104b3576101008083540402835291602001916104de565b820191906000526020600020905b8154815290600101906020018083116104c157829003601f168201915b50505091835250506005820154602082015260068201546001600160a01b0390811660408301526007830154606083015260089092015460ff80821615156080840152610100820490931660a0830152600160a81b9004909116151560c090910152825183908390811061056257634e487b7160e01b600052603260045260246000fd5b60200260200101819052505b80610578816119b2565b91505061024e565b5090505b919050565b6060600060015467ffffffffffffffff8111156105b657634e487b7160e01b600052604160045260246000fd5b6040519080825280602002602001820160405280156105ef57816020015b6105dc6113c1565b8152602001906001900390816105d45790505b5090506000805b60015481101561092b5760008181526020819052604090206008015460ff161561091957600081815260208181526040918290208251610160810190935280548352600181018054919284019161064c90611977565b80601f016020809104026020016040519081016040528092919081815260200182805461067890611977565b80156106c55780601f1061069a576101008083540402835291602001916106c5565b820191906000526020600020905b8154815290600101906020018083116106a857829003601f168201915b505050505081526020016002820180546106de90611977565b80601f016020809104026020016040519081016040528092919081815260200182805461070a90611977565b80156107575780601f1061072c57610100808354040283529160200191610757565b820191906000526020600020905b81548152906001019060200180831161073a57829003601f168201915b5050505050815260200160038201805461077090611977565b80601f016020809104026020016040519081016040528092919081815260200182805461079c90611977565b80156107e95780601f106107be576101008083540402835291602001916107e9565b820191906000526020600020905b8154815290600101906020018083116107cc57829003601f168201915b5050505050815260200160048201805461080290611977565b80601f016020809104026020016040519081016040528092919081815260200182805461082e90611977565b801561087b5780601f106108505761010080835404028352916020019161087b565b820191906000526020600020905b81548152906001019060200180831161085e57829003601f168201915b50505091835250506005820154602082015260068201546001600160a01b0390811660408301526007830154606083015260089092015460ff80821615156080840152610100820490931660a0830152600160a81b9004909116151560c09091015283518490849081106108ff57634e487b7160e01b600052603260045260246000fd5b60200260200101819052508180610915906119b2565b9250505b80610923816119b2565b9150506105f6565b5060008167ffffffffffffffff81111561095557634e487b7160e01b600052604160045260246000fd5b60405190808252806020026020018201604052801561098e57816020015b61097b6113c1565b8152602001906001900390816109735790505b50905060005b82811015610a02578381815181106109bc57634e487b7160e01b600052603260045260246000fd5b60200260200101518282815181106109e457634e487b7160e01b600052603260045260246000fd5b602002602001018190525080806109fa906119b2565b915050610994565b509250505090565b6060600060015467ffffffffffffffff811115610a3757634e487b7160e01b600052604160045260246000fd5b604051908082528060200260200182016040528015610a7057816020015b610a5d6113c1565b815260200190600190039081610a555790505b50905060005b600154811015610d83576000818152602081815260409182902082516101608101909352805483526001810180549192840191610ab290611977565b80601f0160208091040260200160405190810160405280929190818152602001828054610ade90611977565b8015610b2b5780601f10610b0057610100808354040283529160200191610b2b565b820191906000526020600020905b815481529060010190602001808311610b0e57829003601f168201915b50505050508152602001600282018054610b4490611977565b80601f0160208091040260200160405190810160405280929190818152602001828054610b7090611977565b8015610bbd5780601f10610b9257610100808354040283529160200191610bbd565b820191906000526020600020905b815481529060010190602001808311610ba057829003601f168201915b50505050508152602001600382018054610bd690611977565b80601f0160208091040260200160405190810160405280929190818152602001828054610c0290611977565b8015610c4f5780601f10610c2457610100808354040283529160200191610c4f565b820191906000526020600020905b815481529060010190602001808311610c3257829003601f168201915b50505050508152602001600482018054610c6890611977565b80601f0160208091040260200160405190810160405280929190818152602001828054610c9490611977565b8015610ce15780601f10610cb657610100808354040283529160200191610ce1565b820191906000526020600020905b815481529060010190602001808311610cc457829003601f168201915b50505091835250506005820154602082015260068201546001600160a01b0390811660408301526007830154606083015260089092015460ff80821615156080840152610100820490931660a0830152600160a81b9004909116151560c0909101528251839083908110610d6557634e487b7160e01b600052603260045260246000fd5b60200260200101819052508080610d7b906119b2565b915050610a76565b50905090565b60015490565b60008281526020819052604090206008015460ff16610dc95760405162461bcd60e51b8152600401610dc09061184a565b60405180910390fd5b60008281526020819052604090206008015461010090046001600160a01b03163314610e075760405162461bcd60e51b8152600401610dc0906117fc565b6000828152602081905260409020600501548111610e375760405162461bcd60e51b8152600401610dc090611881565b6000828152602081905260409081902060058101839055600801805460ff191690555182907f8efc49dd7338aab32e9fff6b2a18b774819b865271595aafc571d0137bedbb3f90610e899084906118d1565b60405180910390a25050565b60006020819052908152604090208054600182018054919291610eb790611977565b80601f0160208091040260200160405190810160405280929190818152602001828054610ee390611977565b8015610f305780601f10610f0557610100808354040283529160200191610f30565b820191906000526020600020905b815481529060010190602001808311610f1357829003601f168201915b505050505090806002018054610f4590611977565b80601f0160208091040260200160405190810160405280929190818152602001828054610f7190611977565b8015610fbe5780601f10610f9357610100808354040283529160200191610fbe565b820191906000526020600020905b815481529060010190602001808311610fa157829003601f168201915b505050505090806003018054610fd390611977565b80601f0160208091040260200160405190810160405280929190818152602001828054610fff90611977565b801561104c5780601f106110215761010080835404028352916020019161104c565b820191906000526020600020905b81548152906001019060200180831161102f57829003601f168201915b50505050509080600401805461106190611977565b80601f016020809104026020016040519081016040528092919081815260200182805461108d90611977565b80156110da5780601f106110af576101008083540402835291602001916110da565b820191906000526020600020905b8154815290600101906020018083116110bd57829003601f168201915b50505050600583015460068401546007850154600890950154939491936001600160a01b03918216935060ff8082169261010083041691600160a81b9004168b565b60405180610160016040528060015481526020018c8c8080601f016020809104026020016040519081016040528093929190818152602001838380828437600092019190915250505090825250604080516020601f8d018190048102820181019092528b815291810191908c908c9081908401838280828437600092019190915250505090825250604080516020601f8b0181900481028201810190925289815291810191908a908a9081908401838280828437600092019190915250505090825250604080516020601f890181900481028201810190925287815291810191908890889081908401838280828437600092018290525093855250505060208083018790523360408085019190915260608401879052608084018390526001600160a01b03861660a0850152600160c0909401849052835483528282529091208351815583820151805191936112789390850192910190611431565b5060408201518051611294916002840191602090910190611431565b50606082015180516112b0916003840191602090910190611431565b50608082015180516112cc916004840191602090910190611431565b5060a0820151600582015560c082015160068201805473ffffffffffffffffffffffffffffffffffffffff19166001600160a01b0392831617905560e0830151600783015561010080840151600890930180546101208601516101409096015160ff199091169415159490941774ffffffffffffffffffffffffffffffffffffffff00191694909216029290921760ff60a81b1916600160a81b911515919091021790556001546040513391907f459e1abea8d58f1f390ad63904970bc184e7e026ff12f2f7f3c3aed6677ad18790600090a3600180549060006113af836119b2565b91905055505050505050505050505050565b60405180610160016040528060008152602001606081526020016060815260200160608152602001606081526020016000815260200160006001600160a01b031681526020016000815260200160001515815260200160006001600160a01b031681526020016000151581525090565b82805461143d90611977565b90600052602060002090601f01602090048101928261145f57600085556114a5565b82601f1061147857805160ff19168380011785556114a5565b828001600101855582156114a5579182015b828111156114a557825182559160200191906001019061148a565b506114b19291506114b5565b5090565b5b808211156114b157600081556001016114b6565b80356001600160a01b038116811461058457600080fd5b60008083601f8401126114f2578182fd5b50813567ffffffffffffffff811115611509578182fd5b60208301915083602082850101111561152157600080fd5b9250929050565b600060208284031215611539578081fd5b611542826114ca565b9392505050565b600080600080600080600080600080600060e08c8e031215611569578687fd5b67ffffffffffffffff808d35111561157f578788fd5b61158c8e8e358f016114e1565b909c509a5060208d01358110156115a1578788fd5b6115b18e60208f01358f016114e1565b909a50985060408d01358110156115c6578788fd5b6115d68e60408f01358f016114e1565b909850965060608d01358110156115eb578586fd5b506115fc8d60608e01358e016114e1565b909550935060808c0135925060a08c0135915061161b60c08d016114ca565b90509295989b509295989b9093969950565b60006020828403121561163e578081fd5b5035919050565b60008060408385031215611657578182fd5b50508035926020909101359150565b6001600160a01b03169052565b15159052565b60008151808452815b8181101561169e57602081850181015186830182015201611682565b818111156116af5782602083870101525b50601f01601f19169290920160200192915050565b60208082528251828201819052600091906040908185019080840286018301878501865b838110156117e357603f1989840301855281516101608151855288820151818a87015261171782870182611679565b915050878201518582038987015261172f8282611679565b915050606080830151868303828801526117498382611679565b92505050608080830151868303828801526117648382611679565b9250505060a080830151818701525060c08083015161178582880182611666565b505060e08281015190860152610100808301516117a482880182611673565b5050610120808301516117b982880182611666565b505061014091820151916117cf86820184611673565b5095880195935050908601906001016116e8565b509098975050505050505050565b901515815260200190565b6020808252602e908201527f4f6e6c7920746865206465616c65722063616e20636f6e6669726d207468652060408201526d6d696c656167652075706461746560901b606082015260800190565b6020808252601c908201527f4d696c6561676520757064617465206e6f742072657175657374656400000000604082015260600190565b60208082526030908201527f4e6577206d696c65616765206d7573742062652067726561746572207468616e60408201526f2063757272656e74206d696c6561676560801b606082015260800190565b90815260200190565b60006101608d83528060208401526118f48184018e611679565b90508281036040840152611908818d611679565b9050828103606084015261191c818c611679565b90508281036080840152611930818b611679565b60a084019990995250506001600160a01b0395861660c082015260e08101949094529115156101008401529092166101208201529015156101409091015295945050505050565b60028104600182168061198b57607f821691505b602082108114156119ac57634e487b7160e01b600052602260045260246000fd5b50919050565b60006000198214156119d257634e487b7160e01b81526011600452602481fd5b506001019056fea2646970667358221220955a6cf92afffff75b72b98852e380ffe61e05a3d0d355d6e5b628965574116564736f6c63430008000033",
  "immutableReferences": {},
  "source": "// SPDX-License-Identifier: MIT\npragma solidity >=0.5.1 <0.9.0;\npragma experimental ABIEncoderV2;\n\ncontract CarRegistry {\n    struct Car {\n        uint256 carId;\n        string licensePlate;\n        string brand;\n        string imageUrl;\n        string color;\n        uint256 mileage;\n        address owner;\n        uint256 askingPrice;\n        bool mileageUpdateRequested;\n        address dealer;\n        bool forSale;\n    }\n\n    mapping(uint256 => Car) public cars;\n    uint256 public carCount;\n    mapping(address => bool) public owners;\n\n    event CarRegistered(uint256 indexed carId, address indexed owner);\n    event MileageUpdated(uint256 indexed carId, uint256 mileage);\n    event CarListedForSale(uint256 indexed carId, uint256 askingPrice);\n    event CarSold(uint256 indexed carId, address indexed oldOwner, address indexed newOwner, uint256 sellingPrice);\n    event MileageUpdateRequested(uint256 indexed carId, address indexed requester);\n\n    modifier onlyOwner() {\n        require(owners[msg.sender], \"Only the contract owner can perform this action\");\n        _;\n    }\n\n    modifier onlyCarOwner(uint256 _carId) {\n        require(cars[_carId].owner == msg.sender, \"Only the owner can perform this action\");\n        _;\n    }\n\n    constructor() public {\n        owners[msg.sender] = true;\n    }\n\n   function registerCar(\n        string calldata _licensePlate,\n        string calldata _brand,\n        string calldata _imageUrl,\n        string calldata _color,\n        uint256 _mileage,\n        uint256 _askingPrice,\n        address _dealer\n    ) external {\n        cars[carCount] = Car({\n            carId: carCount,\n            licensePlate: _licensePlate,\n            brand: _brand,\n            imageUrl: _imageUrl,\n            color: _color,\n            mileage: _mileage,\n            owner: msg.sender,\n            askingPrice: _askingPrice,\n            mileageUpdateRequested: false,\n            dealer: _dealer,\n            forSale: true\n        });\n\n        emit CarRegistered(carCount, msg.sender);\n        carCount++;\n    }\n\n    function requestMileageUpdate(uint256 _carId) external {\n        cars[_carId].mileageUpdateRequested = true;\n        emit MileageUpdateRequested(_carId, msg.sender);\n    }\n\n    function confirmMileageUpdate(uint256 _carId, uint256 _newMileage) external {\n        require(cars[_carId].mileageUpdateRequested, \"Mileage update not requested\");\n        require(cars[_carId].dealer == msg.sender, \"Only the dealer can confirm the mileage update\");\n        require(_newMileage > cars[_carId].mileage, \"New mileage must be greater than current mileage\");\n\n        cars[_carId].mileage = _newMileage;\n        cars[_carId].mileageUpdateRequested = false;\n        emit MileageUpdated(_carId, _newMileage);\n    }\n\n    // function buyCar(uint256 _carId) external payable {\n    //     require(cars[_carId].forSale, \"Car is not listed for sale\");\n    //     require(msg.value >= cars[_carId].askingPrice, \"Insufficient payment\");\n\n    //     address payable oldOwner = address(uint160(cars[_carId].owner));\n    //     oldOwner.transfer(msg.value);\n\n    //     cars[_carId].owner = msg.sender;\n    //     cars[_carId].forSale = false;\n\n    //     emit CarSold(_carId, oldOwner, msg.sender, msg.value);\n    // }\n\n    // function addOwner(address _newOwner) external onlyOwner {\n    //     owners[_newOwner] = true;\n    // }\n\n    // function removeOwner(address _owner) external onlyOwner {\n    //     require(_owner != msg.sender, \"Cannot remove yourself as an owner\");\n    //     owners[_owner] = false;\n    // }\n\n    function getCarsCount() external view returns (uint256) {\n        return carCount;\n    }\n\n    function getAllCars() external view returns (Car[] memory) {\n        Car[] memory carArray = new Car[](carCount);\n        for (uint256 i = 0; i < carCount; i++) {\n            carArray[i] = cars[i];\n        }\n        return carArray;\n    }\n\n    function getCarsOwnedByAddress(address _owner) external view returns (Car[] memory) {\n        Car[] memory ownedCars = new Car[](carCount);\n\n        for (uint i = 0; i < carCount; i++) {\n            if (cars[i].owner == _owner) {\n                ownedCars[i] = cars[i];\n            }\n        }\n\n        return ownedCars;\n    }\n\n    function getRequestedMileageUpdateCars() external view returns (Car[] memory) {\n        Car[] memory requestedCars = new Car[](carCount);\n        uint256 count = 0;\n\n        for (uint256 i = 0; i < carCount; i++) {\n            if (cars[i].mileageUpdateRequested) {\n                requestedCars[count] = cars[i];\n                count++;\n            }\n        }\n\n        // Trim the array to remove any empty slots\n        Car[] memory result = new Car[](count);\n        for (uint256 j = 0; j < count; j++) {\n            result[j] = requestedCars[j];\n        }\n\n        return result;\n    }\n\n\n}\n",
  "sourcePath": "/Users/harungokcegoz/Documents/blockchain-for-car-market/contracts/contracts/CarRegistry.sol",
  "compiler": {
    "name": "solc",
    "version": "0.8.0+commit.c7dfd78e.Emscripten.clang"
  },
  "schemaVersion": "3.4.16",
  "updatedAt": "2024-03-24T22:30:13.541Z",
  "networkType": "ethereum",
  "devdoc": {
    "kind": "dev",
    "methods": {},
    "version": 1
  },
  "userdoc": {
    "kind": "user",
    "methods": {},
    "version": 1
  }
}