{
  "contractName": "CarRegistry",
  "abi": [
    {
      "inputs": [],
      "payable": false,
      "stateMutability": "nonpayable",
      "type": "constructor"
    },
    {
      "anonymous": false,
      "inputs": [
        {
          "indexed": true,
          "internalType": "uint256",
          "name": "carId",
          "type": "uint256"
        },
        {
          "indexed": false,
          "internalType": "uint256",
          "name": "askingPrice",
          "type": "uint256"
        }
      ],
      "name": "CarListedForSale",
      "type": "event"
    },
    {
      "anonymous": false,
      "inputs": [
        {
          "indexed": true,
          "internalType": "uint256",
          "name": "carId",
          "type": "uint256"
        },
        {
          "indexed": true,
          "internalType": "address",
          "name": "owner",
          "type": "address"
        }
      ],
      "name": "CarRegistered",
      "type": "event"
    },
    {
      "anonymous": false,
      "inputs": [
        {
          "indexed": true,
          "internalType": "uint256",
          "name": "carId",
          "type": "uint256"
        },
        {
          "indexed": true,
          "internalType": "address",
          "name": "oldOwner",
          "type": "address"
        },
        {
          "indexed": true,
          "internalType": "address",
          "name": "newOwner",
          "type": "address"
        },
        {
          "indexed": false,
          "internalType": "uint256",
          "name": "sellingPrice",
          "type": "uint256"
        }
      ],
      "name": "CarSold",
      "type": "event"
    },
    {
      "anonymous": false,
      "inputs": [
        {
          "indexed": true,
          "internalType": "uint256",
          "name": "carId",
          "type": "uint256"
        },
        {
          "indexed": false,
          "internalType": "uint256",
          "name": "mileage",
          "type": "uint256"
        }
      ],
      "name": "MileageUpdated",
      "type": "event"
    },
    {
      "constant": true,
      "inputs": [],
      "name": "carCount",
      "outputs": [
        {
          "internalType": "uint256",
          "name": "",
          "type": "uint256"
        }
      ],
      "payable": false,
      "stateMutability": "view",
      "type": "function"
    },
    {
      "constant": true,
      "inputs": [
        {
          "internalType": "uint256",
          "name": "",
          "type": "uint256"
        }
      ],
      "name": "cars",
      "outputs": [
        {
          "internalType": "string",
          "name": "licensePlate",
          "type": "string"
        },
        {
          "internalType": "string",
          "name": "chassisNumber",
          "type": "string"
        },
        {
          "internalType": "string",
          "name": "brand",
          "type": "string"
        },
        {
          "internalType": "string",
          "name": "imageUrl",
          "type": "string"
        },
        {
          "internalType": "string",
          "name": "color",
          "type": "string"
        },
        {
          "internalType": "uint256",
          "name": "mileage",
          "type": "uint256"
        },
        {
          "internalType": "address",
          "name": "owner",
          "type": "address"
        },
        {
          "internalType": "uint256",
          "name": "askingPrice",
          "type": "uint256"
        },
        {
          "internalType": "bool",
          "name": "forSale",
          "type": "bool"
        }
      ],
      "payable": false,
      "stateMutability": "view",
      "type": "function"
    },
    {
      "constant": true,
      "inputs": [
        {
          "internalType": "address",
          "name": "",
          "type": "address"
        }
      ],
      "name": "owners",
      "outputs": [
        {
          "internalType": "bool",
          "name": "",
          "type": "bool"
        }
      ],
      "payable": false,
      "stateMutability": "view",
      "type": "function"
    },
    {
      "constant": false,
      "inputs": [
        {
          "internalType": "string",
          "name": "_licensePlate",
          "type": "string"
        },
        {
          "internalType": "string",
          "name": "_chassisNumber",
          "type": "string"
        },
        {
          "internalType": "string",
          "name": "_brand",
          "type": "string"
        },
        {
          "internalType": "string",
          "name": "_imageUrl",
          "type": "string"
        },
        {
          "internalType": "string",
          "name": "_color",
          "type": "string"
        },
        {
          "internalType": "uint256",
          "name": "_mileage",
          "type": "uint256"
        },
        {
          "internalType": "uint256",
          "name": "_askingPrice",
          "type": "uint256"
        }
      ],
      "name": "registerCar",
      "outputs": [],
      "payable": false,
      "stateMutability": "nonpayable",
      "type": "function"
    },
    {
      "constant": false,
      "inputs": [
        {
          "internalType": "uint256",
          "name": "_carId",
          "type": "uint256"
        },
        {
          "internalType": "uint256",
          "name": "_mileage",
          "type": "uint256"
        }
      ],
      "name": "updateMileage",
      "outputs": [],
      "payable": false,
      "stateMutability": "nonpayable",
      "type": "function"
    },
    {
      "constant": false,
      "inputs": [
        {
          "internalType": "uint256",
          "name": "_carId",
          "type": "uint256"
        },
        {
          "internalType": "uint256",
          "name": "_askingPrice",
          "type": "uint256"
        }
      ],
      "name": "listCarForSale",
      "outputs": [],
      "payable": false,
      "stateMutability": "nonpayable",
      "type": "function"
    },
    {
      "constant": true,
      "inputs": [
        {
          "internalType": "uint256",
          "name": "_carId",
          "type": "uint256"
        }
      ],
      "name": "getCar",
      "outputs": [
        {
          "internalType": "string",
          "name": "licensePlate",
          "type": "string"
        },
        {
          "internalType": "string",
          "name": "chassisNumber",
          "type": "string"
        },
        {
          "internalType": "string",
          "name": "brand",
          "type": "string"
        },
        {
          "internalType": "string",
          "name": "imageUrl",
          "type": "string"
        },
        {
          "internalType": "string",
          "name": "color",
          "type": "string"
        },
        {
          "internalType": "uint256",
          "name": "mileage",
          "type": "uint256"
        },
        {
          "internalType": "address",
          "name": "owner",
          "type": "address"
        },
        {
          "internalType": "uint256",
          "name": "askingPrice",
          "type": "uint256"
        },
        {
          "internalType": "bool",
          "name": "forSale",
          "type": "bool"
        }
      ],
      "payable": false,
      "stateMutability": "view",
      "type": "function"
    },
    {
      "constant": false,
      "inputs": [
        {
          "internalType": "address",
          "name": "_newOwner",
          "type": "address"
        }
      ],
      "name": "addOwner",
      "outputs": [],
      "payable": false,
      "stateMutability": "nonpayable",
      "type": "function"
    },
    {
      "constant": false,
      "inputs": [
        {
          "internalType": "address",
          "name": "_owner",
          "type": "address"
        }
      ],
      "name": "removeOwner",
      "outputs": [],
      "payable": false,
      "stateMutability": "nonpayable",
      "type": "function"
    },
    {
      "constant": true,
      "inputs": [],
      "name": "getCarsCount",
      "outputs": [
        {
          "internalType": "uint256",
          "name": "",
          "type": "uint256"
        }
      ],
      "payable": false,
      "stateMutability": "view",
      "type": "function"
    }
  ],
  "bytecode": "0x608060405234801561001057600080fd5b506001600260003373ffffffffffffffffffffffffffffffffffffffff1673ffffffffffffffffffffffffffffffffffffffff16815260200190815260200160002060006101000a81548160ff021916908315150217905550611b97806100786000396000f3fe608060405234801561001057600080fd5b506004361061009e5760003560e01c8063bd3d4dae11610066578063bd3d4dae14610448578063c983154114610466578063f68883841461049e578063f7746e36146104d6578063fa17a070146107795761009e565b8063022914a7146100a3578063173825d9146100ff578063297a1f56146101435780635e8be190146101615780637065cb4814610404575b600080fd5b6100e5600480360360208110156100b957600080fd5b81019080803573ffffffffffffffffffffffffffffffffffffffff16906020019092919050505061095a565b604051808215151515815260200191505060405180910390f35b6101416004803603602081101561011557600080fd5b81019080803573ffffffffffffffffffffffffffffffffffffffff16906020019092919050505061097a565b005b61014b610afc565b6040518082815260200191505060405180910390f35b61018d6004803603602081101561017757600080fd5b8101908080359060200190929190505050610b02565b6040518080602001806020018060200180602001806020018a81526020018973ffffffffffffffffffffffffffffffffffffffff1673ffffffffffffffffffffffffffffffffffffffff1681526020018881526020018715151515815260200186810386528f818151815260200191508051906020019080838360005b8381101561022557808201518184015260208101905061020a565b50505050905090810190601f1680156102525780820380516001836020036101000a031916815260200191505b5086810385528e818151815260200191508051906020019080838360005b8381101561028b578082015181840152602081019050610270565b50505050905090810190601f1680156102b85780820380516001836020036101000a031916815260200191505b5086810384528d818151815260200191508051906020019080838360005b838110156102f15780820151818401526020810190506102d6565b50505050905090810190601f16801561031e5780820380516001836020036101000a031916815260200191505b5086810383528c818151815260200191508051906020019080838360005b8381101561035757808201518184015260208101905061033c565b50505050905090810190601f1680156103845780820380516001836020036101000a031916815260200191505b5086810382528b818151815260200191508051906020019080838360005b838110156103bd5780820151818401526020810190506103a2565b50505050905090810190601f1680156103ea5780820380516001836020036101000a031916815260200191505b509e50505050505050505050505050505060405180910390f35b6104466004803603602081101561041a57600080fd5b81019080803573ffffffffffffffffffffffffffffffffffffffff169060200190929190505050610f44565b005b610450611041565b6040518082815260200191505060405180910390f35b61049c6004803603604081101561047c57600080fd5b81019080803590602001909291908035906020019092919050505061104b565b005b6104d4600480360360408110156104b457600080fd5b8101908080359060200190929190803590602001909291905050506111c9565b005b610502600480360360208110156104ec57600080fd5b8101908080359060200190929190505050611308565b6040518080602001806020018060200180602001806020018a81526020018973ffffffffffffffffffffffffffffffffffffffff1673ffffffffffffffffffffffffffffffffffffffff1681526020018881526020018715151515815260200186810386528f818151815260200191508051906020019080838360005b8381101561059a57808201518184015260208101905061057f565b50505050905090810190601f1680156105c75780820380516001836020036101000a031916815260200191505b5086810385528e818151815260200191508051906020019080838360005b838110156106005780820151818401526020810190506105e5565b50505050905090810190601f16801561062d5780820380516001836020036101000a031916815260200191505b5086810384528d818151815260200191508051906020019080838360005b8381101561066657808201518184015260208101905061064b565b50505050905090810190601f1680156106935780820380516001836020036101000a031916815260200191505b5086810383528c818151815260200191508051906020019080838360005b838110156106cc5780820151818401526020810190506106b1565b50505050905090810190601f1680156106f95780820380516001836020036101000a031916815260200191505b5086810382528b818151815260200191508051906020019080838360005b83811015610732578082015181840152602081019050610717565b50505050905090810190601f16801561075f5780820380516001836020036101000a031916815260200191505b509e50505050505050505050505050505060405180910390f35b610958600480360360e081101561078f57600080fd5b81019080803590602001906401000000008111156107ac57600080fd5b8201836020820111156107be57600080fd5b803590602001918460018302840111640100000000831117156107e057600080fd5b90919293919293908035906020019064010000000081111561080157600080fd5b82018360208201111561081357600080fd5b8035906020019184600183028401116401000000008311171561083557600080fd5b90919293919293908035906020019064010000000081111561085657600080fd5b82018360208201111561086857600080fd5b8035906020019184600183028401116401000000008311171561088a57600080fd5b9091929391929390803590602001906401000000008111156108ab57600080fd5b8201836020820111156108bd57600080fd5b803590602001918460018302840111640100000000831117156108df57600080fd5b90919293919293908035906020019064010000000081111561090057600080fd5b82018360208201111561091257600080fd5b8035906020019184600183028401116401000000008311171561093457600080fd5b9091929391929390803590602001909291908035906020019092919050505061167b565b005b60026020528060005260406000206000915054906101000a900460ff1681565b600260003373ffffffffffffffffffffffffffffffffffffffff1673ffffffffffffffffffffffffffffffffffffffff16815260200190815260200160002060009054906101000a900460ff16610a1c576040517f08c379a000000000000000000000000000000000000000000000000000000000815260040180806020018281038252602f815260200180611ae2602f913960400191505060405180910390fd5b3373ffffffffffffffffffffffffffffffffffffffff168173ffffffffffffffffffffffffffffffffffffffff161415610aa1576040517f08c379a0000000000000000000000000000000000000000000000000000000008152600401808060200182810382526022815260200180611b116022913960400191505060405180910390fd5b6000600260008373ffffffffffffffffffffffffffffffffffffffff1673ffffffffffffffffffffffffffffffffffffffff16815260200190815260200160002060006101000a81548160ff02191690831515021790555050565b60015481565b6060806060806060600080600080610b186119b2565b6000808c815260200190815260200160002060405180610120016040529081600082018054600181600116156101000203166002900480601f016020809104026020016040519081016040528092919081815260200182805460018160011615610100020316600290048015610bcf5780601f10610ba457610100808354040283529160200191610bcf565b820191906000526020600020905b815481529060010190602001808311610bb257829003601f168201915b50505050508152602001600182018054600181600116156101000203166002900480601f016020809104026020016040519081016040528092919081815260200182805460018160011615610100020316600290048015610c715780601f10610c4657610100808354040283529160200191610c71565b820191906000526020600020905b815481529060010190602001808311610c5457829003601f168201915b50505050508152602001600282018054600181600116156101000203166002900480601f016020809104026020016040519081016040528092919081815260200182805460018160011615610100020316600290048015610d135780601f10610ce857610100808354040283529160200191610d13565b820191906000526020600020905b815481529060010190602001808311610cf657829003601f168201915b50505050508152602001600382018054600181600116156101000203166002900480601f016020809104026020016040519081016040528092919081815260200182805460018160011615610100020316600290048015610db55780601f10610d8a57610100808354040283529160200191610db5565b820191906000526020600020905b815481529060010190602001808311610d9857829003601f168201915b50505050508152602001600482018054600181600116156101000203166002900480601f016020809104026020016040519081016040528092919081815260200182805460018160011615610100020316600290048015610e575780601f10610e2c57610100808354040283529160200191610e57565b820191906000526020600020905b815481529060010190602001808311610e3a57829003601f168201915b50505050508152602001600582015481526020016006820160009054906101000a900473ffffffffffffffffffffffffffffffffffffffff1673ffffffffffffffffffffffffffffffffffffffff1673ffffffffffffffffffffffffffffffffffffffff168152602001600782015481526020016008820160009054906101000a900460ff1615151515815250509050806000015181602001518260400151836060015184608001518560a001518660c001518760e00151886101000151889850879750869650859550849450995099509950995099509950995099509950509193959799909294969850565b600260003373ffffffffffffffffffffffffffffffffffffffff1673ffffffffffffffffffffffffffffffffffffffff16815260200190815260200160002060009054906101000a900460ff16610fe6576040517f08c379a000000000000000000000000000000000000000000000000000000000815260040180806020018281038252602f815260200180611ae2602f913960400191505060405180910390fd5b6001600260008373ffffffffffffffffffffffffffffffffffffffff1673ffffffffffffffffffffffffffffffffffffffff16815260200190815260200160002060006101000a81548160ff02191690831515021790555050565b6000600154905090565b813373ffffffffffffffffffffffffffffffffffffffff1660008083815260200190815260200160002060060160009054906101000a900473ffffffffffffffffffffffffffffffffffffffff1673ffffffffffffffffffffffffffffffffffffffff1614611105576040517f08c379a0000000000000000000000000000000000000000000000000000000008152600401808060200182810382526026815260200180611abc6026913960400191505060405180910390fd5b600080848152602001908152602001600020600501548211611172576040517f08c379a0000000000000000000000000000000000000000000000000000000008152600401808060200182810382526030815260200180611b336030913960400191505060405180910390fd5b8160008085815260200190815260200160002060050181905550827f8efc49dd7338aab32e9fff6b2a18b774819b865271595aafc571d0137bedbb3f836040518082815260200191505060405180910390a2505050565b813373ffffffffffffffffffffffffffffffffffffffff1660008083815260200190815260200160002060060160009054906101000a900473ffffffffffffffffffffffffffffffffffffffff1673ffffffffffffffffffffffffffffffffffffffff1614611283576040517f08c379a0000000000000000000000000000000000000000000000000000000008152600401808060200182810382526026815260200180611abc6026913960400191505060405180910390fd5b600160008085815260200190815260200160002060080160006101000a81548160ff0219169083151502179055508160008085815260200190815260200160002060070181905550827fd7eb5635a91daa6c8336a751c696002c8243f97bad99a81269931e4639524709836040518082815260200191505060405180910390a2505050565b6000602052806000526040600020600091509050806000018054600181600116156101000203166002900480601f0160208091040260200160405190810160405280929190818152602001828054600181600116156101000203166002900480156113b45780601f10611389576101008083540402835291602001916113b4565b820191906000526020600020905b81548152906001019060200180831161139757829003601f168201915b505050505090806001018054600181600116156101000203166002900480601f0160208091040260200160405190810160405280929190818152602001828054600181600116156101000203166002900480156114525780601f1061142757610100808354040283529160200191611452565b820191906000526020600020905b81548152906001019060200180831161143557829003601f168201915b505050505090806002018054600181600116156101000203166002900480601f0160208091040260200160405190810160405280929190818152602001828054600181600116156101000203166002900480156114f05780601f106114c5576101008083540402835291602001916114f0565b820191906000526020600020905b8154815290600101906020018083116114d357829003601f168201915b505050505090806003018054600181600116156101000203166002900480601f01602080910402602001604051908101604052809291908181526020018280546001816001161561010002031660029004801561158e5780601f106115635761010080835404028352916020019161158e565b820191906000526020600020905b81548152906001019060200180831161157157829003601f168201915b505050505090806004018054600181600116156101000203166002900480601f01602080910402602001604051908101604052809291908181526020018280546001816001161561010002031660029004801561162c5780601f106116015761010080835404028352916020019161162c565b820191906000526020600020905b81548152906001019060200180831161160f57829003601f168201915b5050505050908060050154908060060160009054906101000a900473ffffffffffffffffffffffffffffffffffffffff16908060070154908060080160009054906101000a900460ff16905089565b6040518061012001604052808d8d8080601f016020809104026020016040519081016040528093929190818152602001838380828437600081840152601f19601f8201169050808301925050505050505081526020018b8b8080601f016020809104026020016040519081016040528093929190818152602001838380828437600081840152601f19601f82011690508083019250505050505050815260200189898080601f016020809104026020016040519081016040528093929190818152602001838380828437600081840152601f19601f82011690508083019250505050505050815260200187878080601f016020809104026020016040519081016040528093929190818152602001838380828437600081840152601f19601f82011690508083019250505050505050815260200185858080601f016020809104026020016040519081016040528093929190818152602001838380828437600081840152601f19601f8201169050808301925050505050505081526020018381526020013373ffffffffffffffffffffffffffffffffffffffff1681526020018281526020016001151581525060008060015481526020019081526020016000206000820151816000019080519060200190611858929190611a16565b506020820151816001019080519060200190611875929190611a16565b506040820151816002019080519060200190611892929190611a16565b5060608201518160030190805190602001906118af929190611a16565b5060808201518160040190805190602001906118cc929190611a16565b5060a0820151816005015560c08201518160060160006101000a81548173ffffffffffffffffffffffffffffffffffffffff021916908373ffffffffffffffffffffffffffffffffffffffff16021790555060e082015181600701556101008201518160080160006101000a81548160ff0219169083151502179055509050503373ffffffffffffffffffffffffffffffffffffffff166001547f459e1abea8d58f1f390ad63904970bc184e7e026ff12f2f7f3c3aed6677ad18760405160405180910390a3600160008154809291906001019190505550505050505050505050505050565b604051806101200160405280606081526020016060815260200160608152602001606081526020016060815260200160008152602001600073ffffffffffffffffffffffffffffffffffffffff168152602001600081526020016000151581525090565b828054600181600116156101000203166002900490600052602060002090601f016020900481019282601f10611a5757805160ff1916838001178555611a85565b82800160010185558215611a85579182015b82811115611a84578251825591602001919060010190611a69565b5b509050611a929190611a96565b5090565b611ab891905b80821115611ab4576000816000905550600101611a9c565b5090565b9056fe4f6e6c7920746865206f776e65722063616e20706572666f726d207468697320616374696f6e4f6e6c792074686520636f6e7472616374206f776e65722063616e20706572666f726d207468697320616374696f6e43616e6e6f742072656d6f766520796f757273656c6620617320616e206f776e65724e6577206d696c65616765206d7573742062652067726561746572207468616e2063757272656e74206d696c65616765a265627a7a723158200339a60ae84b49dcda5916ace9e043645e176a4a5f26ca70064db3e6031bbf7f64736f6c63430005100032",
  "source": "// SPDX-License-Identifier: MIT\npragma solidity >=0.5.1 <0.9.0;\n\ncontract CarRegistry {\n    struct Car {\n        string licensePlate;\n        string chassisNumber;\n        string brand;\n        string imageUrl;\n        string color;\n        uint256 mileage;\n        address owner;\n        uint256 askingPrice;\n        bool forSale;\n    }\n\n    mapping(uint256 => Car) public cars;\n    uint256 public carCount;\n    mapping(address => bool) public owners;\n\n    event CarRegistered(uint256 indexed carId, address indexed owner);\n    event MileageUpdated(uint256 indexed carId, uint256 mileage);\n    event CarListedForSale(uint256 indexed carId, uint256 askingPrice);\n    event CarSold(uint256 indexed carId, address indexed oldOwner, address indexed newOwner, uint256 sellingPrice);\n\n    modifier onlyOwner() {\n        require(owners[msg.sender], \"Only the contract owner can perform this action\");\n        _;\n    }\n\n    modifier onlyCarOwner(uint256 _carId) {\n        require(cars[_carId].owner == msg.sender, \"Only the owner can perform this action\");\n        _;\n    }\n\n    constructor() public {\n        owners[msg.sender] = true;\n    }\n\n    function registerCar(\n        string calldata _licensePlate,\n        string calldata _chassisNumber,\n        string calldata _brand,\n        string calldata _imageUrl,\n        string calldata _color,\n        uint256 _mileage,\n        uint256 _askingPrice\n    ) external {\n        cars[carCount] = Car({\n            licensePlate: _licensePlate,\n            chassisNumber: _chassisNumber,\n            brand: _brand,\n            imageUrl: _imageUrl,\n            color: _color,\n            mileage: _mileage,\n            owner: msg.sender,\n            askingPrice: _askingPrice,\n            forSale: true\n        });\n\n        emit CarRegistered(carCount, msg.sender);\n        carCount++;\n    }\n\n\n    function updateMileage(uint256 _carId, uint256 _mileage) external onlyCarOwner(_carId) {\n        require(_mileage > cars[_carId].mileage, \"New mileage must be greater than current mileage\");\n\n        cars[_carId].mileage = _mileage;\n        emit MileageUpdated(_carId, _mileage);\n    }\n\n    function listCarForSale(uint256 _carId, uint256 _askingPrice) external onlyCarOwner(_carId) {\n        cars[_carId].forSale = true;\n        cars[_carId].askingPrice = _askingPrice;\n\n        emit CarListedForSale(_carId, _askingPrice);\n    }\n\n    // function buyCar(uint256 _carId) external payable {\n    //     require(cars[_carId].forSale, \"Car is not listed for sale\");\n    //     require(msg.value >= cars[_carId].askingPrice, \"Insufficient payment\");\n\n    //     address payable oldOwner = address(uint160(cars[_carId].owner));\n    //     oldOwner.transfer(msg.value);\n\n    //     cars[_carId].owner = msg.sender;\n    //     cars[_carId].forSale = false;\n\n    //     emit CarSold(_carId, oldOwner, msg.sender, msg.value);\n    // }\n\n\n    function getCar(uint256 _carId) external view returns (\n        string memory licensePlate,\n        string memory chassisNumber,\n        string memory brand,\n        string memory imageUrl,\n        string memory color,\n        uint256 mileage,\n        address owner,\n        uint256 askingPrice,\n        bool forSale\n    ) {\n        Car memory car = cars[_carId];\n        return (\n            car.licensePlate,\n            car.chassisNumber,\n            car.brand,\n            car.imageUrl,\n            car.color,\n            car.mileage,\n            car.owner,\n            car.askingPrice,\n            car.forSale\n        );\n    }\n\n    function addOwner(address _newOwner) external onlyOwner {\n        owners[_newOwner] = true;\n    }\n\n    function removeOwner(address _owner) external onlyOwner {\n        require(_owner != msg.sender, \"Cannot remove yourself as an owner\");\n        owners[_owner] = false;\n    }\n\n    function getCarsCount() external view returns (uint256) {\n        return carCount;\n    }\n}\n",
  "sourcePath": "/Users/harungokcegoz/Documents/blockchain-for-car-market/contracts/contracts/CarRegistry.sol",
  "compiler": {
    "name": "solc",
    "version": "0.5.16+commit.9c3226ce.Emscripten.clang"
  },
  "schemaVersion": "3.4.16",
  "updatedAt": "2024-03-19T23:26:48.061Z",
  "networkType": "ethereum",
  "devdoc": {
    "methods": {}
  },
  "userdoc": {
    "methods": {}
  }
}