{
  "contractName": "CarRegistry",
  "abi": [
    {
      "inputs": [],
      "stateMutability": "nonpayable",
      "type": "constructor"
    },
    {
      "anonymous": false,
      "inputs": [
        {
          "indexed": true,
          "internalType": "uint256",
          "name": "carId",
          "type": "uint256"
        },
        {
          "indexed": false,
          "internalType": "uint256",
          "name": "askingPrice",
          "type": "uint256"
        }
      ],
      "name": "CarListedForSale",
      "type": "event"
    },
    {
      "anonymous": false,
      "inputs": [
        {
          "indexed": true,
          "internalType": "uint256",
          "name": "carId",
          "type": "uint256"
        },
        {
          "indexed": true,
          "internalType": "address",
          "name": "owner",
          "type": "address"
        }
      ],
      "name": "CarRegistered",
      "type": "event"
    },
    {
      "anonymous": false,
      "inputs": [
        {
          "indexed": true,
          "internalType": "uint256",
          "name": "carId",
          "type": "uint256"
        },
        {
          "indexed": true,
          "internalType": "address",
          "name": "oldOwner",
          "type": "address"
        },
        {
          "indexed": true,
          "internalType": "address",
          "name": "newOwner",
          "type": "address"
        },
        {
          "indexed": false,
          "internalType": "uint256",
          "name": "sellingPrice",
          "type": "uint256"
        }
      ],
      "name": "CarSold",
      "type": "event"
    },
    {
      "anonymous": false,
      "inputs": [
        {
          "indexed": true,
          "internalType": "uint256",
          "name": "carId",
          "type": "uint256"
        },
        {
          "indexed": true,
          "internalType": "address",
          "name": "requester",
          "type": "address"
        }
      ],
      "name": "MileageUpdateRequested",
      "type": "event"
    },
    {
      "anonymous": false,
      "inputs": [
        {
          "indexed": true,
          "internalType": "uint256",
          "name": "carId",
          "type": "uint256"
        },
        {
          "indexed": false,
          "internalType": "uint256",
          "name": "mileage",
          "type": "uint256"
        }
      ],
      "name": "MileageUpdated",
      "type": "event"
    },
    {
      "inputs": [],
      "name": "carCount",
      "outputs": [
        {
          "internalType": "uint256",
          "name": "",
          "type": "uint256"
        }
      ],
      "stateMutability": "view",
      "type": "function",
      "constant": true
    },
    {
      "inputs": [
        {
          "internalType": "uint256",
          "name": "",
          "type": "uint256"
        }
      ],
      "name": "cars",
      "outputs": [
        {
          "internalType": "uint256",
          "name": "carId",
          "type": "uint256"
        },
        {
          "internalType": "string",
          "name": "licensePlate",
          "type": "string"
        },
        {
          "internalType": "string",
          "name": "brand",
          "type": "string"
        },
        {
          "internalType": "string",
          "name": "imageUrl",
          "type": "string"
        },
        {
          "internalType": "string",
          "name": "color",
          "type": "string"
        },
        {
          "internalType": "uint256",
          "name": "mileage",
          "type": "uint256"
        },
        {
          "internalType": "address",
          "name": "owner",
          "type": "address"
        },
        {
          "internalType": "uint256",
          "name": "askingPrice",
          "type": "uint256"
        },
        {
          "internalType": "bool",
          "name": "mileageUpdateRequested",
          "type": "bool"
        },
        {
          "internalType": "address",
          "name": "dealer",
          "type": "address"
        }
      ],
      "stateMutability": "view",
      "type": "function",
      "constant": true
    },
    {
      "inputs": [
        {
          "internalType": "address",
          "name": "",
          "type": "address"
        }
      ],
      "name": "owners",
      "outputs": [
        {
          "internalType": "bool",
          "name": "",
          "type": "bool"
        }
      ],
      "stateMutability": "view",
      "type": "function",
      "constant": true
    },
    {
      "inputs": [
        {
          "internalType": "string",
          "name": "_licensePlate",
          "type": "string"
        },
        {
          "internalType": "string",
          "name": "_brand",
          "type": "string"
        },
        {
          "internalType": "string",
          "name": "_imageUrl",
          "type": "string"
        },
        {
          "internalType": "string",
          "name": "_color",
          "type": "string"
        },
        {
          "internalType": "uint256",
          "name": "_mileage",
          "type": "uint256"
        },
        {
          "internalType": "uint256",
          "name": "_askingPrice",
          "type": "uint256"
        },
        {
          "internalType": "address",
          "name": "_dealer",
          "type": "address"
        }
      ],
      "name": "registerCar",
      "outputs": [],
      "stateMutability": "nonpayable",
      "type": "function"
    },
    {
      "inputs": [
        {
          "internalType": "uint256",
          "name": "_carId",
          "type": "uint256"
        }
      ],
      "name": "requestMileageUpdate",
      "outputs": [],
      "stateMutability": "nonpayable",
      "type": "function"
    },
    {
      "inputs": [
        {
          "internalType": "uint256",
          "name": "_carId",
          "type": "uint256"
        },
        {
          "internalType": "uint256",
          "name": "_newMileage",
          "type": "uint256"
        }
      ],
      "name": "confirmMileageUpdate",
      "outputs": [],
      "stateMutability": "nonpayable",
      "type": "function"
    },
    {
      "inputs": [],
      "name": "getCarsCount",
      "outputs": [
        {
          "internalType": "uint256",
          "name": "",
          "type": "uint256"
        }
      ],
      "stateMutability": "view",
      "type": "function",
      "constant": true
    },
    {
      "inputs": [],
      "name": "getAllCars",
      "outputs": [
        {
          "components": [
            {
              "internalType": "uint256",
              "name": "carId",
              "type": "uint256"
            },
            {
              "internalType": "string",
              "name": "licensePlate",
              "type": "string"
            },
            {
              "internalType": "string",
              "name": "brand",
              "type": "string"
            },
            {
              "internalType": "string",
              "name": "imageUrl",
              "type": "string"
            },
            {
              "internalType": "string",
              "name": "color",
              "type": "string"
            },
            {
              "internalType": "uint256",
              "name": "mileage",
              "type": "uint256"
            },
            {
              "internalType": "address",
              "name": "owner",
              "type": "address"
            },
            {
              "internalType": "uint256",
              "name": "askingPrice",
              "type": "uint256"
            },
            {
              "internalType": "bool",
              "name": "mileageUpdateRequested",
              "type": "bool"
            },
            {
              "internalType": "address",
              "name": "dealer",
              "type": "address"
            }
          ],
          "internalType": "struct CarRegistry.Car[]",
          "name": "",
          "type": "tuple[]"
        }
      ],
      "stateMutability": "view",
      "type": "function",
      "constant": true
    },
    {
      "inputs": [
        {
          "internalType": "address",
          "name": "_owner",
          "type": "address"
        }
      ],
      "name": "getCarsOwnedByAddress",
      "outputs": [
        {
          "components": [
            {
              "internalType": "uint256",
              "name": "carId",
              "type": "uint256"
            },
            {
              "internalType": "string",
              "name": "licensePlate",
              "type": "string"
            },
            {
              "internalType": "string",
              "name": "brand",
              "type": "string"
            },
            {
              "internalType": "string",
              "name": "imageUrl",
              "type": "string"
            },
            {
              "internalType": "string",
              "name": "color",
              "type": "string"
            },
            {
              "internalType": "uint256",
              "name": "mileage",
              "type": "uint256"
            },
            {
              "internalType": "address",
              "name": "owner",
              "type": "address"
            },
            {
              "internalType": "uint256",
              "name": "askingPrice",
              "type": "uint256"
            },
            {
              "internalType": "bool",
              "name": "mileageUpdateRequested",
              "type": "bool"
            },
            {
              "internalType": "address",
              "name": "dealer",
              "type": "address"
            }
          ],
          "internalType": "struct CarRegistry.Car[]",
          "name": "",
          "type": "tuple[]"
        }
      ],
      "stateMutability": "view",
      "type": "function",
      "constant": true
    },
    {
      "inputs": [],
      "name": "getRequestedMileageUpdateCars",
      "outputs": [
        {
          "components": [
            {
              "internalType": "uint256",
              "name": "carId",
              "type": "uint256"
            },
            {
              "internalType": "string",
              "name": "licensePlate",
              "type": "string"
            },
            {
              "internalType": "string",
              "name": "brand",
              "type": "string"
            },
            {
              "internalType": "string",
              "name": "imageUrl",
              "type": "string"
            },
            {
              "internalType": "string",
              "name": "color",
              "type": "string"
            },
            {
              "internalType": "uint256",
              "name": "mileage",
              "type": "uint256"
            },
            {
              "internalType": "address",
              "name": "owner",
              "type": "address"
            },
            {
              "internalType": "uint256",
              "name": "askingPrice",
              "type": "uint256"
            },
            {
              "internalType": "bool",
              "name": "mileageUpdateRequested",
              "type": "bool"
            },
            {
              "internalType": "address",
              "name": "dealer",
              "type": "address"
            }
          ],
          "internalType": "struct CarRegistry.Car[]",
          "name": "",
          "type": "tuple[]"
        }
      ],
      "stateMutability": "view",
      "type": "function",
      "constant": true
    }
  ],
  "bytecode": "0x608060405234801561001057600080fd5b50336000908152600260205260409020805460ff1916600117905561198b8061003a6000396000f3fe608060405234801561001057600080fd5b506004361061009e5760003560e01c8063abfe5d5711610066578063abfe5d571461011e578063bd3d4dae14610126578063d67f1d7b1461012e578063f7746e3614610141578063fae69e641461016a5761009e565b8063022914a7146100a357806325ae1ff6146100cc578063297a1f56146100e15780639cb891ec146100f6578063a1956dd214610116575b600080fd5b6100b66100b13660046114c2565b61017d565b6040516100c39190611776565b60405180910390f35b6100df6100da3660046115c7565b610192565b005b6100e96101db565b6040516100c39190611856565b6101096101043660046114c2565b6101e1565b6040516100c3919061165e565b610109610576565b6101096109e5565b6100e9610d52565b6100df61013c3660046115df565b610d58565b61015461014f3660046115c7565b610e5e565b6040516100c39a9998979695949392919061185f565b6100df6101783660046114e3565b6110dc565b60026020526000908152604090205460ff1681565b600081815260208190526040808220600801805460ff1916600117905551339183917fd0cfd54db7c8dc46a119a9f891a0728941b9a38585187981908e7bbff0de004c9190a350565b60015481565b6060600060015467ffffffffffffffff81111561020e57634e487b7160e01b600052604160045260246000fd5b60405190808252806020026020018201604052801561024757816020015b610234611364565b81526020019060019003908161022c5790505b50905060005b60015481101561056d576000818152602081905260409020600601546001600160a01b038581169116141561055b5760008181526020818152604091829020825161014081019093528054835260018101805491928401916102ae906118f3565b80601f01602080910402602001604051908101604052809291908181526020018280546102da906118f3565b80156103275780601f106102fc57610100808354040283529160200191610327565b820191906000526020600020905b81548152906001019060200180831161030a57829003601f168201915b50505050508152602001600282018054610340906118f3565b80601f016020809104026020016040519081016040528092919081815260200182805461036c906118f3565b80156103b95780601f1061038e576101008083540402835291602001916103b9565b820191906000526020600020905b81548152906001019060200180831161039c57829003601f168201915b505050505081526020016003820180546103d2906118f3565b80601f01602080910402602001604051908101604052809291908181526020018280546103fe906118f3565b801561044b5780601f106104205761010080835404028352916020019161044b565b820191906000526020600020905b81548152906001019060200180831161042e57829003601f168201915b50505050508152602001600482018054610464906118f3565b80601f0160208091040260200160405190810160405280929190818152602001828054610490906118f3565b80156104dd5780601f106104b2576101008083540402835291602001916104dd565b820191906000526020600020905b8154815290600101906020018083116104c057829003601f168201915b50505091835250506005820154602082015260068201546001600160a01b0390811660408301526007830154606083015260089092015460ff811615156080830152610100900490911660a090910152825183908390811061054f57634e487b7160e01b600052603260045260246000fd5b60200260200101819052505b806105658161192e565b91505061024d565b5090505b919050565b6060600060015467ffffffffffffffff8111156105a357634e487b7160e01b600052604160045260246000fd5b6040519080825280602002602001820160405280156105dc57816020015b6105c9611364565b8152602001906001900390816105c15790505b5090506000805b6001548110156109065760008181526020819052604090206008015460ff16156108f4576000818152602081815260409182902082516101408101909352805483526001810180549192840191610639906118f3565b80601f0160208091040260200160405190810160405280929190818152602001828054610665906118f3565b80156106b25780601f10610687576101008083540402835291602001916106b2565b820191906000526020600020905b81548152906001019060200180831161069557829003601f168201915b505050505081526020016002820180546106cb906118f3565b80601f01602080910402602001604051908101604052809291908181526020018280546106f7906118f3565b80156107445780601f1061071957610100808354040283529160200191610744565b820191906000526020600020905b81548152906001019060200180831161072757829003601f168201915b5050505050815260200160038201805461075d906118f3565b80601f0160208091040260200160405190810160405280929190818152602001828054610789906118f3565b80156107d65780601f106107ab576101008083540402835291602001916107d6565b820191906000526020600020905b8154815290600101906020018083116107b957829003601f168201915b505050505081526020016004820180546107ef906118f3565b80601f016020809104026020016040519081016040528092919081815260200182805461081b906118f3565b80156108685780601f1061083d57610100808354040283529160200191610868565b820191906000526020600020905b81548152906001019060200180831161084b57829003601f168201915b50505091835250506005820154602082015260068201546001600160a01b0390811660408301526007830154606083015260089092015460ff811615156080830152610100900490911660a09091015283518490849081106108da57634e487b7160e01b600052603260045260246000fd5b602002602001018190525081806108f09061192e565b9250505b806108fe8161192e565b9150506105e3565b5060008167ffffffffffffffff81111561093057634e487b7160e01b600052604160045260246000fd5b60405190808252806020026020018201604052801561096957816020015b610956611364565b81526020019060019003908161094e5790505b50905060005b828110156109dd5783818151811061099757634e487b7160e01b600052603260045260246000fd5b60200260200101518282815181106109bf57634e487b7160e01b600052603260045260246000fd5b602002602001018190525080806109d59061192e565b91505061096f565b509250505090565b6060600060015467ffffffffffffffff811115610a1257634e487b7160e01b600052604160045260246000fd5b604051908082528060200260200182016040528015610a4b57816020015b610a38611364565b815260200190600190039081610a305790505b50905060005b600154811015610d4c576000818152602081815260409182902082516101408101909352805483526001810180549192840191610a8d906118f3565b80601f0160208091040260200160405190810160405280929190818152602001828054610ab9906118f3565b8015610b065780601f10610adb57610100808354040283529160200191610b06565b820191906000526020600020905b815481529060010190602001808311610ae957829003601f168201915b50505050508152602001600282018054610b1f906118f3565b80601f0160208091040260200160405190810160405280929190818152602001828054610b4b906118f3565b8015610b985780601f10610b6d57610100808354040283529160200191610b98565b820191906000526020600020905b815481529060010190602001808311610b7b57829003601f168201915b50505050508152602001600382018054610bb1906118f3565b80601f0160208091040260200160405190810160405280929190818152602001828054610bdd906118f3565b8015610c2a5780601f10610bff57610100808354040283529160200191610c2a565b820191906000526020600020905b815481529060010190602001808311610c0d57829003601f168201915b50505050508152602001600482018054610c43906118f3565b80601f0160208091040260200160405190810160405280929190818152602001828054610c6f906118f3565b8015610cbc5780601f10610c9157610100808354040283529160200191610cbc565b820191906000526020600020905b815481529060010190602001808311610c9f57829003601f168201915b50505091835250506005820154602082015260068201546001600160a01b0390811660408301526007830154606083015260089092015460ff811615156080830152610100900490911660a0909101528251839083908110610d2e57634e487b7160e01b600052603260045260246000fd5b60200260200101819052508080610d449061192e565b915050610a51565b50905090565b60015490565b60008281526020819052604090206008015460ff16610d925760405162461bcd60e51b8152600401610d89906117cf565b60405180910390fd5b60008281526020819052604090206008015461010090046001600160a01b03163314610dd05760405162461bcd60e51b8152600401610d8990611781565b6000828152602081905260409020600501548111610e005760405162461bcd60e51b8152600401610d8990611806565b6000828152602081905260409081902060058101839055600801805460ff191690555182907f8efc49dd7338aab32e9fff6b2a18b774819b865271595aafc571d0137bedbb3f90610e52908490611856565b60405180910390a25050565b60006020819052908152604090208054600182018054919291610e80906118f3565b80601f0160208091040260200160405190810160405280929190818152602001828054610eac906118f3565b8015610ef95780601f10610ece57610100808354040283529160200191610ef9565b820191906000526020600020905b815481529060010190602001808311610edc57829003601f168201915b505050505090806002018054610f0e906118f3565b80601f0160208091040260200160405190810160405280929190818152602001828054610f3a906118f3565b8015610f875780601f10610f5c57610100808354040283529160200191610f87565b820191906000526020600020905b815481529060010190602001808311610f6a57829003601f168201915b505050505090806003018054610f9c906118f3565b80601f0160208091040260200160405190810160405280929190818152602001828054610fc8906118f3565b80156110155780601f10610fea57610100808354040283529160200191611015565b820191906000526020600020905b815481529060010190602001808311610ff857829003601f168201915b50505050509080600401805461102a906118f3565b80601f0160208091040260200160405190810160405280929190818152602001828054611056906118f3565b80156110a35780601f10611078576101008083540402835291602001916110a3565b820191906000526020600020905b81548152906001019060200180831161108657829003601f168201915b50505050600583015460068401546007850154600890950154939491936001600160a01b03918216935060ff811691610100909104168a565b60405180610140016040528060015481526020018c8c8080601f016020809104026020016040519081016040528093929190818152602001838380828437600092019190915250505090825250604080516020601f8d018190048102820181019092528b815291810191908c908c9081908401838280828437600092019190915250505090825250604080516020601f8b0181900481028201810190925289815291810191908a908a9081908401838280828437600092019190915250505090825250604080516020601f890181900481028201810190925287815291810191908890889081908401838280828437600092018290525093855250505060208083018790523360408085019190915260608401879052608084018390526001600160a01b03861660a0909401939093526001805483528282529290912083518155838201518051919361123593908501929101906113cb565b50604082015180516112519160028401916020909101906113cb565b506060820151805161126d9160038401916020909101906113cb565b50608082015180516112899160048401916020909101906113cb565b5060a0820151600582015560c082015160068201805473ffffffffffffffffffffffffffffffffffffffff19166001600160a01b0392831617905560e0830151600783015561010080840151600890930180546101209095015160ff199095169315159390931774ffffffffffffffffffffffffffffffffffffffff00191693909116029190911790556001546040513391907f459e1abea8d58f1f390ad63904970bc184e7e026ff12f2f7f3c3aed6677ad18790600090a3600180549060006113528361192e565b91905055505050505050505050505050565b60405180610140016040528060008152602001606081526020016060815260200160608152602001606081526020016000815260200160006001600160a01b031681526020016000815260200160001515815260200160006001600160a01b031681525090565b8280546113d7906118f3565b90600052602060002090601f0160209004810192826113f9576000855561143f565b82601f1061141257805160ff191683800117855561143f565b8280016001018555821561143f579182015b8281111561143f578251825591602001919060010190611424565b5061144b92915061144f565b5090565b5b8082111561144b5760008155600101611450565b80356001600160a01b038116811461057157600080fd5b60008083601f84011261148c578182fd5b50813567ffffffffffffffff8111156114a3578182fd5b6020830191508360208285010111156114bb57600080fd5b9250929050565b6000602082840312156114d3578081fd5b6114dc82611464565b9392505050565b600080600080600080600080600080600060e08c8e031215611503578687fd5b67ffffffffffffffff808d351115611519578788fd5b6115268e8e358f0161147b565b909c509a5060208d013581101561153b578788fd5b61154b8e60208f01358f0161147b565b909a50985060408d0135811015611560578788fd5b6115708e60408f01358f0161147b565b909850965060608d0135811015611585578586fd5b506115968d60608e01358e0161147b565b909550935060808c0135925060a08c013591506115b560c08d01611464565b90509295989b509295989b9093969950565b6000602082840312156115d8578081fd5b5035919050565b600080604083850312156115f1578182fd5b50508035926020909101359150565b6001600160a01b03169052565b15159052565b60008151808452815b818110156116385760208185018101518683018201520161161c565b818111156116495782602083870101525b50601f01601f19169290920160200192915050565b60208082528251828201819052600091906040908185019080840286018301878501865b8381101561176857603f1989840301855281516101408151855288820151818a8701526116b182870182611613565b91505087820151858203898701526116c98282611613565b915050606080830151868303828801526116e38382611613565b92505050608080830151868303828801526116fe8382611613565b9250505060a080830151818701525060c08083015161171f82880182611600565b505060e082810151908601526101008083015161173e8288018261160d565b5050610120918201519161175486820184611600565b509588019593505090860190600101611682565b509098975050505050505050565b901515815260200190565b6020808252602e908201527f4f6e6c7920746865206465616c65722063616e20636f6e6669726d207468652060408201526d6d696c656167652075706461746560901b606082015260800190565b6020808252601c908201527f4d696c6561676520757064617465206e6f742072657175657374656400000000604082015260600190565b60208082526030908201527f4e6577206d696c65616765206d7573742062652067726561746572207468616e60408201526f2063757272656e74206d696c6561676560801b606082015260800190565b90815260200190565b60006101408c83528060208401526118798184018d611613565b9050828103604084015261188d818c611613565b905082810360608401526118a1818b611613565b905082810360808401526118b5818a611613565b60a084019890985250506001600160a01b0394851660c082015260e08101939093529015156101008301529091166101209091015295945050505050565b60028104600182168061190757607f821691505b6020821081141561192857634e487b7160e01b600052602260045260246000fd5b50919050565b600060001982141561194e57634e487b7160e01b81526011600452602481fd5b506001019056fea26469706673582212206c690beb6e4b3eae057d15899c54da8cc464ef208ab017cb15b92f07f552b5ef64736f6c63430008000033",
  "immutableReferences": {},
  "source": "// SPDX-License-Identifier: MIT\npragma solidity >=0.5.1 <0.9.0;\npragma experimental ABIEncoderV2;\n\ncontract CarRegistry {\n    struct Car {\n        uint256 carId;\n        string licensePlate;\n        string brand;\n        string imageUrl;\n        string color;\n        uint256 mileage;\n        address owner;\n        uint256 askingPrice;\n        bool mileageUpdateRequested;\n        address dealer;\n    }\n\n    mapping(uint256 => Car) public cars;\n    uint256 public carCount;\n    mapping(address => bool) public owners;\n\n    event CarRegistered(uint256 indexed carId, address indexed owner);\n    event MileageUpdated(uint256 indexed carId, uint256 mileage);\n    event CarListedForSale(uint256 indexed carId, uint256 askingPrice);\n    event CarSold(uint256 indexed carId, address indexed oldOwner, address indexed newOwner, uint256 sellingPrice);\n    event MileageUpdateRequested(uint256 indexed carId, address indexed requester);\n\n    modifier onlyOwner() {\n        require(owners[msg.sender], \"Only the contract owner can perform this action\");\n        _;\n    }\n\n    modifier onlyCarOwner(uint256 _carId) {\n        require(cars[_carId].owner == msg.sender, \"Only the owner can perform this action\");\n        _;\n    }\n\n    constructor() public {\n        owners[msg.sender] = true;\n    }\n\n   function registerCar(\n        string calldata _licensePlate,\n        string calldata _brand,\n        string calldata _imageUrl,\n        string calldata _color,\n        uint256 _mileage,\n        uint256 _askingPrice,\n        address _dealer\n    ) external {\n        cars[carCount] = Car({\n            carId: carCount,\n            licensePlate: _licensePlate,\n            brand: _brand,\n            imageUrl: _imageUrl,\n            color: _color,\n            mileage: _mileage,\n            owner: msg.sender,\n            askingPrice: _askingPrice,\n            mileageUpdateRequested: false,\n            dealer: _dealer\n        });\n\n        emit CarRegistered(carCount, msg.sender);\n        carCount++;\n    }\n\n    function requestMileageUpdate(uint256 _carId) external {\n        cars[_carId].mileageUpdateRequested = true;\n        emit MileageUpdateRequested(_carId, msg.sender);\n    }\n\n    function confirmMileageUpdate(uint256 _carId, uint256 _newMileage) external {\n        require(cars[_carId].mileageUpdateRequested, \"Mileage update not requested\");\n        require(cars[_carId].dealer == msg.sender, \"Only the dealer can confirm the mileage update\");\n        require(_newMileage > cars[_carId].mileage, \"New mileage must be greater than current mileage\");\n\n        cars[_carId].mileage = _newMileage;\n        cars[_carId].mileageUpdateRequested = false;\n    \n        emit MileageUpdated(_carId, _newMileage);\n    }\n\n    // function buyCar(uint256 _carId) external payable {\n    //     require(cars[_carId].forSale, \"Car is not listed for sale\");\n    //     require(msg.value >= cars[_carId].askingPrice, \"Insufficient payment\");\n\n    //     address payable oldOwner = address(uint160(cars[_carId].owner));\n    //     oldOwner.transfer(msg.value);\n\n    //     cars[_carId].owner = msg.sender;\n    //     cars[_carId].forSale = false;\n\n    //     emit CarSold(_carId, oldOwner, msg.sender, msg.value);\n    // }\n\n    // function addOwner(address _newOwner) external onlyOwner {\n    //     owners[_newOwner] = true;\n    // }\n\n    // function removeOwner(address _owner) external onlyOwner {\n    //     require(_owner != msg.sender, \"Cannot remove yourself as an owner\");\n    //     owners[_owner] = false;\n    // }\n\n    function getCarsCount() external view returns (uint256) {\n        return carCount;\n    }\n\n    function getAllCars() external view returns (Car[] memory) {\n        Car[] memory carArray = new Car[](carCount);\n        for (uint256 i = 0; i < carCount; i++) {\n            carArray[i] = cars[i];\n        }\n        return carArray;\n    }\n\n    function getCarsOwnedByAddress(address _owner) external view returns (Car[] memory) {\n        Car[] memory ownedCars = new Car[](carCount);\n\n        for (uint i = 0; i < carCount; i++) {\n            if (cars[i].owner == _owner) {\n                ownedCars[i] = cars[i];\n            }\n        }\n\n        return ownedCars;\n    }\n\n    function getRequestedMileageUpdateCars() external view returns (Car[] memory) {\n        Car[] memory requestedCars = new Car[](carCount);\n        uint256 count = 0;\n\n        for (uint256 i = 0; i < carCount; i++) {\n            if (cars[i].mileageUpdateRequested) {\n                requestedCars[count] = cars[i];\n                count++;\n            }\n        }\n\n        // Trim the array to remove any empty slots\n        Car[] memory result = new Car[](count);\n        for (uint256 j = 0; j < count; j++) {\n            result[j] = requestedCars[j];\n        }\n\n        return result;\n    }\n\n\n}\n",
  "sourcePath": "/Users/harungokcegoz/Documents/blockchain-for-car-market/contracts/contracts/CarRegistry.sol",
  "compiler": {
    "name": "solc",
    "version": "0.8.0+commit.c7dfd78e.Emscripten.clang"
  },
  "schemaVersion": "3.4.16",
  "updatedAt": "2024-03-24T01:20:27.954Z",
  "networkType": "ethereum",
  "devdoc": {
    "kind": "dev",
    "methods": {},
    "version": 1
  },
  "userdoc": {
    "kind": "user",
    "methods": {},
    "version": 1
  }
}