{
  "contractName": "CarRegistry",
  "abi": [
    {
      "inputs": [],
      "stateMutability": "nonpayable",
      "type": "constructor"
    },
    {
      "anonymous": false,
      "inputs": [
        {
          "indexed": true,
          "internalType": "uint256",
          "name": "carId",
          "type": "uint256"
        },
        {
          "indexed": false,
          "internalType": "uint256",
          "name": "askingPrice",
          "type": "uint256"
        }
      ],
      "name": "CarListedForSale",
      "type": "event"
    },
    {
      "anonymous": false,
      "inputs": [
        {
          "indexed": true,
          "internalType": "uint256",
          "name": "carId",
          "type": "uint256"
        },
        {
          "indexed": true,
          "internalType": "address",
          "name": "owner",
          "type": "address"
        }
      ],
      "name": "CarRegistered",
      "type": "event"
    },
    {
      "anonymous": false,
      "inputs": [
        {
          "indexed": true,
          "internalType": "uint256",
          "name": "carId",
          "type": "uint256"
        },
        {
          "indexed": true,
          "internalType": "address",
          "name": "oldOwner",
          "type": "address"
        },
        {
          "indexed": true,
          "internalType": "address",
          "name": "newOwner",
          "type": "address"
        },
        {
          "indexed": false,
          "internalType": "uint256",
          "name": "sellingPrice",
          "type": "uint256"
        }
      ],
      "name": "CarSold",
      "type": "event"
    },
    {
      "anonymous": false,
      "inputs": [
        {
          "indexed": true,
          "internalType": "uint256",
          "name": "carId",
          "type": "uint256"
        },
        {
          "indexed": true,
          "internalType": "address",
          "name": "requester",
          "type": "address"
        }
      ],
      "name": "MileageUpdateRequested",
      "type": "event"
    },
    {
      "anonymous": false,
      "inputs": [
        {
          "indexed": true,
          "internalType": "uint256",
          "name": "carId",
          "type": "uint256"
        },
        {
          "indexed": false,
          "internalType": "uint256",
          "name": "mileage",
          "type": "uint256"
        }
      ],
      "name": "MileageUpdated",
      "type": "event"
    },
    {
      "inputs": [],
      "name": "carCount",
      "outputs": [
        {
          "internalType": "uint256",
          "name": "",
          "type": "uint256"
        }
      ],
      "stateMutability": "view",
      "type": "function",
      "constant": true
    },
    {
      "inputs": [
        {
          "internalType": "uint256",
          "name": "",
          "type": "uint256"
        }
      ],
      "name": "cars",
      "outputs": [
        {
          "internalType": "string",
          "name": "licensePlate",
          "type": "string"
        },
        {
          "internalType": "string",
          "name": "chassisNumber",
          "type": "string"
        },
        {
          "internalType": "string",
          "name": "brand",
          "type": "string"
        },
        {
          "internalType": "string",
          "name": "imageUrl",
          "type": "string"
        },
        {
          "internalType": "string",
          "name": "color",
          "type": "string"
        },
        {
          "internalType": "uint256",
          "name": "mileage",
          "type": "uint256"
        },
        {
          "internalType": "address",
          "name": "owner",
          "type": "address"
        },
        {
          "internalType": "uint256",
          "name": "askingPrice",
          "type": "uint256"
        },
        {
          "internalType": "bool",
          "name": "forSale",
          "type": "bool"
        },
        {
          "internalType": "address",
          "name": "dealer",
          "type": "address"
        },
        {
          "internalType": "bool",
          "name": "mileageUpdateRequested",
          "type": "bool"
        }
      ],
      "stateMutability": "view",
      "type": "function",
      "constant": true
    },
    {
      "inputs": [
        {
          "internalType": "address",
          "name": "",
          "type": "address"
        }
      ],
      "name": "owners",
      "outputs": [
        {
          "internalType": "bool",
          "name": "",
          "type": "bool"
        }
      ],
      "stateMutability": "view",
      "type": "function",
      "constant": true
    },
    {
      "inputs": [
        {
          "internalType": "string",
          "name": "_licensePlate",
          "type": "string"
        },
        {
          "internalType": "string",
          "name": "_chassisNumber",
          "type": "string"
        },
        {
          "internalType": "string",
          "name": "_brand",
          "type": "string"
        },
        {
          "internalType": "string",
          "name": "_imageUrl",
          "type": "string"
        },
        {
          "internalType": "string",
          "name": "_color",
          "type": "string"
        },
        {
          "internalType": "uint256",
          "name": "_mileage",
          "type": "uint256"
        },
        {
          "internalType": "uint256",
          "name": "_askingPrice",
          "type": "uint256"
        }
      ],
      "name": "registerCar",
      "outputs": [],
      "stateMutability": "nonpayable",
      "type": "function"
    },
    {
      "inputs": [
        {
          "internalType": "uint256",
          "name": "_carId",
          "type": "uint256"
        }
      ],
      "name": "requestMileageUpdate",
      "outputs": [],
      "stateMutability": "nonpayable",
      "type": "function"
    },
    {
      "inputs": [
        {
          "internalType": "uint256",
          "name": "_carId",
          "type": "uint256"
        },
        {
          "internalType": "uint256",
          "name": "_newMileage",
          "type": "uint256"
        }
      ],
      "name": "confirmMileageUpdate",
      "outputs": [],
      "stateMutability": "nonpayable",
      "type": "function"
    },
    {
      "inputs": [
        {
          "internalType": "uint256",
          "name": "_carId",
          "type": "uint256"
        }
      ],
      "name": "getCar",
      "outputs": [
        {
          "internalType": "string",
          "name": "licensePlate",
          "type": "string"
        },
        {
          "internalType": "string",
          "name": "chassisNumber",
          "type": "string"
        },
        {
          "internalType": "string",
          "name": "brand",
          "type": "string"
        },
        {
          "internalType": "string",
          "name": "imageUrl",
          "type": "string"
        },
        {
          "internalType": "string",
          "name": "color",
          "type": "string"
        },
        {
          "internalType": "uint256",
          "name": "mileage",
          "type": "uint256"
        },
        {
          "internalType": "address",
          "name": "owner",
          "type": "address"
        },
        {
          "internalType": "uint256",
          "name": "askingPrice",
          "type": "uint256"
        },
        {
          "internalType": "bool",
          "name": "forSale",
          "type": "bool"
        }
      ],
      "stateMutability": "view",
      "type": "function",
      "constant": true
    },
    {
      "inputs": [],
      "name": "getCarsCount",
      "outputs": [
        {
          "internalType": "uint256",
          "name": "",
          "type": "uint256"
        }
      ],
      "stateMutability": "view",
      "type": "function",
      "constant": true
    },
    {
      "inputs": [],
      "name": "getAllCars",
      "outputs": [
        {
          "components": [
            {
              "internalType": "string",
              "name": "licensePlate",
              "type": "string"
            },
            {
              "internalType": "string",
              "name": "chassisNumber",
              "type": "string"
            },
            {
              "internalType": "string",
              "name": "brand",
              "type": "string"
            },
            {
              "internalType": "string",
              "name": "imageUrl",
              "type": "string"
            },
            {
              "internalType": "string",
              "name": "color",
              "type": "string"
            },
            {
              "internalType": "uint256",
              "name": "mileage",
              "type": "uint256"
            },
            {
              "internalType": "address",
              "name": "owner",
              "type": "address"
            },
            {
              "internalType": "uint256",
              "name": "askingPrice",
              "type": "uint256"
            },
            {
              "internalType": "bool",
              "name": "forSale",
              "type": "bool"
            },
            {
              "internalType": "address",
              "name": "dealer",
              "type": "address"
            },
            {
              "internalType": "bool",
              "name": "mileageUpdateRequested",
              "type": "bool"
            }
          ],
          "internalType": "struct CarRegistry.Car[]",
          "name": "",
          "type": "tuple[]"
        }
      ],
      "stateMutability": "view",
      "type": "function",
      "constant": true
    },
    {
      "inputs": [
        {
          "internalType": "address",
          "name": "_owner",
          "type": "address"
        }
      ],
      "name": "getCarsOwnedByAddress",
      "outputs": [
        {
          "components": [
            {
              "internalType": "string",
              "name": "licensePlate",
              "type": "string"
            },
            {
              "internalType": "string",
              "name": "chassisNumber",
              "type": "string"
            },
            {
              "internalType": "string",
              "name": "brand",
              "type": "string"
            },
            {
              "internalType": "string",
              "name": "imageUrl",
              "type": "string"
            },
            {
              "internalType": "string",
              "name": "color",
              "type": "string"
            },
            {
              "internalType": "uint256",
              "name": "mileage",
              "type": "uint256"
            },
            {
              "internalType": "address",
              "name": "owner",
              "type": "address"
            },
            {
              "internalType": "uint256",
              "name": "askingPrice",
              "type": "uint256"
            },
            {
              "internalType": "bool",
              "name": "forSale",
              "type": "bool"
            },
            {
              "internalType": "address",
              "name": "dealer",
              "type": "address"
            },
            {
              "internalType": "bool",
              "name": "mileageUpdateRequested",
              "type": "bool"
            }
          ],
          "internalType": "struct CarRegistry.Car[]",
          "name": "",
          "type": "tuple[]"
        }
      ],
      "stateMutability": "view",
      "type": "function",
      "constant": true
    },
    {
      "inputs": [],
      "name": "getRequestedMileageUpdateCars",
      "outputs": [
        {
          "internalType": "uint256[]",
          "name": "",
          "type": "uint256[]"
        }
      ],
      "stateMutability": "view",
      "type": "function",
      "constant": true
    }
  ],
  "bytecode": "0x608060405234801561001057600080fd5b50336000908152600260205260409020805460ff19166001179055611f138061003a6000396000f3fe608060405234801561001057600080fd5b50600436106100a95760003560e01c8063a1956dd211610071578063a1956dd214610149578063abfe5d571461015e578063bd3d4dae14610166578063d67f1d7b1461016e578063f7746e3614610181578063fa17a070146101ab576100a9565b8063022914a7146100ae57806325ae1ff6146100d7578063297a1f56146100ec5780635e8be190146101015780639cb891ec14610129575b600080fd5b6100c16100bc366004611897565b6101be565b6040516100ce9190611bf9565b60405180910390f35b6100ea6100e53660046119e1565b6101d3565b005b6100f4610281565b6040516100ce9190611e72565b61011461010f3660046119e1565b610287565b6040516100ce99989796959493929190611c04565b61013c610137366004611897565b610687565b6040516100ce9190611a78565b610151610ab5565b6040516100ce9190611bb5565b61013c610c57565b6100f461105f565b6100ea61017c3660046119f9565b611065565b61019461018f3660046119e1565b611170565b6040516100ce9b9a99989796959493929190611c9d565b6100ea6101b93660046118c5565b61147e565b60026020526000908152604090205460ff1681565b60008181526020819052604090206006015481906001600160a01b031633146102175760405162461bcd60e51b815260040161020e90611d57565b60405180910390fd5b6000828152602081905260408082206008018054600160a81b60ff60a81b1990911617610100600160a81b03191661010033908102919091179091559051909184917fd0cfd54db7c8dc46a119a9f891a0728941b9a38585187981908e7bbff0de004c9190a35050565b60015481565b606080606080606060008060008060008060008c8152602001908152602001600020604051806101600160405290816000820180546102c590611e7b565b80601f01602080910402602001604051908101604052809291908181526020018280546102f190611e7b565b801561033e5780601f106103135761010080835404028352916020019161033e565b820191906000526020600020905b81548152906001019060200180831161032157829003601f168201915b5050505050815260200160018201805461035790611e7b565b80601f016020809104026020016040519081016040528092919081815260200182805461038390611e7b565b80156103d05780601f106103a5576101008083540402835291602001916103d0565b820191906000526020600020905b8154815290600101906020018083116103b357829003601f168201915b505050505081526020016002820180546103e990611e7b565b80601f016020809104026020016040519081016040528092919081815260200182805461041590611e7b565b80156104625780601f1061043757610100808354040283529160200191610462565b820191906000526020600020905b81548152906001019060200180831161044557829003601f168201915b5050505050815260200160038201805461047b90611e7b565b80601f01602080910402602001604051908101604052809291908181526020018280546104a790611e7b565b80156104f45780601f106104c9576101008083540402835291602001916104f4565b820191906000526020600020905b8154815290600101906020018083116104d757829003601f168201915b5050505050815260200160048201805461050d90611e7b565b80601f016020809104026020016040519081016040528092919081815260200182805461053990611e7b565b80156105865780601f1061055b57610100808354040283529160200191610586565b820191906000526020600020905b81548152906001019060200180831161056957829003601f168201915b50505050508152602001600582015481526020016006820160009054906101000a90046001600160a01b03166001600160a01b03166001600160a01b03168152602001600782015481526020016008820160009054906101000a900460ff161515151581526020016008820160019054906101000a90046001600160a01b03166001600160a01b03166001600160a01b031681526020016008820160159054906101000a900460ff1615151515815250509050806000015181602001518260400151836060015184608001518560a001518660c001518760e00151886101000151995099509950995099509950995099509950509193959799909294969850565b6060600060015467ffffffffffffffff8111156106b457634e487b7160e01b600052604160045260246000fd5b6040519080825280602002602001820160405280156106ed57816020015b6106da611747565b8152602001906001900390816106d25790505b50905060005b600154811015610aae576000818152602081905260409020600601546001600160a01b0385811691161415610a9c57600081815260208190526040908190208151610160810190925280548290829061074b90611e7b565b80601f016020809104026020016040519081016040528092919081815260200182805461077790611e7b565b80156107c45780601f10610799576101008083540402835291602001916107c4565b820191906000526020600020905b8154815290600101906020018083116107a757829003601f168201915b505050505081526020016001820180546107dd90611e7b565b80601f016020809104026020016040519081016040528092919081815260200182805461080990611e7b565b80156108565780601f1061082b57610100808354040283529160200191610856565b820191906000526020600020905b81548152906001019060200180831161083957829003601f168201915b5050505050815260200160028201805461086f90611e7b565b80601f016020809104026020016040519081016040528092919081815260200182805461089b90611e7b565b80156108e85780601f106108bd576101008083540402835291602001916108e8565b820191906000526020600020905b8154815290600101906020018083116108cb57829003601f168201915b5050505050815260200160038201805461090190611e7b565b80601f016020809104026020016040519081016040528092919081815260200182805461092d90611e7b565b801561097a5780601f1061094f5761010080835404028352916020019161097a565b820191906000526020600020905b81548152906001019060200180831161095d57829003601f168201915b5050505050815260200160048201805461099390611e7b565b80601f01602080910402602001604051908101604052809291908181526020018280546109bf90611e7b565b8015610a0c5780601f106109e157610100808354040283529160200191610a0c565b820191906000526020600020905b8154815290600101906020018083116109ef57829003601f168201915b50505091835250506005820154602082015260068201546001600160a01b0390811660408301526007830154606083015260089092015460ff80821615156080840152610100820490931660a0830152600160a81b9004909116151560c0909101528251839083908110610a9057634e487b7160e01b600052603260045260246000fd5b60200260200101819052505b80610aa681611eb6565b9150506106f3565b5092915050565b6060600060015467ffffffffffffffff811115610ae257634e487b7160e01b600052604160045260246000fd5b604051908082528060200260200182016040528015610b0b578160200160208202803683370190505b5090506000805b600154811015610b8957600081815260208190526040902060080154600160a81b900460ff1615610b775780838381518110610b5e57634e487b7160e01b600052603260045260246000fd5b602090810291909101015281610b7381611eb6565b9250505b80610b8181611eb6565b915050610b12565b5060008167ffffffffffffffff811115610bb357634e487b7160e01b600052604160045260246000fd5b604051908082528060200260200182016040528015610bdc578160200160208202803683370190505b50905060005b82811015610c4f57838181518110610c0a57634e487b7160e01b600052603260045260246000fd5b6020026020010151828281518110610c3257634e487b7160e01b600052603260045260246000fd5b602090810291909101015280610c4781611eb6565b915050610be2565b509250505090565b6060600060015467ffffffffffffffff811115610c8457634e487b7160e01b600052604160045260246000fd5b604051908082528060200260200182016040528015610cbd57816020015b610caa611747565b815260200190600190039081610ca25790505b50905060005b600154811015611059576000818152602081905260409081902081516101608101909252805482908290610cf690611e7b565b80601f0160208091040260200160405190810160405280929190818152602001828054610d2290611e7b565b8015610d6f5780601f10610d4457610100808354040283529160200191610d6f565b820191906000526020600020905b815481529060010190602001808311610d5257829003601f168201915b50505050508152602001600182018054610d8890611e7b565b80601f0160208091040260200160405190810160405280929190818152602001828054610db490611e7b565b8015610e015780601f10610dd657610100808354040283529160200191610e01565b820191906000526020600020905b815481529060010190602001808311610de457829003601f168201915b50505050508152602001600282018054610e1a90611e7b565b80601f0160208091040260200160405190810160405280929190818152602001828054610e4690611e7b565b8015610e935780601f10610e6857610100808354040283529160200191610e93565b820191906000526020600020905b815481529060010190602001808311610e7657829003601f168201915b50505050508152602001600382018054610eac90611e7b565b80601f0160208091040260200160405190810160405280929190818152602001828054610ed890611e7b565b8015610f255780601f10610efa57610100808354040283529160200191610f25565b820191906000526020600020905b815481529060010190602001808311610f0857829003601f168201915b50505050508152602001600482018054610f3e90611e7b565b80601f0160208091040260200160405190810160405280929190818152602001828054610f6a90611e7b565b8015610fb75780601f10610f8c57610100808354040283529160200191610fb7565b820191906000526020600020905b815481529060010190602001808311610f9a57829003601f168201915b50505091835250506005820154602082015260068201546001600160a01b0390811660408301526007830154606083015260089092015460ff80821615156080840152610100820490931660a0830152600160a81b9004909116151560c090910152825183908390811061103b57634e487b7160e01b600052603260045260246000fd5b6020026020010181905250808061105190611eb6565b915050610cc3565b50905090565b60015490565b600082815260208190526040902060080154600160a81b900460ff1661109d5760405162461bcd60e51b815260040161020e90611deb565b60008281526020819052604090206008015461010090046001600160a01b031633146110db5760405162461bcd60e51b815260040161020e90611d9d565b600082815260208190526040902060050154811161110b5760405162461bcd60e51b815260040161020e90611e22565b60008281526020819052604090819020600581018390556008018054610100600160b01b03191690555182907f8efc49dd7338aab32e9fff6b2a18b774819b865271595aafc571d0137bedbb3f90611164908490611e72565b60405180910390a25050565b60006020819052908152604090208054819061118b90611e7b565b80601f01602080910402602001604051908101604052809291908181526020018280546111b790611e7b565b80156112045780601f106111d957610100808354040283529160200191611204565b820191906000526020600020905b8154815290600101906020018083116111e757829003601f168201915b50505050509080600101805461121990611e7b565b80601f016020809104026020016040519081016040528092919081815260200182805461124590611e7b565b80156112925780601f1061126757610100808354040283529160200191611292565b820191906000526020600020905b81548152906001019060200180831161127557829003601f168201915b5050505050908060020180546112a790611e7b565b80601f01602080910402602001604051908101604052809291908181526020018280546112d390611e7b565b80156113205780601f106112f557610100808354040283529160200191611320565b820191906000526020600020905b81548152906001019060200180831161130357829003601f168201915b50505050509080600301805461133590611e7b565b80601f016020809104026020016040519081016040528092919081815260200182805461136190611e7b565b80156113ae5780601f10611383576101008083540402835291602001916113ae565b820191906000526020600020905b81548152906001019060200180831161139157829003601f168201915b5050505050908060040180546113c390611e7b565b80601f01602080910402602001604051908101604052809291908181526020018280546113ef90611e7b565b801561143c5780601f106114115761010080835404028352916020019161143c565b820191906000526020600020905b81548152906001019060200180831161141f57829003601f168201915b50505050600583015460068401546007850154600890950154939491936001600160a01b03918216935060ff8082169261010083041691600160a81b9004168b565b6040518061016001604052808d8d8080601f016020809104026020016040519081016040528093929190818152602001838380828437600092019190915250505090825250604080516020601f8e018190048102820181019092528c815291810191908d908d9081908401838280828437600092019190915250505090825250604080516020601f8c018190048102820181019092528a815291810191908b908b9081908401838280828437600092019190915250505090825250604080516020601f8a0181900481028201810190925288815291810191908990899081908401838280828437600092019190915250505090825250604080516020601f88018190048102820181019092528681529181019190879087908190840183828082843760009201829052509385525050506020808301869052336040808501919091526060840186905260016080850181905260a0850184905260c0909401839052925482528181529190208251805191926115fe928492909101906117b7565b50602082810151805161161792600185019201906117b7565b50604082015180516116339160028401916020909101906117b7565b506060820151805161164f9160038401916020909101906117b7565b506080820151805161166b9160048401916020909101906117b7565b5060a0820151600582015560c08201516006820180546001600160a01b0319166001600160a01b0392831617905560e0830151600783015561010080840151600890930180546101208601516101409096015160ff1990911694151594909417610100600160a81b03191694909216029290921760ff60a81b1916600160a81b911515919091021790556001546040513391907f459e1abea8d58f1f390ad63904970bc184e7e026ff12f2f7f3c3aed6677ad18790600090a36001805490600061173483611eb6565b9190505550505050505050505050505050565b60405180610160016040528060608152602001606081526020016060815260200160608152602001606081526020016000815260200160006001600160a01b031681526020016000815260200160001515815260200160006001600160a01b031681526020016000151581525090565b8280546117c390611e7b565b90600052602060002090601f0160209004810192826117e5576000855561182b565b82601f106117fe57805160ff191683800117855561182b565b8280016001018555821561182b579182015b8281111561182b578251825591602001919060010190611810565b5061183792915061183b565b5090565b5b80821115611837576000815560010161183c565b60008083601f840112611861578182fd5b50813567ffffffffffffffff811115611878578182fd5b60208301915083602082850101111561189057600080fd5b9250929050565b6000602082840312156118a8578081fd5b81356001600160a01b03811681146118be578182fd5b9392505050565b60008060008060008060008060008060008060e08d8f0312156118e6578788fd5b67ffffffffffffffff8d3511156118fb578788fd5b6119088e8e358f01611850565b909c509a5067ffffffffffffffff60208e01351115611925578788fd5b6119358e60208f01358f01611850565b909a50985067ffffffffffffffff60408e01351115611952578788fd5b6119628e60408f01358f01611850565b909850965067ffffffffffffffff60608e0135111561197f578586fd5b61198f8e60608f01358f01611850565b909650945067ffffffffffffffff60808e013511156119ac578384fd5b6119bc8e60808f01358f01611850565b9c9f9b9e50999c989b979a969995989497959660a08601359560c00135945092505050565b6000602082840312156119f2578081fd5b5035919050565b60008060408385031215611a0b578182fd5b50508035926020909101359150565b6001600160a01b03169052565b15159052565b60008151808452815b81811015611a5257602081850181015186830182015201611a36565b81811115611a635782602083870101525b50601f01601f19169290920160200192915050565b60208082528251828201819052600091906040908185019080840286018301878501865b83811015611ba757603f1989840301855281516101608151818652611ac382870182611a2d565b915050888201518582038a870152611adb8282611a2d565b9150508782015185820389870152611af38282611a2d565b91505060608083015186830382880152611b0d8382611a2d565b9250505060808083015186830382880152611b288382611a2d565b9250505060a080830151818701525060c080830151611b4982880182611a1a565b505060e0828101519086015261010080830151611b6882880182611a27565b505061012080830151611b7d82880182611a1a565b50506101409182015191611b9386820184611a27565b509588019593505090860190600101611a9c565b509098975050505050505050565b6020808252825182820181905260009190848201906040850190845b81811015611bed57835183529284019291840191600101611bd1565b50909695505050505050565b901515815260200190565b6000610120808352611c188184018d611a2d565b90508281036020840152611c2c818c611a2d565b90508281036040840152611c40818b611a2d565b90508281036060840152611c54818a611a2d565b90508281036080840152611c688189611a2d565b60a084019790975250506001600160a01b039390931660c084015260e083019190915215156101009091015295945050505050565b6000610160808352611cb18184018f611a2d565b90508281036020840152611cc5818e611a2d565b90508281036040840152611cd9818d611a2d565b90508281036060840152611ced818c611a2d565b90508281036080840152611d01818b611a2d565b60a084018a90526001600160a01b03891660c085015260e084018890528615156101008501529150611d399050610120830185611a1a565b611d47610140830184611a27565b9c9b505050505050505050505050565b60208082526026908201527f4f6e6c7920746865206f776e65722063616e20706572666f726d20746869732060408201526530b1ba34b7b760d11b606082015260800190565b6020808252602e908201527f4f6e6c7920746865206465616c65722063616e20636f6e6669726d207468652060408201526d6d696c656167652075706461746560901b606082015260800190565b6020808252601c908201527f4d696c6561676520757064617465206e6f742072657175657374656400000000604082015260600190565b60208082526030908201527f4e6577206d696c65616765206d7573742062652067726561746572207468616e60408201526f2063757272656e74206d696c6561676560801b606082015260800190565b90815260200190565b600281046001821680611e8f57607f821691505b60208210811415611eb057634e487b7160e01b600052602260045260246000fd5b50919050565b6000600019821415611ed657634e487b7160e01b81526011600452602481fd5b506001019056fea26469706673582212204bc29792fb88c549c6247379abbce9becc254544214ba67a4b5c3b2f444fe59864736f6c63430008000033",
  "immutableReferences": {},
  "source": "// SPDX-License-Identifier: MIT\npragma solidity >=0.5.1 <0.9.0;\npragma experimental ABIEncoderV2;\n\ncontract CarRegistry {\n    struct Car {\n        string licensePlate;\n        string chassisNumber;\n        string brand;\n        string imageUrl;\n        string color;\n        uint256 mileage;\n        address owner;\n        uint256 askingPrice;\n        bool forSale;\n        address dealer;\n        bool mileageUpdateRequested;\n    }\n\n    mapping(uint256 => Car) public cars;\n    uint256 public carCount;\n    mapping(address => bool) public owners;\n\n    event CarRegistered(uint256 indexed carId, address indexed owner);\n    event MileageUpdated(uint256 indexed carId, uint256 mileage);\n    event CarListedForSale(uint256 indexed carId, uint256 askingPrice);\n    event CarSold(uint256 indexed carId, address indexed oldOwner, address indexed newOwner, uint256 sellingPrice);\n    event MileageUpdateRequested(uint256 indexed carId, address indexed requester);\n\n    modifier onlyOwner() {\n        require(owners[msg.sender], \"Only the contract owner can perform this action\");\n        _;\n    }\n\n    modifier onlyCarOwner(uint256 _carId) {\n        require(cars[_carId].owner == msg.sender, \"Only the owner can perform this action\");\n        _;\n    }\n\n    constructor() public {\n        owners[msg.sender] = true;\n    }\n\n   function registerCar(\n        string calldata _licensePlate,\n        string calldata _chassisNumber,\n        string calldata _brand,\n        string calldata _imageUrl,\n        string calldata _color,\n        uint256 _mileage,\n        uint256 _askingPrice\n    ) external {\n        cars[carCount] = Car({\n            licensePlate: _licensePlate,\n            chassisNumber: _chassisNumber,\n            brand: _brand,\n            imageUrl: _imageUrl,\n            color: _color,\n            mileage: _mileage,\n            owner: msg.sender,\n            askingPrice: _askingPrice,\n            forSale: true,\n            mileageUpdateRequested: false,\n            dealer: address(0)\n        });\n\n        emit CarRegistered(carCount, msg.sender);\n        carCount++;\n    }\n\n    function requestMileageUpdate(uint256 _carId) external onlyCarOwner(_carId) {\n        cars[_carId].mileageUpdateRequested = true;\n        cars[_carId].dealer = msg.sender; // Set the dealer as the requester\n        emit MileageUpdateRequested(_carId, msg.sender);\n    }\n\n    function confirmMileageUpdate(uint256 _carId, uint256 _newMileage) external {\n        require(cars[_carId].mileageUpdateRequested, \"Mileage update not requested\");\n        require(cars[_carId].dealer == msg.sender, \"Only the dealer can confirm the mileage update\");\n        require(_newMileage > cars[_carId].mileage, \"New mileage must be greater than current mileage\");\n\n        cars[_carId].mileage = _newMileage;\n        cars[_carId].mileageUpdateRequested = false;\n        cars[_carId].dealer = address(0); // Reset the dealer\n        emit MileageUpdated(_carId, _newMileage);\n    }\n\n    // function updateMileage(uint256 _carId, uint256 _mileage) external onlyCarOwner(_carId) {\n    //     require(_mileage > cars[_carId].mileage, \"New mileage must be greater than current mileage\");\n\n    //     cars[_carId].mileage = _mileage;\n    //     emit MileageUpdated(_carId, _mileage);\n    // }\n\n    // function listCarForSale(uint256 _carId, uint256 _askingPrice) external onlyCarOwner(_carId) {\n    //     cars[_carId].forSale = true;\n    //     cars[_carId].askingPrice = _askingPrice;\n\n    //     emit CarListedForSale(_carId, _askingPrice);\n    // }\n\n    // function buyCar(uint256 _carId) external payable {\n    //     require(cars[_carId].forSale, \"Car is not listed for sale\");\n    //     require(msg.value >= cars[_carId].askingPrice, \"Insufficient payment\");\n\n    //     address payable oldOwner = address(uint160(cars[_carId].owner));\n    //     oldOwner.transfer(msg.value);\n\n    //     cars[_carId].owner = msg.sender;\n    //     cars[_carId].forSale = false;\n\n    //     emit CarSold(_carId, oldOwner, msg.sender, msg.value);\n    // }\n\n\n    function getCar(uint256 _carId) external view returns (\n        string memory licensePlate,\n        string memory chassisNumber,\n        string memory brand,\n        string memory imageUrl,\n        string memory color,\n        uint256 mileage,\n        address owner,\n        uint256 askingPrice,\n        bool forSale\n    ) {\n        Car memory car = cars[_carId];\n        return (\n            car.licensePlate,\n            car.chassisNumber,\n            car.brand,\n            car.imageUrl,\n            car.color,\n            car.mileage,\n            car.owner,\n            car.askingPrice,\n            car.forSale\n        );\n    }\n\n    // function addOwner(address _newOwner) external onlyOwner {\n    //     owners[_newOwner] = true;\n    // }\n\n    // function removeOwner(address _owner) external onlyOwner {\n    //     require(_owner != msg.sender, \"Cannot remove yourself as an owner\");\n    //     owners[_owner] = false;\n    // }\n\n    function getCarsCount() external view returns (uint256) {\n        return carCount;\n    }\n\n    function getAllCars() external view returns (Car[] memory) {\n        Car[] memory carArray = new Car[](carCount);\n        for (uint256 i = 0; i < carCount; i++) {\n            carArray[i] = cars[i];\n        }\n        return carArray;\n    }\n\n    function getCarsOwnedByAddress(address _owner) external view returns (Car[] memory) {\n        Car[] memory ownedCars = new Car[](carCount);\n\n        for (uint i = 0; i < carCount; i++) {\n            if (cars[i].owner == _owner) {\n                ownedCars[i] = cars[i];\n            }\n        }\n\n        return ownedCars;\n    }\n\n    function getRequestedMileageUpdateCars() external view returns (uint256[] memory) {\n        uint256[] memory requestedCars = new uint256[](carCount);\n        uint256 count = 0;\n\n        for (uint256 i = 0; i < carCount; i++) {\n            if (cars[i].mileageUpdateRequested) {\n                requestedCars[count] = i;\n                count++;\n            }\n        }\n\n        // Trim the array to remove any empty slots\n        uint256[] memory result = new uint256[](count);\n        for (uint256 j = 0; j < count; j++) {\n            result[j] = requestedCars[j];\n        }\n\n        return result;\n    }\n\n\n}\n",
  "sourcePath": "/Users/harungokcegoz/Documents/blockchain-for-car-market/contracts/contracts/CarRegistry.sol",
  "compiler": {
    "name": "solc",
    "version": "0.8.0+commit.c7dfd78e.Emscripten.clang"
  },
  "schemaVersion": "3.4.16",
  "updatedAt": "2024-03-23T00:53:36.819Z",
  "networkType": "ethereum",
  "devdoc": {
    "kind": "dev",
    "methods": {},
    "version": 1
  },
  "userdoc": {
    "kind": "user",
    "methods": {},
    "version": 1
  }
}