{
  "contractName": "CarRegistry",
  "abi": [
    {
      "inputs": [],
      "stateMutability": "nonpayable",
      "type": "constructor"
    },
    {
      "anonymous": false,
      "inputs": [
        {
          "indexed": true,
          "internalType": "uint256",
          "name": "carId",
          "type": "uint256"
        },
        {
          "indexed": false,
          "internalType": "uint256",
          "name": "askingPrice",
          "type": "uint256"
        }
      ],
      "name": "CarListedForSale",
      "type": "event"
    },
    {
      "anonymous": false,
      "inputs": [
        {
          "indexed": true,
          "internalType": "uint256",
          "name": "carId",
          "type": "uint256"
        },
        {
          "indexed": true,
          "internalType": "address",
          "name": "owner",
          "type": "address"
        }
      ],
      "name": "CarRegistered",
      "type": "event"
    },
    {
      "anonymous": false,
      "inputs": [
        {
          "indexed": true,
          "internalType": "uint256",
          "name": "carId",
          "type": "uint256"
        },
        {
          "indexed": true,
          "internalType": "address",
          "name": "oldOwner",
          "type": "address"
        },
        {
          "indexed": true,
          "internalType": "address",
          "name": "newOwner",
          "type": "address"
        },
        {
          "indexed": false,
          "internalType": "uint256",
          "name": "sellingPrice",
          "type": "uint256"
        }
      ],
      "name": "CarSold",
      "type": "event"
    },
    {
      "anonymous": false,
      "inputs": [
        {
          "indexed": true,
          "internalType": "uint256",
          "name": "carId",
          "type": "uint256"
        },
        {
          "indexed": false,
          "internalType": "uint256",
          "name": "mileage",
          "type": "uint256"
        }
      ],
      "name": "MileageUpdated",
      "type": "event"
    },
    {
      "inputs": [],
      "name": "carCount",
      "outputs": [
        {
          "internalType": "uint256",
          "name": "",
          "type": "uint256"
        }
      ],
      "stateMutability": "view",
      "type": "function",
      "constant": true
    },
    {
      "inputs": [
        {
          "internalType": "uint256",
          "name": "",
          "type": "uint256"
        }
      ],
      "name": "cars",
      "outputs": [
        {
          "internalType": "string",
          "name": "licensePlate",
          "type": "string"
        },
        {
          "internalType": "string",
          "name": "chassisNumber",
          "type": "string"
        },
        {
          "internalType": "string",
          "name": "brand",
          "type": "string"
        },
        {
          "internalType": "string",
          "name": "imageUrl",
          "type": "string"
        },
        {
          "internalType": "string",
          "name": "color",
          "type": "string"
        },
        {
          "internalType": "uint256",
          "name": "mileage",
          "type": "uint256"
        },
        {
          "internalType": "address",
          "name": "owner",
          "type": "address"
        },
        {
          "internalType": "uint256",
          "name": "askingPrice",
          "type": "uint256"
        },
        {
          "internalType": "bool",
          "name": "forSale",
          "type": "bool"
        }
      ],
      "stateMutability": "view",
      "type": "function",
      "constant": true
    },
    {
      "inputs": [
        {
          "internalType": "address",
          "name": "",
          "type": "address"
        }
      ],
      "name": "owners",
      "outputs": [
        {
          "internalType": "bool",
          "name": "",
          "type": "bool"
        }
      ],
      "stateMutability": "view",
      "type": "function",
      "constant": true
    },
    {
      "inputs": [
        {
          "internalType": "string",
          "name": "_licensePlate",
          "type": "string"
        },
        {
          "internalType": "string",
          "name": "_chassisNumber",
          "type": "string"
        },
        {
          "internalType": "string",
          "name": "_brand",
          "type": "string"
        },
        {
          "internalType": "string",
          "name": "_imageUrl",
          "type": "string"
        },
        {
          "internalType": "string",
          "name": "_color",
          "type": "string"
        },
        {
          "internalType": "uint256",
          "name": "_mileage",
          "type": "uint256"
        },
        {
          "internalType": "uint256",
          "name": "_askingPrice",
          "type": "uint256"
        }
      ],
      "name": "registerCar",
      "outputs": [],
      "stateMutability": "nonpayable",
      "type": "function"
    },
    {
      "inputs": [
        {
          "internalType": "uint256",
          "name": "_carId",
          "type": "uint256"
        }
      ],
      "name": "getCar",
      "outputs": [
        {
          "internalType": "string",
          "name": "licensePlate",
          "type": "string"
        },
        {
          "internalType": "string",
          "name": "chassisNumber",
          "type": "string"
        },
        {
          "internalType": "string",
          "name": "brand",
          "type": "string"
        },
        {
          "internalType": "string",
          "name": "imageUrl",
          "type": "string"
        },
        {
          "internalType": "string",
          "name": "color",
          "type": "string"
        },
        {
          "internalType": "uint256",
          "name": "mileage",
          "type": "uint256"
        },
        {
          "internalType": "address",
          "name": "owner",
          "type": "address"
        },
        {
          "internalType": "uint256",
          "name": "askingPrice",
          "type": "uint256"
        },
        {
          "internalType": "bool",
          "name": "forSale",
          "type": "bool"
        }
      ],
      "stateMutability": "view",
      "type": "function",
      "constant": true
    },
    {
      "inputs": [],
      "name": "getCarsCount",
      "outputs": [
        {
          "internalType": "uint256",
          "name": "",
          "type": "uint256"
        }
      ],
      "stateMutability": "view",
      "type": "function",
      "constant": true
    },
    {
      "inputs": [],
      "name": "getAllCars",
      "outputs": [
        {
          "components": [
            {
              "internalType": "string",
              "name": "licensePlate",
              "type": "string"
            },
            {
              "internalType": "string",
              "name": "chassisNumber",
              "type": "string"
            },
            {
              "internalType": "string",
              "name": "brand",
              "type": "string"
            },
            {
              "internalType": "string",
              "name": "imageUrl",
              "type": "string"
            },
            {
              "internalType": "string",
              "name": "color",
              "type": "string"
            },
            {
              "internalType": "uint256",
              "name": "mileage",
              "type": "uint256"
            },
            {
              "internalType": "address",
              "name": "owner",
              "type": "address"
            },
            {
              "internalType": "uint256",
              "name": "askingPrice",
              "type": "uint256"
            },
            {
              "internalType": "bool",
              "name": "forSale",
              "type": "bool"
            }
          ],
          "internalType": "struct CarRegistry.Car[]",
          "name": "",
          "type": "tuple[]"
        }
      ],
      "stateMutability": "view",
      "type": "function",
      "constant": true
    },
    {
      "inputs": [
        {
          "internalType": "address",
          "name": "_owner",
          "type": "address"
        }
      ],
      "name": "getCarsOwnedByAddress",
      "outputs": [
        {
          "components": [
            {
              "internalType": "string",
              "name": "licensePlate",
              "type": "string"
            },
            {
              "internalType": "string",
              "name": "chassisNumber",
              "type": "string"
            },
            {
              "internalType": "string",
              "name": "brand",
              "type": "string"
            },
            {
              "internalType": "string",
              "name": "imageUrl",
              "type": "string"
            },
            {
              "internalType": "string",
              "name": "color",
              "type": "string"
            },
            {
              "internalType": "uint256",
              "name": "mileage",
              "type": "uint256"
            },
            {
              "internalType": "address",
              "name": "owner",
              "type": "address"
            },
            {
              "internalType": "uint256",
              "name": "askingPrice",
              "type": "uint256"
            },
            {
              "internalType": "bool",
              "name": "forSale",
              "type": "bool"
            }
          ],
          "internalType": "struct CarRegistry.Car[]",
          "name": "",
          "type": "tuple[]"
        }
      ],
      "stateMutability": "view",
      "type": "function",
      "constant": true
    }
  ],
  "bytecode": "0x608060405234801561001057600080fd5b50336000908152600260205260409020805460ff191660011790556117e68061003a6000396000f3fe608060405234801561001057600080fd5b50600436106100885760003560e01c8063abfe5d571161005b578063abfe5d5714610113578063bd3d4dae1461011b578063f7746e3614610123578063fa17a0701461013657610088565b8063022914a71461008d578063297a1f56146100b65780635e8be190146100cb5780639cb891ec146100f3575b600080fd5b6100a061009b3660046113ce565b61014b565b6040516100ad91906116a1565b60405180910390f35b6100be610160565b6040516100ad9190611745565b6100de6100d9366004611518565b610166565b6040516100ad999897969594939291906116ac565b6101066101013660046113ce565b61051c565b6040516100ad919061158e565b610106610928565b6100be610d0e565b6100de610131366004611518565b610d14565b6101496101443660046113fc565b611010565b005b60026020526000908152604090205460ff1681565b60015481565b606080606080606060008060008060008060008c8152602001908152602001600020604051806101200160405290816000820180546101a49061174e565b80601f01602080910402602001604051908101604052809291908181526020018280546101d09061174e565b801561021d5780601f106101f25761010080835404028352916020019161021d565b820191906000526020600020905b81548152906001019060200180831161020057829003601f168201915b505050505081526020016001820180546102369061174e565b80601f01602080910402602001604051908101604052809291908181526020018280546102629061174e565b80156102af5780601f10610284576101008083540402835291602001916102af565b820191906000526020600020905b81548152906001019060200180831161029257829003601f168201915b505050505081526020016002820180546102c89061174e565b80601f01602080910402602001604051908101604052809291908181526020018280546102f49061174e565b80156103415780601f1061031657610100808354040283529160200191610341565b820191906000526020600020905b81548152906001019060200180831161032457829003601f168201915b5050505050815260200160038201805461035a9061174e565b80601f01602080910402602001604051908101604052809291908181526020018280546103869061174e565b80156103d35780601f106103a8576101008083540402835291602001916103d3565b820191906000526020600020905b8154815290600101906020018083116103b657829003601f168201915b505050505081526020016004820180546103ec9061174e565b80601f01602080910402602001604051908101604052809291908181526020018280546104189061174e565b80156104655780601f1061043a57610100808354040283529160200191610465565b820191906000526020600020905b81548152906001019060200180831161044857829003601f168201915b50505050508152602001600582015481526020016006820160009054906101000a90046001600160a01b03166001600160a01b03166001600160a01b03168152602001600782015481526020016008820160009054906101000a900460ff1615151515815250509050806000015181602001518260400151836060015184608001518560a001518660c001518760e00151886101000151995099509950995099509950995099509950509193959799909294969850565b6060600060015467ffffffffffffffff81111561054957634e487b7160e01b600052604160045260246000fd5b60405190808252806020026020018201604052801561058257816020015b61056f611297565b8152602001906001900390816105675790505b50905060005b600154811015610921576000818152602081905260409020600601546001600160a01b038581169116141561090f5760008181526020819052604090819020815161012081019092528054829082906105e09061174e565b80601f016020809104026020016040519081016040528092919081815260200182805461060c9061174e565b80156106595780601f1061062e57610100808354040283529160200191610659565b820191906000526020600020905b81548152906001019060200180831161063c57829003601f168201915b505050505081526020016001820180546106729061174e565b80601f016020809104026020016040519081016040528092919081815260200182805461069e9061174e565b80156106eb5780601f106106c0576101008083540402835291602001916106eb565b820191906000526020600020905b8154815290600101906020018083116106ce57829003601f168201915b505050505081526020016002820180546107049061174e565b80601f01602080910402602001604051908101604052809291908181526020018280546107309061174e565b801561077d5780601f106107525761010080835404028352916020019161077d565b820191906000526020600020905b81548152906001019060200180831161076057829003601f168201915b505050505081526020016003820180546107969061174e565b80601f01602080910402602001604051908101604052809291908181526020018280546107c29061174e565b801561080f5780601f106107e45761010080835404028352916020019161080f565b820191906000526020600020905b8154815290600101906020018083116107f257829003601f168201915b505050505081526020016004820180546108289061174e565b80601f01602080910402602001604051908101604052809291908181526020018280546108549061174e565b80156108a15780601f10610876576101008083540402835291602001916108a1565b820191906000526020600020905b81548152906001019060200180831161088457829003601f168201915b50505091835250506005820154602082015260068201546001600160a01b031660408201526007820154606082015260089091015460ff161515608090910152825183908390811061090357634e487b7160e01b600052603260045260246000fd5b60200260200101819052505b8061091981611789565b915050610588565b5092915050565b6060600060015467ffffffffffffffff81111561095557634e487b7160e01b600052604160045260246000fd5b60405190808252806020026020018201604052801561098e57816020015b61097b611297565b8152602001906001900390816109735790505b50905060005b600154811015610d085760008181526020819052604090819020815161012081019092528054829082906109c79061174e565b80601f01602080910402602001604051908101604052809291908181526020018280546109f39061174e565b8015610a405780601f10610a1557610100808354040283529160200191610a40565b820191906000526020600020905b815481529060010190602001808311610a2357829003601f168201915b50505050508152602001600182018054610a599061174e565b80601f0160208091040260200160405190810160405280929190818152602001828054610a859061174e565b8015610ad25780601f10610aa757610100808354040283529160200191610ad2565b820191906000526020600020905b815481529060010190602001808311610ab557829003601f168201915b50505050508152602001600282018054610aeb9061174e565b80601f0160208091040260200160405190810160405280929190818152602001828054610b179061174e565b8015610b645780601f10610b3957610100808354040283529160200191610b64565b820191906000526020600020905b815481529060010190602001808311610b4757829003601f168201915b50505050508152602001600382018054610b7d9061174e565b80601f0160208091040260200160405190810160405280929190818152602001828054610ba99061174e565b8015610bf65780601f10610bcb57610100808354040283529160200191610bf6565b820191906000526020600020905b815481529060010190602001808311610bd957829003601f168201915b50505050508152602001600482018054610c0f9061174e565b80601f0160208091040260200160405190810160405280929190818152602001828054610c3b9061174e565b8015610c885780601f10610c5d57610100808354040283529160200191610c88565b820191906000526020600020905b815481529060010190602001808311610c6b57829003601f168201915b50505091835250506005820154602082015260068201546001600160a01b031660408201526007820154606082015260089091015460ff1615156080909101528251839083908110610cea57634e487b7160e01b600052603260045260246000fd5b60200260200101819052508080610d0090611789565b915050610994565b50905090565b60015490565b600060208190529081526040902080548190610d2f9061174e565b80601f0160208091040260200160405190810160405280929190818152602001828054610d5b9061174e565b8015610da85780601f10610d7d57610100808354040283529160200191610da8565b820191906000526020600020905b815481529060010190602001808311610d8b57829003601f168201915b505050505090806001018054610dbd9061174e565b80601f0160208091040260200160405190810160405280929190818152602001828054610de99061174e565b8015610e365780601f10610e0b57610100808354040283529160200191610e36565b820191906000526020600020905b815481529060010190602001808311610e1957829003601f168201915b505050505090806002018054610e4b9061174e565b80601f0160208091040260200160405190810160405280929190818152602001828054610e779061174e565b8015610ec45780601f10610e9957610100808354040283529160200191610ec4565b820191906000526020600020905b815481529060010190602001808311610ea757829003601f168201915b505050505090806003018054610ed99061174e565b80601f0160208091040260200160405190810160405280929190818152602001828054610f059061174e565b8015610f525780601f10610f2757610100808354040283529160200191610f52565b820191906000526020600020905b815481529060010190602001808311610f3557829003601f168201915b505050505090806004018054610f679061174e565b80601f0160208091040260200160405190810160405280929190818152602001828054610f939061174e565b8015610fe05780601f10610fb557610100808354040283529160200191610fe0565b820191906000526020600020905b815481529060010190602001808311610fc357829003601f168201915b50505050600583015460068401546007850154600890950154939491936001600160a01b03909116925060ff1689565b6040518061012001604052808d8d8080601f016020809104026020016040519081016040528093929190818152602001838380828437600092019190915250505090825250604080516020601f8e018190048102820181019092528c815291810191908d908d9081908401838280828437600092019190915250505090825250604080516020601f8c018190048102820181019092528a815291810191908b908b9081908401838280828437600092019190915250505090825250604080516020601f8a0181900481028201810190925288815291810191908990899081908401838280828437600092019190915250505090825250604080516020601f8801819004810282018101909252868152918101919087908790819084018382808284376000920182905250938552505050602080830186905233604080850191909152606084018690526001608090940184905292548252818152919020825180519192611182928492909101906112ee565b50602082810151805161119b92600185019201906112ee565b50604082015180516111b79160028401916020909101906112ee565b50606082015180516111d39160038401916020909101906112ee565b50608082015180516111ef9160048401916020909101906112ee565b5060a0820151600582015560c08201516006820180546001600160a01b0319166001600160a01b0390921691909117905560e08201516007820155610100909101516008909101805460ff19169115159190911790556001546040513391907f459e1abea8d58f1f390ad63904970bc184e7e026ff12f2f7f3c3aed6677ad18790600090a36001805490600061128483611789565b9190505550505050505050505050505050565b60405180610120016040528060608152602001606081526020016060815260200160608152602001606081526020016000815260200160006001600160a01b03168152602001600081526020016000151581525090565b8280546112fa9061174e565b90600052602060002090601f01602090048101928261131c5760008555611362565b82601f1061133557805160ff1916838001178555611362565b82800160010185558215611362579182015b82811115611362578251825591602001919060010190611347565b5061136e929150611372565b5090565b5b8082111561136e5760008155600101611373565b60008083601f840112611398578182fd5b50813567ffffffffffffffff8111156113af578182fd5b6020830191508360208285010111156113c757600080fd5b9250929050565b6000602082840312156113df578081fd5b81356001600160a01b03811681146113f5578182fd5b9392505050565b60008060008060008060008060008060008060e08d8f03121561141d578788fd5b67ffffffffffffffff8d351115611432578788fd5b61143f8e8e358f01611387565b909c509a5067ffffffffffffffff60208e0135111561145c578788fd5b61146c8e60208f01358f01611387565b909a50985067ffffffffffffffff60408e01351115611489578788fd5b6114998e60408f01358f01611387565b909850965067ffffffffffffffff60608e013511156114b6578586fd5b6114c68e60608f01358f01611387565b909650945067ffffffffffffffff60808e013511156114e3578384fd5b6114f38e60808f01358f01611387565b9c9f9b9e50999c989b979a969995989497959660a08601359560c00135945092505050565b600060208284031215611529578081fd5b5035919050565b6001600160a01b03169052565b15159052565b60008151808452815b818110156115685760208185018101518683018201520161154c565b818111156115795782602083870101525b50601f01601f19169290920160200192915050565b60208082528251828201819052600091906040908185019080840286018301878501865b8381101561169357603f19898403018552815161012081518186526115d982870182611543565b915050888201518582038a8701526115f18282611543565b91505087820151858203898701526116098282611543565b915050606080830151868303828801526116238382611543565b925050506080808301518683038288015261163e8382611543565b9250505060a080830151818701525060c08083015161165f82880182611530565b505060e08281015190860152610100918201519161167f8187018461153d565b5095880195935050908601906001016115b2565b509098975050505050505050565b901515815260200190565b60006101208083526116c08184018d611543565b905082810360208401526116d4818c611543565b905082810360408401526116e8818b611543565b905082810360608401526116fc818a611543565b905082810360808401526117108189611543565b60a084019790975250506001600160a01b039390931660c084015260e083019190915215156101009091015295945050505050565b90815260200190565b60028104600182168061176257607f821691505b6020821081141561178357634e487b7160e01b600052602260045260246000fd5b50919050565b60006000198214156117a957634e487b7160e01b81526011600452602481fd5b506001019056fea2646970667358221220461156eaa7c7994c7c995b9ed24903cf973a97246f1587b9c16147044bb6a62b64736f6c63430008000033",
  "immutableReferences": {},
  "source": "// SPDX-License-Identifier: MIT\npragma solidity >=0.5.1 <0.9.0;\npragma experimental ABIEncoderV2;\n\ncontract CarRegistry {\n    struct Car {\n        string licensePlate;\n        string chassisNumber;\n        string brand;\n        string imageUrl;\n        string color;\n        uint256 mileage;\n        address owner;\n        uint256 askingPrice;\n        bool forSale;\n    }\n\n    mapping(uint256 => Car) public cars;\n    uint256 public carCount;\n    mapping(address => bool) public owners;\n\n    event CarRegistered(uint256 indexed carId, address indexed owner);\n    event MileageUpdated(uint256 indexed carId, uint256 mileage);\n    event CarListedForSale(uint256 indexed carId, uint256 askingPrice);\n    event CarSold(uint256 indexed carId, address indexed oldOwner, address indexed newOwner, uint256 sellingPrice);\n\n    modifier onlyOwner() {\n        require(owners[msg.sender], \"Only the contract owner can perform this action\");\n        _;\n    }\n\n    modifier onlyCarOwner(uint256 _carId) {\n        require(cars[_carId].owner == msg.sender, \"Only the owner can perform this action\");\n        _;\n    }\n\n    constructor() public {\n        owners[msg.sender] = true;\n    }\n\n    function registerCar(\n        string calldata _licensePlate,\n        string calldata _chassisNumber,\n        string calldata _brand,\n        string calldata _imageUrl,\n        string calldata _color,\n        uint256 _mileage,\n        uint256 _askingPrice\n    ) external {\n        cars[carCount] = Car({\n            licensePlate: _licensePlate,\n            chassisNumber: _chassisNumber,\n            brand: _brand,\n            imageUrl: _imageUrl,\n            color: _color,\n            mileage: _mileage,\n            owner: msg.sender,\n            askingPrice: _askingPrice,\n            forSale: true\n        });\n\n        emit CarRegistered(carCount, msg.sender);\n        carCount++;\n    }\n\n\n    // function updateMileage(uint256 _carId, uint256 _mileage) external onlyCarOwner(_carId) {\n    //     require(_mileage > cars[_carId].mileage, \"New mileage must be greater than current mileage\");\n\n    //     cars[_carId].mileage = _mileage;\n    //     emit MileageUpdated(_carId, _mileage);\n    // }\n\n    // function listCarForSale(uint256 _carId, uint256 _askingPrice) external onlyCarOwner(_carId) {\n    //     cars[_carId].forSale = true;\n    //     cars[_carId].askingPrice = _askingPrice;\n\n    //     emit CarListedForSale(_carId, _askingPrice);\n    // }\n\n    // function buyCar(uint256 _carId) external payable {\n    //     require(cars[_carId].forSale, \"Car is not listed for sale\");\n    //     require(msg.value >= cars[_carId].askingPrice, \"Insufficient payment\");\n\n    //     address payable oldOwner = address(uint160(cars[_carId].owner));\n    //     oldOwner.transfer(msg.value);\n\n    //     cars[_carId].owner = msg.sender;\n    //     cars[_carId].forSale = false;\n\n    //     emit CarSold(_carId, oldOwner, msg.sender, msg.value);\n    // }\n\n\n    function getCar(uint256 _carId) external view returns (\n        string memory licensePlate,\n        string memory chassisNumber,\n        string memory brand,\n        string memory imageUrl,\n        string memory color,\n        uint256 mileage,\n        address owner,\n        uint256 askingPrice,\n        bool forSale\n    ) {\n        Car memory car = cars[_carId];\n        return (\n            car.licensePlate,\n            car.chassisNumber,\n            car.brand,\n            car.imageUrl,\n            car.color,\n            car.mileage,\n            car.owner,\n            car.askingPrice,\n            car.forSale\n        );\n    }\n\n    // function addOwner(address _newOwner) external onlyOwner {\n    //     owners[_newOwner] = true;\n    // }\n\n    // function removeOwner(address _owner) external onlyOwner {\n    //     require(_owner != msg.sender, \"Cannot remove yourself as an owner\");\n    //     owners[_owner] = false;\n    // }\n\n    function getCarsCount() external view returns (uint256) {\n        return carCount;\n    }\n\n    function getAllCars() external view returns (Car[] memory) {\n        Car[] memory carArray = new Car[](carCount);\n        for (uint256 i = 0; i < carCount; i++) {\n            carArray[i] = cars[i];\n        }\n        return carArray;\n    }\n\n    function getCarsOwnedByAddress(address _owner) external view returns (Car[] memory) {\n        Car[] memory ownedCars = new Car[](carCount);\n\n        for (uint i = 0; i < carCount; i++) {\n            if (cars[i].owner == _owner) {\n                ownedCars[i] = cars[i];\n            }\n        }\n\n        return ownedCars;\n    }\n\n}\n",
  "sourcePath": "/Users/harungokcegoz/Documents/blockchain-for-car-market/contracts/contracts/CarRegistry.sol",
  "compiler": {
    "name": "solc",
    "version": "0.8.0+commit.c7dfd78e.Emscripten.clang"
  },
  "schemaVersion": "3.4.16",
  "updatedAt": "2024-03-20T22:48:14.288Z",
  "networkType": "ethereum",
  "devdoc": {
    "kind": "dev",
    "methods": {},
    "version": 1
  },
  "userdoc": {
    "kind": "user",
    "methods": {},
    "version": 1
  }
}