{
  "contractName": "CarRegistry",
  "abi": [
    {
      "inputs": [],
      "stateMutability": "nonpayable",
      "type": "constructor"
    },
    {
      "anonymous": false,
      "inputs": [
        {
          "indexed": true,
          "internalType": "uint256",
          "name": "carId",
          "type": "uint256"
        },
        {
          "indexed": false,
          "internalType": "uint256",
          "name": "askingPrice",
          "type": "uint256"
        }
      ],
      "name": "CarListedForSale",
      "type": "event"
    },
    {
      "anonymous": false,
      "inputs": [
        {
          "indexed": true,
          "internalType": "uint256",
          "name": "carId",
          "type": "uint256"
        },
        {
          "indexed": true,
          "internalType": "address",
          "name": "owner",
          "type": "address"
        }
      ],
      "name": "CarRegistered",
      "type": "event"
    },
    {
      "anonymous": false,
      "inputs": [
        {
          "indexed": true,
          "internalType": "uint256",
          "name": "carId",
          "type": "uint256"
        },
        {
          "indexed": true,
          "internalType": "address",
          "name": "oldOwner",
          "type": "address"
        },
        {
          "indexed": true,
          "internalType": "address",
          "name": "newOwner",
          "type": "address"
        },
        {
          "indexed": false,
          "internalType": "uint256",
          "name": "sellingPrice",
          "type": "uint256"
        }
      ],
      "name": "CarSold",
      "type": "event"
    },
    {
      "anonymous": false,
      "inputs": [
        {
          "indexed": true,
          "internalType": "uint256",
          "name": "carId",
          "type": "uint256"
        },
        {
          "indexed": true,
          "internalType": "address",
          "name": "requester",
          "type": "address"
        }
      ],
      "name": "MileageUpdateRequested",
      "type": "event"
    },
    {
      "anonymous": false,
      "inputs": [
        {
          "indexed": true,
          "internalType": "uint256",
          "name": "carId",
          "type": "uint256"
        },
        {
          "indexed": false,
          "internalType": "uint256",
          "name": "mileage",
          "type": "uint256"
        }
      ],
      "name": "MileageUpdated",
      "type": "event"
    },
    {
      "inputs": [],
      "name": "carCount",
      "outputs": [
        {
          "internalType": "uint256",
          "name": "",
          "type": "uint256"
        }
      ],
      "stateMutability": "view",
      "type": "function",
      "constant": true
    },
    {
      "inputs": [
        {
          "internalType": "uint256",
          "name": "",
          "type": "uint256"
        }
      ],
      "name": "cars",
      "outputs": [
        {
          "internalType": "uint256",
          "name": "carId",
          "type": "uint256"
        },
        {
          "internalType": "string",
          "name": "licensePlate",
          "type": "string"
        },
        {
          "internalType": "string",
          "name": "chassisNumber",
          "type": "string"
        },
        {
          "internalType": "string",
          "name": "brand",
          "type": "string"
        },
        {
          "internalType": "string",
          "name": "imageUrl",
          "type": "string"
        },
        {
          "internalType": "string",
          "name": "color",
          "type": "string"
        },
        {
          "internalType": "uint256",
          "name": "mileage",
          "type": "uint256"
        },
        {
          "internalType": "address",
          "name": "owner",
          "type": "address"
        },
        {
          "internalType": "uint256",
          "name": "askingPrice",
          "type": "uint256"
        },
        {
          "internalType": "bool",
          "name": "forSale",
          "type": "bool"
        },
        {
          "internalType": "address",
          "name": "dealer",
          "type": "address"
        },
        {
          "internalType": "bool",
          "name": "mileageUpdateRequested",
          "type": "bool"
        }
      ],
      "stateMutability": "view",
      "type": "function",
      "constant": true
    },
    {
      "inputs": [
        {
          "internalType": "address",
          "name": "",
          "type": "address"
        }
      ],
      "name": "owners",
      "outputs": [
        {
          "internalType": "bool",
          "name": "",
          "type": "bool"
        }
      ],
      "stateMutability": "view",
      "type": "function",
      "constant": true
    },
    {
      "inputs": [
        {
          "internalType": "string",
          "name": "_licensePlate",
          "type": "string"
        },
        {
          "internalType": "string",
          "name": "_chassisNumber",
          "type": "string"
        },
        {
          "internalType": "string",
          "name": "_brand",
          "type": "string"
        },
        {
          "internalType": "string",
          "name": "_imageUrl",
          "type": "string"
        },
        {
          "internalType": "string",
          "name": "_color",
          "type": "string"
        },
        {
          "internalType": "uint256",
          "name": "_mileage",
          "type": "uint256"
        },
        {
          "internalType": "uint256",
          "name": "_askingPrice",
          "type": "uint256"
        }
      ],
      "name": "registerCar",
      "outputs": [],
      "stateMutability": "nonpayable",
      "type": "function"
    },
    {
      "inputs": [
        {
          "internalType": "uint256",
          "name": "_carId",
          "type": "uint256"
        }
      ],
      "name": "requestMileageUpdate",
      "outputs": [],
      "stateMutability": "nonpayable",
      "type": "function"
    },
    {
      "inputs": [
        {
          "internalType": "uint256",
          "name": "_carId",
          "type": "uint256"
        },
        {
          "internalType": "uint256",
          "name": "_newMileage",
          "type": "uint256"
        }
      ],
      "name": "confirmMileageUpdate",
      "outputs": [],
      "stateMutability": "nonpayable",
      "type": "function"
    },
    {
      "inputs": [
        {
          "internalType": "uint256",
          "name": "_carId",
          "type": "uint256"
        }
      ],
      "name": "getCar",
      "outputs": [
        {
          "internalType": "string",
          "name": "licensePlate",
          "type": "string"
        },
        {
          "internalType": "string",
          "name": "chassisNumber",
          "type": "string"
        },
        {
          "internalType": "string",
          "name": "brand",
          "type": "string"
        },
        {
          "internalType": "string",
          "name": "imageUrl",
          "type": "string"
        },
        {
          "internalType": "string",
          "name": "color",
          "type": "string"
        },
        {
          "internalType": "uint256",
          "name": "mileage",
          "type": "uint256"
        },
        {
          "internalType": "address",
          "name": "owner",
          "type": "address"
        },
        {
          "internalType": "uint256",
          "name": "askingPrice",
          "type": "uint256"
        },
        {
          "internalType": "bool",
          "name": "forSale",
          "type": "bool"
        }
      ],
      "stateMutability": "view",
      "type": "function",
      "constant": true
    },
    {
      "inputs": [],
      "name": "getCarsCount",
      "outputs": [
        {
          "internalType": "uint256",
          "name": "",
          "type": "uint256"
        }
      ],
      "stateMutability": "view",
      "type": "function",
      "constant": true
    },
    {
      "inputs": [],
      "name": "getAllCars",
      "outputs": [
        {
          "components": [
            {
              "internalType": "uint256",
              "name": "carId",
              "type": "uint256"
            },
            {
              "internalType": "string",
              "name": "licensePlate",
              "type": "string"
            },
            {
              "internalType": "string",
              "name": "chassisNumber",
              "type": "string"
            },
            {
              "internalType": "string",
              "name": "brand",
              "type": "string"
            },
            {
              "internalType": "string",
              "name": "imageUrl",
              "type": "string"
            },
            {
              "internalType": "string",
              "name": "color",
              "type": "string"
            },
            {
              "internalType": "uint256",
              "name": "mileage",
              "type": "uint256"
            },
            {
              "internalType": "address",
              "name": "owner",
              "type": "address"
            },
            {
              "internalType": "uint256",
              "name": "askingPrice",
              "type": "uint256"
            },
            {
              "internalType": "bool",
              "name": "forSale",
              "type": "bool"
            },
            {
              "internalType": "address",
              "name": "dealer",
              "type": "address"
            },
            {
              "internalType": "bool",
              "name": "mileageUpdateRequested",
              "type": "bool"
            }
          ],
          "internalType": "struct CarRegistry.Car[]",
          "name": "",
          "type": "tuple[]"
        }
      ],
      "stateMutability": "view",
      "type": "function",
      "constant": true
    },
    {
      "inputs": [
        {
          "internalType": "address",
          "name": "_owner",
          "type": "address"
        }
      ],
      "name": "getCarsOwnedByAddress",
      "outputs": [
        {
          "components": [
            {
              "internalType": "uint256",
              "name": "carId",
              "type": "uint256"
            },
            {
              "internalType": "string",
              "name": "licensePlate",
              "type": "string"
            },
            {
              "internalType": "string",
              "name": "chassisNumber",
              "type": "string"
            },
            {
              "internalType": "string",
              "name": "brand",
              "type": "string"
            },
            {
              "internalType": "string",
              "name": "imageUrl",
              "type": "string"
            },
            {
              "internalType": "string",
              "name": "color",
              "type": "string"
            },
            {
              "internalType": "uint256",
              "name": "mileage",
              "type": "uint256"
            },
            {
              "internalType": "address",
              "name": "owner",
              "type": "address"
            },
            {
              "internalType": "uint256",
              "name": "askingPrice",
              "type": "uint256"
            },
            {
              "internalType": "bool",
              "name": "forSale",
              "type": "bool"
            },
            {
              "internalType": "address",
              "name": "dealer",
              "type": "address"
            },
            {
              "internalType": "bool",
              "name": "mileageUpdateRequested",
              "type": "bool"
            }
          ],
          "internalType": "struct CarRegistry.Car[]",
          "name": "",
          "type": "tuple[]"
        }
      ],
      "stateMutability": "view",
      "type": "function",
      "constant": true
    },
    {
      "inputs": [],
      "name": "getRequestedMileageUpdateCars",
      "outputs": [
        {
          "components": [
            {
              "internalType": "uint256",
              "name": "carId",
              "type": "uint256"
            },
            {
              "internalType": "string",
              "name": "licensePlate",
              "type": "string"
            },
            {
              "internalType": "string",
              "name": "chassisNumber",
              "type": "string"
            },
            {
              "internalType": "string",
              "name": "brand",
              "type": "string"
            },
            {
              "internalType": "string",
              "name": "imageUrl",
              "type": "string"
            },
            {
              "internalType": "string",
              "name": "color",
              "type": "string"
            },
            {
              "internalType": "uint256",
              "name": "mileage",
              "type": "uint256"
            },
            {
              "internalType": "address",
              "name": "owner",
              "type": "address"
            },
            {
              "internalType": "uint256",
              "name": "askingPrice",
              "type": "uint256"
            },
            {
              "internalType": "bool",
              "name": "forSale",
              "type": "bool"
            },
            {
              "internalType": "address",
              "name": "dealer",
              "type": "address"
            },
            {
              "internalType": "bool",
              "name": "mileageUpdateRequested",
              "type": "bool"
            }
          ],
          "internalType": "struct CarRegistry.Car[]",
          "name": "",
          "type": "tuple[]"
        }
      ],
      "stateMutability": "view",
      "type": "function",
      "constant": true
    }
  ],
  "bytecode": "0x608060405234801561001057600080fd5b50336000908152600260205260409020805460ff191660011790556121fc8061003a6000396000f3fe608060405234801561001057600080fd5b50600436106100a95760003560e01c8063a1956dd211610071578063a1956dd214610149578063abfe5d5714610151578063bd3d4dae14610159578063d67f1d7b14610161578063f7746e3614610174578063fa17a0701461019f576100a9565b8063022914a7146100ae57806325ae1ff6146100d7578063297a1f56146100ec5780635e8be190146101015780639cb891ec14610129575b600080fd5b6100c16100bc366004611bf1565b6101b2565b6040516100ce9190611f1b565b60405180910390f35b6100ea6100e5366004611d3b565b6101c7565b005b6100f4610216565b6040516100ce9190612094565b61011461010f366004611d3b565b61021c565b6040516100ce99989796959493929190611f26565b61013c610137366004611bf1565b610627565b6040516100ce9190611dd2565b61013c610a5e565b61013c610f78565b6100f4611389565b6100ea61016f366004611d53565b61138f565b610187610182366004611d3b565b6114a9565b6040516100ce9c9b9a9998979695949392919061209d565b6100ea6101ad366004611c1f565b6117be565b60026020526000908152604090205460ff1681565b600081815260208190526040808220600901805460ff60a81b1916600160a81b17905551339183917fd0cfd54db7c8dc46a119a9f891a0728941b9a38585187981908e7bbff0de004c9190a350565b60015481565b606080606080606060008060008060008060008c8152602001908152602001600020604051806101800160405290816000820154815260200160018201805461026490612164565b80601f016020809104026020016040519081016040528092919081815260200182805461029090612164565b80156102dd5780601f106102b2576101008083540402835291602001916102dd565b820191906000526020600020905b8154815290600101906020018083116102c057829003601f168201915b505050505081526020016002820180546102f690612164565b80601f016020809104026020016040519081016040528092919081815260200182805461032290612164565b801561036f5780601f106103445761010080835404028352916020019161036f565b820191906000526020600020905b81548152906001019060200180831161035257829003601f168201915b5050505050815260200160038201805461038890612164565b80601f01602080910402602001604051908101604052809291908181526020018280546103b490612164565b80156104015780601f106103d657610100808354040283529160200191610401565b820191906000526020600020905b8154815290600101906020018083116103e457829003601f168201915b5050505050815260200160048201805461041a90612164565b80601f016020809104026020016040519081016040528092919081815260200182805461044690612164565b80156104935780601f1061046857610100808354040283529160200191610493565b820191906000526020600020905b81548152906001019060200180831161047657829003601f168201915b505050505081526020016005820180546104ac90612164565b80601f01602080910402602001604051908101604052809291908181526020018280546104d890612164565b80156105255780601f106104fa57610100808354040283529160200191610525565b820191906000526020600020905b81548152906001019060200180831161050857829003601f168201915b50505050508152602001600682015481526020016007820160009054906101000a90046001600160a01b03166001600160a01b03166001600160a01b03168152602001600882015481526020016009820160009054906101000a900460ff161515151581526020016009820160019054906101000a90046001600160a01b03166001600160a01b03166001600160a01b031681526020016009820160159054906101000a900460ff161515151581525050905080602001518160400151826060015183608001518460a001518560c001518660e00151876101000151886101200151995099509950995099509950995099509950509193959799909294969850565b6060600060015467ffffffffffffffff81111561065457634e487b7160e01b600052604160045260246000fd5b60405190808252806020026020018201604052801561068d57816020015b61067a611a9a565b8152602001906001900390816106725790505b50905060005b600154811015610a57576000818152602081905260409020600701546001600160a01b0385811691161415610a455760008181526020818152604091829020825161018081019093528054835260018101805491928401916106f490612164565b80601f016020809104026020016040519081016040528092919081815260200182805461072090612164565b801561076d5780601f106107425761010080835404028352916020019161076d565b820191906000526020600020905b81548152906001019060200180831161075057829003601f168201915b5050505050815260200160028201805461078690612164565b80601f01602080910402602001604051908101604052809291908181526020018280546107b290612164565b80156107ff5780601f106107d4576101008083540402835291602001916107ff565b820191906000526020600020905b8154815290600101906020018083116107e257829003601f168201915b5050505050815260200160038201805461081890612164565b80601f016020809104026020016040519081016040528092919081815260200182805461084490612164565b80156108915780601f1061086657610100808354040283529160200191610891565b820191906000526020600020905b81548152906001019060200180831161087457829003601f168201915b505050505081526020016004820180546108aa90612164565b80601f01602080910402602001604051908101604052809291908181526020018280546108d690612164565b80156109235780601f106108f857610100808354040283529160200191610923565b820191906000526020600020905b81548152906001019060200180831161090657829003601f168201915b5050505050815260200160058201805461093c90612164565b80601f016020809104026020016040519081016040528092919081815260200182805461096890612164565b80156109b55780601f1061098a576101008083540402835291602001916109b5565b820191906000526020600020905b81548152906001019060200180831161099857829003601f168201915b50505091835250506006820154602082015260078201546001600160a01b0390811660408301526008830154606083015260099092015460ff80821615156080840152610100820490931660a0830152600160a81b9004909116151560c0909101528251839083908110610a3957634e487b7160e01b600052603260045260246000fd5b60200260200101819052505b80610a4f8161219f565b915050610693565b5092915050565b6060600060015467ffffffffffffffff811115610a8b57634e487b7160e01b600052604160045260246000fd5b604051908082528060200260200182016040528015610ac457816020015b610ab1611a9a565b815260200190600190039081610aa95790505b5090506000805b600154811015610e9957600081815260208190526040902060090154600160a81b900460ff1615610e87576000818152602081815260409182902082516101808101909352805483526001810180549192840191610b2890612164565b80601f0160208091040260200160405190810160405280929190818152602001828054610b5490612164565b8015610ba15780601f10610b7657610100808354040283529160200191610ba1565b820191906000526020600020905b815481529060010190602001808311610b8457829003601f168201915b50505050508152602001600282018054610bba90612164565b80601f0160208091040260200160405190810160405280929190818152602001828054610be690612164565b8015610c335780601f10610c0857610100808354040283529160200191610c33565b820191906000526020600020905b815481529060010190602001808311610c1657829003601f168201915b50505050508152602001600382018054610c4c90612164565b80601f0160208091040260200160405190810160405280929190818152602001828054610c7890612164565b8015610cc55780601f10610c9a57610100808354040283529160200191610cc5565b820191906000526020600020905b815481529060010190602001808311610ca857829003601f168201915b50505050508152602001600482018054610cde90612164565b80601f0160208091040260200160405190810160405280929190818152602001828054610d0a90612164565b8015610d575780601f10610d2c57610100808354040283529160200191610d57565b820191906000526020600020905b815481529060010190602001808311610d3a57829003601f168201915b50505050508152602001600582018054610d7090612164565b80601f0160208091040260200160405190810160405280929190818152602001828054610d9c90612164565b8015610de95780601f10610dbe57610100808354040283529160200191610de9565b820191906000526020600020905b815481529060010190602001808311610dcc57829003601f168201915b50505091835250506006820154602082015260078201546001600160a01b0390811660408301526008830154606083015260099092015460ff80821615156080840152610100820490931660a0830152600160a81b9004909116151560c0909101528351849084908110610e6d57634e487b7160e01b600052603260045260246000fd5b60200260200101819052508180610e839061219f565b9250505b80610e918161219f565b915050610acb565b5060008167ffffffffffffffff811115610ec357634e487b7160e01b600052604160045260246000fd5b604051908082528060200260200182016040528015610efc57816020015b610ee9611a9a565b815260200190600190039081610ee15790505b50905060005b82811015610f7057838181518110610f2a57634e487b7160e01b600052603260045260246000fd5b6020026020010151828281518110610f5257634e487b7160e01b600052603260045260246000fd5b60200260200101819052508080610f689061219f565b915050610f02565b509250505090565b6060600060015467ffffffffffffffff811115610fa557634e487b7160e01b600052604160045260246000fd5b604051908082528060200260200182016040528015610fde57816020015b610fcb611a9a565b815260200190600190039081610fc35790505b50905060005b60015481101561138357600081815260208181526040918290208251610180810190935280548352600181018054919284019161102090612164565b80601f016020809104026020016040519081016040528092919081815260200182805461104c90612164565b80156110995780601f1061106e57610100808354040283529160200191611099565b820191906000526020600020905b81548152906001019060200180831161107c57829003601f168201915b505050505081526020016002820180546110b290612164565b80601f01602080910402602001604051908101604052809291908181526020018280546110de90612164565b801561112b5780601f106111005761010080835404028352916020019161112b565b820191906000526020600020905b81548152906001019060200180831161110e57829003601f168201915b5050505050815260200160038201805461114490612164565b80601f016020809104026020016040519081016040528092919081815260200182805461117090612164565b80156111bd5780601f10611192576101008083540402835291602001916111bd565b820191906000526020600020905b8154815290600101906020018083116111a057829003601f168201915b505050505081526020016004820180546111d690612164565b80601f016020809104026020016040519081016040528092919081815260200182805461120290612164565b801561124f5780601f106112245761010080835404028352916020019161124f565b820191906000526020600020905b81548152906001019060200180831161123257829003601f168201915b5050505050815260200160058201805461126890612164565b80601f016020809104026020016040519081016040528092919081815260200182805461129490612164565b80156112e15780601f106112b6576101008083540402835291602001916112e1565b820191906000526020600020905b8154815290600101906020018083116112c457829003601f168201915b50505091835250506006820154602082015260078201546001600160a01b0390811660408301526008830154606083015260099092015460ff80821615156080840152610100820490931660a0830152600160a81b9004909116151560c090910152825183908390811061136557634e487b7160e01b600052603260045260246000fd5b6020026020010181905250808061137b9061219f565b915050610fe4565b50905090565b60015490565b600082815260208190526040902060090154600160a81b900460ff166113d05760405162461bcd60e51b81526004016113c79061200d565b60405180910390fd5b60008281526020819052604090206009015461010090046001600160a01b0316331461140e5760405162461bcd60e51b81526004016113c790611fbf565b600082815260208190526040902060060154811161143e5760405162461bcd60e51b81526004016113c790612044565b60008281526020819052604090819020600681018390556009018054610100600160b01b03191661010033021790555182907f8efc49dd7338aab32e9fff6b2a18b774819b865271595aafc571d0137bedbb3f9061149d908490612094565b60405180910390a25050565b600060208190529081526040902080546001820180549192916114cb90612164565b80601f01602080910402602001604051908101604052809291908181526020018280546114f790612164565b80156115445780601f1061151957610100808354040283529160200191611544565b820191906000526020600020905b81548152906001019060200180831161152757829003601f168201915b50505050509080600201805461155990612164565b80601f016020809104026020016040519081016040528092919081815260200182805461158590612164565b80156115d25780601f106115a7576101008083540402835291602001916115d2565b820191906000526020600020905b8154815290600101906020018083116115b557829003601f168201915b5050505050908060030180546115e790612164565b80601f016020809104026020016040519081016040528092919081815260200182805461161390612164565b80156116605780601f1061163557610100808354040283529160200191611660565b820191906000526020600020905b81548152906001019060200180831161164357829003601f168201915b50505050509080600401805461167590612164565b80601f01602080910402602001604051908101604052809291908181526020018280546116a190612164565b80156116ee5780601f106116c3576101008083540402835291602001916116ee565b820191906000526020600020905b8154815290600101906020018083116116d157829003601f168201915b50505050509080600501805461170390612164565b80601f016020809104026020016040519081016040528092919081815260200182805461172f90612164565b801561177c5780601f106117515761010080835404028352916020019161177c565b820191906000526020600020905b81548152906001019060200180831161175f57829003601f168201915b50505050600683015460078401546008850154600990950154939491936001600160a01b03918216935060ff8082169261010083041691600160a81b9004168c565b60405180610180016040528060015481526020018d8d8080601f016020809104026020016040519081016040528093929190818152602001838380828437600092019190915250505090825250604080516020601f8e018190048102820181019092528c815291810191908d908d9081908401838280828437600092019190915250505090825250604080516020601f8c018190048102820181019092528a815291810191908b908b9081908401838280828437600092019190915250505090825250604080516020601f8a0181900481028201810190925288815291810191908990899081908401838280828437600092019190915250505090825250604080516020601f88018190048102820181019092528681529181019190879087908190840183828082843760009201829052509385525050506020808301869052336040808501919091526060840186905260016080850181905260a0850184905260c09094018390528354835282825290912083518155838201518051919361194d9390850192910190611b11565b5060408201518051611969916002840191602090910190611b11565b5060608201518051611985916003840191602090910190611b11565b50608082015180516119a1916004840191602090910190611b11565b5060a082015180516119bd916005840191602090910190611b11565b5060c0820151600682015560e08201516007820180546001600160a01b0319166001600160a01b03928316179055610100808401516008840155610120840151600990930180546101408601516101609096015160ff1990911694151594909417610100600160a81b03191694909216029290921760ff60a81b1916600160a81b911515919091021790556001546040513391907f459e1abea8d58f1f390ad63904970bc184e7e026ff12f2f7f3c3aed6677ad18790600090a360018054906000611a878361219f565b9190505550505050505050505050505050565b6040518061018001604052806000815260200160608152602001606081526020016060815260200160608152602001606081526020016000815260200160006001600160a01b031681526020016000815260200160001515815260200160006001600160a01b031681526020016000151581525090565b828054611b1d90612164565b90600052602060002090601f016020900481019282611b3f5760008555611b85565b82601f10611b5857805160ff1916838001178555611b85565b82800160010185558215611b85579182015b82811115611b85578251825591602001919060010190611b6a565b50611b91929150611b95565b5090565b5b80821115611b915760008155600101611b96565b60008083601f840112611bbb578182fd5b50813567ffffffffffffffff811115611bd2578182fd5b602083019150836020828501011115611bea57600080fd5b9250929050565b600060208284031215611c02578081fd5b81356001600160a01b0381168114611c18578182fd5b9392505050565b60008060008060008060008060008060008060e08d8f031215611c40578788fd5b67ffffffffffffffff8d351115611c55578788fd5b611c628e8e358f01611baa565b909c509a5067ffffffffffffffff60208e01351115611c7f578788fd5b611c8f8e60208f01358f01611baa565b909a50985067ffffffffffffffff60408e01351115611cac578788fd5b611cbc8e60408f01358f01611baa565b909850965067ffffffffffffffff60608e01351115611cd9578586fd5b611ce98e60608f01358f01611baa565b909650945067ffffffffffffffff60808e01351115611d06578384fd5b611d168e60808f01358f01611baa565b9c9f9b9e50999c989b979a969995989497959660a08601359560c00135945092505050565b600060208284031215611d4c578081fd5b5035919050565b60008060408385031215611d65578182fd5b50508035926020909101359150565b6001600160a01b03169052565b15159052565b60008151808452815b81811015611dac57602081850181015186830182015201611d90565b81811115611dbd5782602083870101525b50601f01601f19169290920160200192915050565b60208082528251828201819052600091906040908185019080840286018301878501865b83811015611f0d57603f1989840301855281516101808151855288820151818a870152611e2582870182611d87565b9150508782015185820389870152611e3d8282611d87565b91505060608083015186830382880152611e578382611d87565b9250505060808083015186830382880152611e728382611d87565b9250505060a08083015186830382880152611e8d8382611d87565b9250505060c080830151818701525060e080830151611eae82880182611d74565b5050610100828101519086015261012080830151611ece82880182611d81565b505061014080830151611ee382880182611d74565b50506101609182015191611ef986820184611d81565b509588019593505090860190600101611df6565b509098975050505050505050565b901515815260200190565b6000610120808352611f3a8184018d611d87565b90508281036020840152611f4e818c611d87565b90508281036040840152611f62818b611d87565b90508281036060840152611f76818a611d87565b90508281036080840152611f8a8189611d87565b60a084019790975250506001600160a01b039390931660c084015260e083019190915215156101009091015295945050505050565b6020808252602e908201527f4f6e6c7920746865206465616c65722063616e20636f6e6669726d207468652060408201526d6d696c656167652075706461746560901b606082015260800190565b6020808252601c908201527f4d696c6561676520757064617465206e6f742072657175657374656400000000604082015260600190565b60208082526030908201527f4e6577206d696c65616765206d7573742062652067726561746572207468616e60408201526f2063757272656e74206d696c6561676560801b606082015260800190565b90815260200190565b60006101808e83528060208401526120b78184018f611d87565b905082810360408401526120cb818e611d87565b905082810360608401526120df818d611d87565b905082810360808401526120f3818c611d87565b905082810360a0840152612107818b611d87565b60c084018a90526001600160a01b03891660e0850152610100840188905291506121379050610120830186611d81565b612145610140830185611d74565b612153610160830184611d81565b9d9c50505050505050505050505050565b60028104600182168061217857607f821691505b6020821081141561219957634e487b7160e01b600052602260045260246000fd5b50919050565b60006000198214156121bf57634e487b7160e01b81526011600452602481fd5b506001019056fea26469706673582212209d26350b917ba8fb88e5e68cc704591c849edeb3f982bf7fdaf21be25cbc51fd64736f6c63430008000033",
  "immutableReferences": {},
  "source": "// SPDX-License-Identifier: MIT\npragma solidity >=0.5.1 <0.9.0;\npragma experimental ABIEncoderV2;\n\ncontract CarRegistry {\n    struct Car {\n        uint256 carId;\n        string licensePlate;\n        string chassisNumber;\n        string brand;\n        string imageUrl;\n        string color;\n        uint256 mileage;\n        address owner;\n        uint256 askingPrice;\n        bool forSale;\n        address dealer;\n        bool mileageUpdateRequested;\n    }\n\n    mapping(uint256 => Car) public cars;\n    uint256 public carCount;\n    mapping(address => bool) public owners;\n\n    event CarRegistered(uint256 indexed carId, address indexed owner);\n    event MileageUpdated(uint256 indexed carId, uint256 mileage);\n    event CarListedForSale(uint256 indexed carId, uint256 askingPrice);\n    event CarSold(uint256 indexed carId, address indexed oldOwner, address indexed newOwner, uint256 sellingPrice);\n    event MileageUpdateRequested(uint256 indexed carId, address indexed requester);\n\n    modifier onlyOwner() {\n        require(owners[msg.sender], \"Only the contract owner can perform this action\");\n        _;\n    }\n\n    modifier onlyCarOwner(uint256 _carId) {\n        require(cars[_carId].owner == msg.sender, \"Only the owner can perform this action\");\n        _;\n    }\n\n    constructor() public {\n        owners[msg.sender] = true;\n    }\n\n   function registerCar(\n        string calldata _licensePlate,\n        string calldata _chassisNumber,\n        string calldata _brand,\n        string calldata _imageUrl,\n        string calldata _color,\n        uint256 _mileage,\n        uint256 _askingPrice\n    ) external {\n        cars[carCount] = Car({\n            carId: carCount,\n            licensePlate: _licensePlate,\n            chassisNumber: _chassisNumber,\n            brand: _brand,\n            imageUrl: _imageUrl,\n            color: _color,\n            mileage: _mileage,\n            owner: msg.sender,\n            askingPrice: _askingPrice,\n            forSale: true,\n            mileageUpdateRequested: false,\n            dealer: address(0)\n        });\n\n        emit CarRegistered(carCount, msg.sender);\n        carCount++;\n    }\n\n    function requestMileageUpdate(uint256 _carId) external {\n        cars[_carId].mileageUpdateRequested = true;\n        emit MileageUpdateRequested(_carId, msg.sender);\n    }\n\n    function confirmMileageUpdate(uint256 _carId, uint256 _newMileage) external {\n        require(cars[_carId].mileageUpdateRequested, \"Mileage update not requested\");\n        require(cars[_carId].dealer == msg.sender, \"Only the dealer can confirm the mileage update\");\n        require(_newMileage > cars[_carId].mileage, \"New mileage must be greater than current mileage\");\n\n        cars[_carId].mileage = _newMileage;\n        cars[_carId].mileageUpdateRequested = false;\n        cars[_carId].dealer = msg.sender;\n        emit MileageUpdated(_carId, _newMileage);\n    }\n\n    // function updateMileage(uint256 _carId, uint256 _mileage) external onlyCarOwner(_carId) {\n    //     require(_mileage > cars[_carId].mileage, \"New mileage must be greater than current mileage\");\n\n    //     cars[_carId].mileage = _mileage;\n    //     emit MileageUpdated(_carId, _mileage);\n    // }\n\n    // function listCarForSale(uint256 _carId, uint256 _askingPrice) external onlyCarOwner(_carId) {\n    //     cars[_carId].forSale = true;\n    //     cars[_carId].askingPrice = _askingPrice;\n\n    //     emit CarListedForSale(_carId, _askingPrice);\n    // }\n\n    // function buyCar(uint256 _carId) external payable {\n    //     require(cars[_carId].forSale, \"Car is not listed for sale\");\n    //     require(msg.value >= cars[_carId].askingPrice, \"Insufficient payment\");\n\n    //     address payable oldOwner = address(uint160(cars[_carId].owner));\n    //     oldOwner.transfer(msg.value);\n\n    //     cars[_carId].owner = msg.sender;\n    //     cars[_carId].forSale = false;\n\n    //     emit CarSold(_carId, oldOwner, msg.sender, msg.value);\n    // }\n\n\n    function getCar(uint256 _carId) external view returns (\n        string memory licensePlate,\n        string memory chassisNumber,\n        string memory brand,\n        string memory imageUrl,\n        string memory color,\n        uint256 mileage,\n        address owner,\n        uint256 askingPrice,\n        bool forSale\n    ) {\n        Car memory car = cars[_carId];\n        return (\n            car.licensePlate,\n            car.chassisNumber,\n            car.brand,\n            car.imageUrl,\n            car.color,\n            car.mileage,\n            car.owner,\n            car.askingPrice,\n            car.forSale\n        );\n    }\n\n    // function addOwner(address _newOwner) external onlyOwner {\n    //     owners[_newOwner] = true;\n    // }\n\n    // function removeOwner(address _owner) external onlyOwner {\n    //     require(_owner != msg.sender, \"Cannot remove yourself as an owner\");\n    //     owners[_owner] = false;\n    // }\n\n    function getCarsCount() external view returns (uint256) {\n        return carCount;\n    }\n\n    function getAllCars() external view returns (Car[] memory) {\n        Car[] memory carArray = new Car[](carCount);\n        for (uint256 i = 0; i < carCount; i++) {\n            carArray[i] = cars[i];\n        }\n        return carArray;\n    }\n\n    function getCarsOwnedByAddress(address _owner) external view returns (Car[] memory) {\n        Car[] memory ownedCars = new Car[](carCount);\n\n        for (uint i = 0; i < carCount; i++) {\n            if (cars[i].owner == _owner) {\n                ownedCars[i] = cars[i];\n            }\n        }\n\n        return ownedCars;\n    }\n\n    function getRequestedMileageUpdateCars() external view returns (Car[] memory) {\n        Car[] memory requestedCars = new Car[](carCount);\n        uint256 count = 0;\n\n        for (uint256 i = 0; i < carCount; i++) {\n            if (cars[i].mileageUpdateRequested) {\n                requestedCars[count] = cars[i];\n                count++;\n            }\n        }\n\n        // Trim the array to remove any empty slots\n        Car[] memory result = new Car[](count);\n        for (uint256 j = 0; j < count; j++) {\n            result[j] = requestedCars[j];\n        }\n\n        return result;\n    }\n\n\n}\n",
  "sourcePath": "/Users/harungokcegoz/Documents/blockchain-for-car-market/contracts/contracts/CarRegistry.sol",
  "compiler": {
    "name": "solc",
    "version": "0.8.0+commit.c7dfd78e.Emscripten.clang"
  },
  "schemaVersion": "3.4.16",
  "updatedAt": "2024-03-23T22:14:39.964Z",
  "networkType": "ethereum",
  "devdoc": {
    "kind": "dev",
    "methods": {},
    "version": 1
  },
  "userdoc": {
    "kind": "user",
    "methods": {},
    "version": 1
  }
}